{
	"contracts/PropertyRegistry.sol": {
		"PropertyRegistry": {
			"abi": [
				{
					"anonymous": false,
					"inputs": [
						{
							"indexed": true,
							"internalType": "address",
							"name": "from",
							"type": "address"
						},
						{
							"indexed": true,
							"internalType": "address",
							"name": "to",
							"type": "address"
						},
						{
							"indexed": false,
							"internalType": "uint256",
							"name": "value",
							"type": "uint256"
						}
					],
					"name": "Transfer",
					"type": "event"
				},
				{
					"inputs": [
						{
							"internalType": "address",
							"name": "account",
							"type": "address"
						}
					],
					"name": "balanceOf",
					"outputs": [
						{
							"internalType": "uint256",
							"name": "",
							"type": "uint256"
						}
					],
					"stateMutability": "view",
					"type": "function"
				},
				{
					"inputs": [],
					"name": "decimals",
					"outputs": [
						{
							"internalType": "uint8",
							"name": "",
							"type": "uint8"
						}
					],
					"stateMutability": "view",
					"type": "function"
				},
				{
					"inputs": [
						{
							"internalType": "address",
							"name": "",
							"type": "address"
						}
					],
					"name": "escrowDeposits",
					"outputs": [
						{
							"internalType": "uint256",
							"name": "",
							"type": "uint256"
						}
					],
					"stateMutability": "view",
					"type": "function"
				},
				{
					"inputs": [
						{
							"internalType": "address",
							"name": "",
							"type": "address"
						}
					],
					"name": "escrowPropertyHashes",
					"outputs": [
						{
							"internalType": "string",
							"name": "",
							"type": "string"
						}
					],
					"stateMutability": "view",
					"type": "function"
				},
				{
					"inputs": [
						{
							"internalType": "address",
							"name": "",
							"type": "address"
						}
					],
					"name": "escrowTimestamps",
					"outputs": [
						{
							"internalType": "uint256",
							"name": "",
							"type": "uint256"
						}
					],
					"stateMutability": "view",
					"type": "function"
				},
				{
					"inputs": [
						{
							"internalType": "address",
							"name": "to",
							"type": "address"
						},
						{
							"internalType": "uint256",
							"name": "amount",
							"type": "uint256"
						}
					],
					"name": "mint",
					"outputs": [],
					"stateMutability": "nonpayable",
					"type": "function"
				},
				{
					"inputs": [],
					"name": "mintTokens",
					"outputs": [],
					"stateMutability": "nonpayable",
					"type": "function"
				},
				{
					"inputs": [],
					"name": "name",
					"outputs": [
						{
							"internalType": "string",
							"name": "",
							"type": "string"
						}
					],
					"stateMutability": "view",
					"type": "function"
				},
				{
					"inputs": [
						{
							"internalType": "string",
							"name": "",
							"type": "string"
						}
					],
					"name": "propertyOwners",
					"outputs": [
						{
							"internalType": "address",
							"name": "",
							"type": "address"
						}
					],
					"stateMutability": "view",
					"type": "function"
				},
				{
					"inputs": [
						{
							"internalType": "string",
							"name": "",
							"type": "string"
						}
					],
					"name": "propertyPrices",
					"outputs": [
						{
							"internalType": "uint256",
							"name": "",
							"type": "uint256"
						}
					],
					"stateMutability": "view",
					"type": "function"
				},
				{
					"inputs": [],
					"name": "releaseEscrow",
					"outputs": [],
					"stateMutability": "nonpayable",
					"type": "function"
				},
				{
					"inputs": [
						{
							"internalType": "string",
							"name": "propertyHash",
							"type": "string"
						}
					],
					"name": "sendToEscrow",
					"outputs": [],
					"stateMutability": "nonpayable",
					"type": "function"
				},
				{
					"inputs": [
						{
							"internalType": "string",
							"name": "propertyHash",
							"type": "string"
						},
						{
							"internalType": "uint256",
							"name": "price",
							"type": "uint256"
						}
					],
					"name": "storePropertyHash",
					"outputs": [],
					"stateMutability": "nonpayable",
					"type": "function"
				},
				{
					"inputs": [],
					"name": "symbol",
					"outputs": [
						{
							"internalType": "string",
							"name": "",
							"type": "string"
						}
					],
					"stateMutability": "view",
					"type": "function"
				},
				{
					"inputs": [],
					"name": "totalSupply",
					"outputs": [
						{
							"internalType": "uint256",
							"name": "",
							"type": "uint256"
						}
					],
					"stateMutability": "view",
					"type": "function"
				},
				{
					"inputs": [
						{
							"internalType": "address",
							"name": "recipient",
							"type": "address"
						},
						{
							"internalType": "uint256",
							"name": "amount",
							"type": "uint256"
						}
					],
					"name": "transfer",
					"outputs": [
						{
							"internalType": "bool",
							"name": "",
							"type": "bool"
						}
					],
					"stateMutability": "nonpayable",
					"type": "function"
				},
				{
					"inputs": [
						{
							"internalType": "string",
							"name": "propertyHash",
							"type": "string"
						}
					],
					"name": "verifyPropertyOwner",
					"outputs": [
						{
							"internalType": "address",
							"name": "",
							"type": "address"
						}
					],
					"stateMutability": "view",
					"type": "function"
				}
			],
			"devdoc": {
				"kind": "dev",
				"methods": {},
				"version": 1
			},
			"evm": {
				"assembly": "    /* \"contracts/PropertyRegistry.sol\":1684:3826  contract PropertyRegistry is NYUDToken {... */\n  mstore(0x40, 0x80)\n  callvalue\n  dup1\n  iszero\n  tag_1\n  jumpi\n  0x00\n  dup1\n  revert\ntag_1:\n  pop\n  dataSize(sub_0)\n  dup1\n  dataOffset(sub_0)\n  0x00\n  codecopy\n  0x00\n  return\nstop\n\nsub_0: assembly {\n        /* \"contracts/PropertyRegistry.sol\":1684:3826  contract PropertyRegistry is NYUDToken {... */\n      mstore(0x40, 0x80)\n      callvalue\n      dup1\n      iszero\n      tag_1\n      jumpi\n      0x00\n      dup1\n      revert\n    tag_1:\n      pop\n      jumpi(tag_2, lt(calldatasize, 0x04))\n      shr(0xe0, calldataload(0x00))\n      dup1\n      0x757a5543\n      gt\n      tag_20\n      jumpi\n      dup1\n      0xa2d5b005\n      gt\n      tag_21\n      jumpi\n      dup1\n      0xa2d5b005\n      eq\n      tag_15\n      jumpi\n      dup1\n      0xa9059cbb\n      eq\n      tag_16\n      jumpi\n      dup1\n      0xca672809\n      eq\n      tag_17\n      jumpi\n      dup1\n      0xe743a9de\n      eq\n      tag_18\n      jumpi\n      dup1\n      0xeeb9635c\n      eq\n      tag_19\n      jumpi\n      jump(tag_2)\n    tag_21:\n      dup1\n      0x757a5543\n      eq\n      tag_11\n      jumpi\n      dup1\n      0x7f6a0ad6\n      eq\n      tag_12\n      jumpi\n      dup1\n      0x95d89b41\n      eq\n      tag_13\n      jumpi\n      dup1\n      0x967d7451\n      eq\n      tag_14\n      jumpi\n      jump(tag_2)\n    tag_20:\n      dup1\n      0x29db8b40\n      gt\n      tag_22\n      jumpi\n      dup1\n      0x29db8b40\n      eq\n      tag_7\n      jumpi\n      dup1\n      0x313ce567\n      eq\n      tag_8\n      jumpi\n      dup1\n      0x40c10f19\n      eq\n      tag_9\n      jumpi\n      dup1\n      0x70a08231\n      eq\n      tag_10\n      jumpi\n      jump(tag_2)\n    tag_22:\n      dup1\n      0x06fdde03\n      eq\n      tag_3\n      jumpi\n      dup1\n      0x0904bacc\n      eq\n      tag_4\n      jumpi\n      dup1\n      0x18160ddd\n      eq\n      tag_5\n      jumpi\n      dup1\n      0x19c82c58\n      eq\n      tag_6\n      jumpi\n    tag_2:\n      0x00\n      dup1\n      revert\n        /* \"contracts/PropertyRegistry.sol\":463:504  string public constant name = \"NYUDToken\" */\n    tag_3:\n      tag_23\n      tag_24\n      jump\t// in\n    tag_23:\n      mload(0x40)\n      tag_25\n      swap2\n      swap1\n      tag_26\n      jump\t// in\n    tag_25:\n      mload(0x40)\n      dup1\n      swap2\n      sub\n      swap1\n      return\n        /* \"contracts/PropertyRegistry.sol\":2567:3034  function sendToEscrow(string memory propertyHash) public {... */\n    tag_4:\n      tag_27\n      0x04\n      dup1\n      calldatasize\n      sub\n      dup2\n      add\n      swap1\n      tag_28\n      swap2\n      swap1\n      tag_29\n      jump\t// in\n    tag_28:\n      tag_30\n      jump\t// in\n    tag_27:\n      stop\n        /* \"contracts/PropertyRegistry.sol\":682:780  function totalSupply() public view override returns (uint256) {... */\n    tag_5:\n      tag_31\n      tag_32\n      jump\t// in\n    tag_31:\n      mload(0x40)\n      tag_33\n      swap2\n      swap1\n      tag_34\n      jump\t// in\n    tag_33:\n      mload(0x40)\n      dup1\n      swap2\n      sub\n      swap1\n      return\n        /* \"contracts/PropertyRegistry.sol\":1783:1831  mapping(string => uint256) public propertyPrices */\n    tag_6:\n      tag_35\n      0x04\n      dup1\n      calldatasize\n      sub\n      dup2\n      add\n      swap1\n      tag_36\n      swap2\n      swap1\n      tag_29\n      jump\t// in\n    tag_36:\n      tag_37\n      jump\t// in\n    tag_35:\n      mload(0x40)\n      tag_38\n      swap2\n      swap1\n      tag_34\n      jump\t// in\n    tag_38:\n      mload(0x40)\n      dup1\n      swap2\n      sub\n      swap1\n      return\n        /* \"contracts/PropertyRegistry.sol\":1949:2003  mapping(address => string) public escrowPropertyHashes */\n    tag_7:\n      tag_39\n      0x04\n      dup1\n      calldatasize\n      sub\n      dup2\n      add\n      swap1\n      tag_40\n      swap2\n      swap1\n      tag_41\n      jump\t// in\n    tag_40:\n      tag_42\n      jump\t// in\n    tag_39:\n      mload(0x40)\n      tag_43\n      swap2\n      swap1\n      tag_26\n      jump\t// in\n    tag_43:\n      mload(0x40)\n      dup1\n      swap2\n      sub\n      swap1\n      return\n        /* \"contracts/PropertyRegistry.sol\":554:589  uint8 public constant decimals = 18 */\n    tag_8:\n      tag_44\n      tag_45\n      jump\t// in\n    tag_44:\n      mload(0x40)\n      tag_46\n      swap2\n      swap1\n      tag_47\n      jump\t// in\n    tag_46:\n      mload(0x40)\n      dup1\n      swap2\n      sub\n      swap1\n      return\n        /* \"contracts/PropertyRegistry.sol\":1236:1413  function mint(address to, uint256 amount) public override {... */\n    tag_9:\n      tag_48\n      0x04\n      dup1\n      calldatasize\n      sub\n      dup2\n      add\n      swap1\n      tag_49\n      swap2\n      swap1\n      tag_50\n      jump\t// in\n    tag_49:\n      tag_51\n      jump\t// in\n    tag_48:\n      stop\n        /* \"contracts/PropertyRegistry.sol\":786:903  function balanceOf(address account) public view override returns (uint256) {... */\n    tag_10:\n      tag_52\n      0x04\n      dup1\n      calldatasize\n      sub\n      dup2\n      add\n      swap1\n      tag_53\n      swap2\n      swap1\n      tag_41\n      jump\t// in\n    tag_53:\n      tag_54\n      jump\t// in\n    tag_52:\n      mload(0x40)\n      tag_55\n      swap2\n      swap1\n      tag_34\n      jump\t// in\n    tag_55:\n      mload(0x40)\n      dup1\n      swap2\n      sub\n      swap1\n      return\n        /* \"contracts/PropertyRegistry.sol\":3040:3824  function releaseEscrow() public {... */\n    tag_11:\n      tag_56\n      tag_57\n      jump\t// in\n    tag_56:\n      stop\n        /* \"contracts/PropertyRegistry.sol\":1729:1777  mapping(string => address) public propertyOwners */\n    tag_12:\n      tag_58\n      0x04\n      dup1\n      calldatasize\n      sub\n      dup2\n      add\n      swap1\n      tag_59\n      swap2\n      swap1\n      tag_29\n      jump\t// in\n    tag_59:\n      tag_60\n      jump\t// in\n    tag_58:\n      mload(0x40)\n      tag_61\n      swap2\n      swap1\n      tag_62\n      jump\t// in\n    tag_61:\n      mload(0x40)\n      dup1\n      swap2\n      sub\n      swap1\n      return\n        /* \"contracts/PropertyRegistry.sol\":510:548  string public constant symbol = \"NYUD\" */\n    tag_13:\n      tag_63\n      tag_64\n      jump\t// in\n    tag_63:\n      mload(0x40)\n      tag_65\n      swap2\n      swap1\n      tag_26\n      jump\t// in\n    tag_65:\n      mload(0x40)\n      dup1\n      swap2\n      sub\n      swap1\n      return\n        /* \"contracts/PropertyRegistry.sol\":1892:1943  mapping(address => uint256) public escrowTimestamps */\n    tag_14:\n      tag_66\n      0x04\n      dup1\n      calldatasize\n      sub\n      dup2\n      add\n      swap1\n      tag_67\n      swap2\n      swap1\n      tag_41\n      jump\t// in\n    tag_67:\n      tag_68\n      jump\t// in\n    tag_66:\n      mload(0x40)\n      tag_69\n      swap2\n      swap1\n      tag_34\n      jump\t// in\n    tag_69:\n      mload(0x40)\n      dup1\n      swap2\n      sub\n      swap1\n      return\n        /* \"contracts/PropertyRegistry.sol\":1837:1886  mapping(address => uint256) public escrowDeposits */\n    tag_15:\n      tag_70\n      0x04\n      dup1\n      calldatasize\n      sub\n      dup2\n      add\n      swap1\n      tag_71\n      swap2\n      swap1\n      tag_41\n      jump\t// in\n    tag_71:\n      tag_72\n      jump\t// in\n    tag_70:\n      mload(0x40)\n      tag_73\n      swap2\n      swap1\n      tag_34\n      jump\t// in\n    tag_73:\n      mload(0x40)\n      dup1\n      swap2\n      sub\n      swap1\n      return\n        /* \"contracts/PropertyRegistry.sol\":909:1230  function transfer(address recipient, uint256 amount) public override returns (bool) {... */\n    tag_16:\n      tag_74\n      0x04\n      dup1\n      calldatasize\n      sub\n      dup2\n      add\n      swap1\n      tag_75\n      swap2\n      swap1\n      tag_50\n      jump\t// in\n    tag_75:\n      tag_76\n      jump\t// in\n    tag_74:\n      mload(0x40)\n      tag_77\n      swap2\n      swap1\n      tag_78\n      jump\t// in\n    tag_77:\n      mload(0x40)\n      dup1\n      swap2\n      sub\n      swap1\n      return\n        /* \"contracts/PropertyRegistry.sol\":2285:2424  function verifyPropertyOwner(string memory propertyHash) public view returns (address) {... */\n    tag_17:\n      tag_79\n      0x04\n      dup1\n      calldatasize\n      sub\n      dup2\n      add\n      swap1\n      tag_80\n      swap2\n      swap1\n      tag_29\n      jump\t// in\n    tag_80:\n      tag_81\n      jump\t// in\n    tag_79:\n      mload(0x40)\n      tag_82\n      swap2\n      swap1\n      tag_62\n      jump\t// in\n    tag_82:\n      mload(0x40)\n      dup1\n      swap2\n      sub\n      swap1\n      return\n        /* \"contracts/PropertyRegistry.sol\":2010:2279  function storePropertyHash(string memory propertyHash, uint256 price) public {... */\n    tag_18:\n      tag_83\n      0x04\n      dup1\n      calldatasize\n      sub\n      dup2\n      add\n      swap1\n      tag_84\n      swap2\n      swap1\n      tag_85\n      jump\t// in\n    tag_84:\n      tag_86\n      jump\t// in\n    tag_83:\n      stop\n        /* \"contracts/PropertyRegistry.sol\":2430:2561  function mintTokens() public {... */\n    tag_19:\n      tag_87\n      tag_88\n      jump\t// in\n    tag_87:\n      stop\n        /* \"contracts/PropertyRegistry.sol\":463:504  string public constant name = \"NYUDToken\" */\n    tag_24:\n      mload(0x40)\n      dup1\n      0x40\n      add\n      0x40\n      mstore\n      dup1\n      0x09\n      dup2\n      mstore\n      0x20\n      add\n      0x4e595544546f6b656e0000000000000000000000000000000000000000000000\n      dup2\n      mstore\n      pop\n      dup2\n      jump\t// out\n        /* \"contracts/PropertyRegistry.sol\":2567:3034  function sendToEscrow(string memory propertyHash) public {... */\n    tag_30:\n        /* \"contracts/PropertyRegistry.sol\":2634:2647  uint256 price */\n      0x00\n        /* \"contracts/PropertyRegistry.sol\":2650:2664  propertyPrices */\n      0x03\n        /* \"contracts/PropertyRegistry.sol\":2665:2677  propertyHash */\n      dup3\n        /* \"contracts/PropertyRegistry.sol\":2650:2678  propertyPrices[propertyHash] */\n      mload(0x40)\n      tag_90\n      swap2\n      swap1\n      tag_91\n      jump\t// in\n    tag_90:\n      swap1\n      dup2\n      mstore\n      0x20\n      add\n      mload(0x40)\n      dup1\n      swap2\n      sub\n      swap1\n      keccak256\n      sload\n        /* \"contracts/PropertyRegistry.sol\":2634:2678  uint256 price = propertyPrices[propertyHash] */\n      swap1\n      pop\n        /* \"contracts/PropertyRegistry.sol\":2704:2705  0 */\n      0x00\n        /* \"contracts/PropertyRegistry.sol\":2696:2701  price */\n      dup2\n        /* \"contracts/PropertyRegistry.sol\":2696:2705  price > 0 */\n      gt\n        /* \"contracts/PropertyRegistry.sol\":2688:2731  require(price > 0, \"Property not for sale\") */\n      tag_92\n      jumpi\n      mload(0x40)\n      0x08c379a000000000000000000000000000000000000000000000000000000000\n      dup2\n      mstore\n      0x04\n      add\n      tag_93\n      swap1\n      tag_94\n      jump\t// in\n    tag_93:\n      mload(0x40)\n      dup1\n      swap2\n      sub\n      swap1\n      revert\n    tag_92:\n        /* \"contracts/PropertyRegistry.sol\":2774:2779  price */\n      dup1\n        /* \"contracts/PropertyRegistry.sol\":2749:2770  balanceOf(msg.sender) */\n      tag_95\n        /* \"contracts/PropertyRegistry.sol\":2759:2769  msg.sender */\n      caller\n        /* \"contracts/PropertyRegistry.sol\":2749:2758  balanceOf */\n      tag_54\n        /* \"contracts/PropertyRegistry.sol\":2749:2770  balanceOf(msg.sender) */\n      jump\t// in\n    tag_95:\n        /* \"contracts/PropertyRegistry.sol\":2749:2779  balanceOf(msg.sender) >= price */\n      lt\n      iszero\n        /* \"contracts/PropertyRegistry.sol\":2741:2810  require(balanceOf(msg.sender) >= price, \"Insufficient token balance\") */\n      tag_96\n      jumpi\n      mload(0x40)\n      0x08c379a000000000000000000000000000000000000000000000000000000000\n      dup2\n      mstore\n      0x04\n      add\n      tag_97\n      swap1\n      tag_98\n      jump\t// in\n    tag_97:\n      mload(0x40)\n      dup1\n      swap2\n      sub\n      swap1\n      revert\n    tag_96:\n        /* \"contracts/PropertyRegistry.sol\":2820:2870  internalTransfer(msg.sender, address(this), price) */\n      tag_99\n        /* \"contracts/PropertyRegistry.sol\":2837:2847  msg.sender */\n      caller\n        /* \"contracts/PropertyRegistry.sol\":2857:2861  this */\n      address\n        /* \"contracts/PropertyRegistry.sol\":2864:2869  price */\n      dup4\n        /* \"contracts/PropertyRegistry.sol\":2820:2836  internalTransfer */\n      tag_100\n        /* \"contracts/PropertyRegistry.sol\":2820:2870  internalTransfer(msg.sender, address(this), price) */\n      jump\t// in\n    tag_99:\n        /* \"contracts/PropertyRegistry.sol\":2909:2914  price */\n      dup1\n        /* \"contracts/PropertyRegistry.sol\":2880:2894  escrowDeposits */\n      0x04\n        /* \"contracts/PropertyRegistry.sol\":2880:2906  escrowDeposits[msg.sender] */\n      0x00\n        /* \"contracts/PropertyRegistry.sol\":2895:2905  msg.sender */\n      caller\n        /* \"contracts/PropertyRegistry.sol\":2880:2906  escrowDeposits[msg.sender] */\n      0xffffffffffffffffffffffffffffffffffffffff\n      and\n      0xffffffffffffffffffffffffffffffffffffffff\n      and\n      dup2\n      mstore\n      0x20\n      add\n      swap1\n      dup2\n      mstore\n      0x20\n      add\n      0x00\n      keccak256\n        /* \"contracts/PropertyRegistry.sol\":2880:2914  escrowDeposits[msg.sender] = price */\n      dup2\n      swap1\n      sstore\n      pop\n        /* \"contracts/PropertyRegistry.sol\":2955:2970  block.timestamp */\n      timestamp\n        /* \"contracts/PropertyRegistry.sol\":2924:2940  escrowTimestamps */\n      0x05\n        /* \"contracts/PropertyRegistry.sol\":2924:2952  escrowTimestamps[msg.sender] */\n      0x00\n        /* \"contracts/PropertyRegistry.sol\":2941:2951  msg.sender */\n      caller\n        /* \"contracts/PropertyRegistry.sol\":2924:2952  escrowTimestamps[msg.sender] */\n      0xffffffffffffffffffffffffffffffffffffffff\n      and\n      0xffffffffffffffffffffffffffffffffffffffff\n      and\n      dup2\n      mstore\n      0x20\n      add\n      swap1\n      dup2\n      mstore\n      0x20\n      add\n      0x00\n      keccak256\n        /* \"contracts/PropertyRegistry.sol\":2924:2970  escrowTimestamps[msg.sender] = block.timestamp */\n      dup2\n      swap1\n      sstore\n      pop\n        /* \"contracts/PropertyRegistry.sol\":3015:3027  propertyHash */\n      dup2\n        /* \"contracts/PropertyRegistry.sol\":2980:3000  escrowPropertyHashes */\n      0x06\n        /* \"contracts/PropertyRegistry.sol\":2980:3012  escrowPropertyHashes[msg.sender] */\n      0x00\n        /* \"contracts/PropertyRegistry.sol\":3001:3011  msg.sender */\n      caller\n        /* \"contracts/PropertyRegistry.sol\":2980:3012  escrowPropertyHashes[msg.sender] */\n      0xffffffffffffffffffffffffffffffffffffffff\n      and\n      0xffffffffffffffffffffffffffffffffffffffff\n      and\n      dup2\n      mstore\n      0x20\n      add\n      swap1\n      dup2\n      mstore\n      0x20\n      add\n      0x00\n      keccak256\n        /* \"contracts/PropertyRegistry.sol\":2980:3027  escrowPropertyHashes[msg.sender] = propertyHash */\n      swap1\n      dup2\n      tag_101\n      swap2\n      swap1\n      tag_102\n      jump\t// in\n    tag_101:\n      pop\n        /* \"contracts/PropertyRegistry.sol\":2624:3034  {... */\n      pop\n        /* \"contracts/PropertyRegistry.sol\":2567:3034  function sendToEscrow(string memory propertyHash) public {... */\n      pop\n      jump\t// out\n        /* \"contracts/PropertyRegistry.sol\":682:780  function totalSupply() public view override returns (uint256) {... */\n    tag_32:\n        /* \"contracts/PropertyRegistry.sol\":735:742  uint256 */\n      0x00\n        /* \"contracts/PropertyRegistry.sol\":761:773  _totalSupply */\n      dup1\n      sload\n        /* \"contracts/PropertyRegistry.sol\":754:773  return _totalSupply */\n      swap1\n      pop\n        /* \"contracts/PropertyRegistry.sol\":682:780  function totalSupply() public view override returns (uint256) {... */\n      swap1\n      jump\t// out\n        /* \"contracts/PropertyRegistry.sol\":1783:1831  mapping(string => uint256) public propertyPrices */\n    tag_37:\n      0x03\n      dup2\n      dup1\n      mload\n      0x20\n      dup2\n      add\n      dup3\n      add\n      dup1\n      mload\n      dup5\n      dup3\n      mstore\n      0x20\n      dup4\n      add\n      0x20\n      dup6\n      add\n      keccak256\n      dup2\n      dup4\n      mstore\n      dup1\n      swap6\n      pop\n      pop\n      pop\n      pop\n      pop\n      pop\n      0x00\n      swap2\n      pop\n      swap1\n      pop\n      sload\n      dup2\n      jump\t// out\n        /* \"contracts/PropertyRegistry.sol\":1949:2003  mapping(address => string) public escrowPropertyHashes */\n    tag_42:\n      mstore(0x20, 0x06)\n      dup1\n      0x00\n      mstore\n      keccak256(0x00, 0x40)\n      0x00\n      swap2\n      pop\n      swap1\n      pop\n      dup1\n      sload\n      tag_104\n      swap1\n      tag_105\n      jump\t// in\n    tag_104:\n      dup1\n      0x1f\n      add\n      0x20\n      dup1\n      swap2\n      div\n      mul\n      0x20\n      add\n      mload(0x40)\n      swap1\n      dup2\n      add\n      0x40\n      mstore\n      dup1\n      swap3\n      swap2\n      swap1\n      dup2\n      dup2\n      mstore\n      0x20\n      add\n      dup3\n      dup1\n      sload\n      tag_106\n      swap1\n      tag_105\n      jump\t// in\n    tag_106:\n      dup1\n      iszero\n      tag_107\n      jumpi\n      dup1\n      0x1f\n      lt\n      tag_108\n      jumpi\n      0x0100\n      dup1\n      dup4\n      sload\n      div\n      mul\n      dup4\n      mstore\n      swap2\n      0x20\n      add\n      swap2\n      jump(tag_107)\n    tag_108:\n      dup3\n      add\n      swap2\n      swap1\n      0x00\n      mstore\n      keccak256(0x00, 0x20)\n      swap1\n    tag_109:\n      dup2\n      sload\n      dup2\n      mstore\n      swap1\n      0x01\n      add\n      swap1\n      0x20\n      add\n      dup1\n      dup4\n      gt\n      tag_109\n      jumpi\n      dup3\n      swap1\n      sub\n      0x1f\n      and\n      dup3\n      add\n      swap2\n    tag_107:\n      pop\n      pop\n      pop\n      pop\n      pop\n      dup2\n      jump\t// out\n        /* \"contracts/PropertyRegistry.sol\":554:589  uint8 public constant decimals = 18 */\n    tag_45:\n        /* \"contracts/PropertyRegistry.sol\":587:589  18 */\n      0x12\n        /* \"contracts/PropertyRegistry.sol\":554:589  uint8 public constant decimals = 18 */\n      dup2\n      jump\t// out\n        /* \"contracts/PropertyRegistry.sol\":1236:1413  function mint(address to, uint256 amount) public override {... */\n    tag_51:\n        /* \"contracts/PropertyRegistry.sol\":1320:1326  amount */\n      dup1\n        /* \"contracts/PropertyRegistry.sol\":1304:1316  _totalSupply */\n      0x00\n      dup1\n        /* \"contracts/PropertyRegistry.sol\":1304:1326  _totalSupply += amount */\n      dup3\n      dup3\n      sload\n      tag_111\n      swap2\n      swap1\n      tag_112\n      jump\t// in\n    tag_111:\n      swap3\n      pop\n      pop\n      dup2\n      swap1\n      sstore\n      pop\n        /* \"contracts/PropertyRegistry.sol\":1353:1359  amount */\n      dup1\n        /* \"contracts/PropertyRegistry.sol\":1336:1345  _balances */\n      0x01\n        /* \"contracts/PropertyRegistry.sol\":1336:1349  _balances[to] */\n      0x00\n        /* \"contracts/PropertyRegistry.sol\":1346:1348  to */\n      dup5\n        /* \"contracts/PropertyRegistry.sol\":1336:1349  _balances[to] */\n      0xffffffffffffffffffffffffffffffffffffffff\n      and\n      0xffffffffffffffffffffffffffffffffffffffff\n      and\n      dup2\n      mstore\n      0x20\n      add\n      swap1\n      dup2\n      mstore\n      0x20\n      add\n      0x00\n      keccak256\n      0x00\n        /* \"contracts/PropertyRegistry.sol\":1336:1359  _balances[to] += amount */\n      dup3\n      dup3\n      sload\n      tag_113\n      swap2\n      swap1\n      tag_112\n      jump\t// in\n    tag_113:\n      swap3\n      pop\n      pop\n      dup2\n      swap1\n      sstore\n      pop\n        /* \"contracts/PropertyRegistry.sol\":1395:1397  to */\n      dup2\n        /* \"contracts/PropertyRegistry.sol\":1374:1406  Transfer(address(0), to, amount) */\n      0xffffffffffffffffffffffffffffffffffffffff\n      and\n        /* \"contracts/PropertyRegistry.sol\":1391:1392  0 */\n      0x00\n        /* \"contracts/PropertyRegistry.sol\":1374:1406  Transfer(address(0), to, amount) */\n      0xffffffffffffffffffffffffffffffffffffffff\n      and\n      0xddf252ad1be2c89b69c2b068fc378daa952ba7f163c4a11628f55a4df523b3ef\n        /* \"contracts/PropertyRegistry.sol\":1399:1405  amount */\n      dup4\n        /* \"contracts/PropertyRegistry.sol\":1374:1406  Transfer(address(0), to, amount) */\n      mload(0x40)\n      tag_114\n      swap2\n      swap1\n      tag_34\n      jump\t// in\n    tag_114:\n      mload(0x40)\n      dup1\n      swap2\n      sub\n      swap1\n      log3\n        /* \"contracts/PropertyRegistry.sol\":1236:1413  function mint(address to, uint256 amount) public override {... */\n      pop\n      pop\n      jump\t// out\n        /* \"contracts/PropertyRegistry.sol\":786:903  function balanceOf(address account) public view override returns (uint256) {... */\n    tag_54:\n        /* \"contracts/PropertyRegistry.sol\":852:859  uint256 */\n      0x00\n        /* \"contracts/PropertyRegistry.sol\":878:887  _balances */\n      0x01\n        /* \"contracts/PropertyRegistry.sol\":878:896  _balances[account] */\n      0x00\n        /* \"contracts/PropertyRegistry.sol\":888:895  account */\n      dup4\n        /* \"contracts/PropertyRegistry.sol\":878:896  _balances[account] */\n      0xffffffffffffffffffffffffffffffffffffffff\n      and\n      0xffffffffffffffffffffffffffffffffffffffff\n      and\n      dup2\n      mstore\n      0x20\n      add\n      swap1\n      dup2\n      mstore\n      0x20\n      add\n      0x00\n      keccak256\n      sload\n        /* \"contracts/PropertyRegistry.sol\":871:896  return _balances[account] */\n      swap1\n      pop\n        /* \"contracts/PropertyRegistry.sol\":786:903  function balanceOf(address account) public view override returns (uint256) {... */\n      swap2\n      swap1\n      pop\n      jump\t// out\n        /* \"contracts/PropertyRegistry.sol\":3040:3824  function releaseEscrow() public {... */\n    tag_57:\n        /* \"contracts/PropertyRegistry.sol\":3119:3120  0 */\n      0x00\n        /* \"contracts/PropertyRegistry.sol\":3090:3104  escrowDeposits */\n      0x04\n        /* \"contracts/PropertyRegistry.sol\":3090:3116  escrowDeposits[msg.sender] */\n      0x00\n        /* \"contracts/PropertyRegistry.sol\":3105:3115  msg.sender */\n      caller\n        /* \"contracts/PropertyRegistry.sol\":3090:3116  escrowDeposits[msg.sender] */\n      0xffffffffffffffffffffffffffffffffffffffff\n      and\n      0xffffffffffffffffffffffffffffffffffffffff\n      and\n      dup2\n      mstore\n      0x20\n      add\n      swap1\n      dup2\n      mstore\n      0x20\n      add\n      0x00\n      keccak256\n      sload\n        /* \"contracts/PropertyRegistry.sol\":3090:3120  escrowDeposits[msg.sender] > 0 */\n      gt\n        /* \"contracts/PropertyRegistry.sol\":3082:3148  require(escrowDeposits[msg.sender] > 0, \"No escrow deposit found\") */\n      tag_117\n      jumpi\n      mload(0x40)\n      0x08c379a000000000000000000000000000000000000000000000000000000000\n      dup2\n      mstore\n      0x04\n      add\n      tag_118\n      swap1\n      tag_119\n      jump\t// in\n    tag_118:\n      mload(0x40)\n      dup1\n      swap2\n      sub\n      swap1\n      revert\n    tag_117:\n        /* \"contracts/PropertyRegistry.sol\":3216:3225  1 minutes */\n      0x3c\n        /* \"contracts/PropertyRegistry.sol\":3185:3201  escrowTimestamps */\n      0x05\n        /* \"contracts/PropertyRegistry.sol\":3185:3213  escrowTimestamps[msg.sender] */\n      0x00\n        /* \"contracts/PropertyRegistry.sol\":3202:3212  msg.sender */\n      caller\n        /* \"contracts/PropertyRegistry.sol\":3185:3213  escrowTimestamps[msg.sender] */\n      0xffffffffffffffffffffffffffffffffffffffff\n      and\n      0xffffffffffffffffffffffffffffffffffffffff\n      and\n      dup2\n      mstore\n      0x20\n      add\n      swap1\n      dup2\n      mstore\n      0x20\n      add\n      0x00\n      keccak256\n      sload\n        /* \"contracts/PropertyRegistry.sol\":3185:3225  escrowTimestamps[msg.sender] + 1 minutes */\n      tag_120\n      swap2\n      swap1\n      tag_112\n      jump\t// in\n    tag_120:\n        /* \"contracts/PropertyRegistry.sol\":3166:3181  block.timestamp */\n      timestamp\n        /* \"contracts/PropertyRegistry.sol\":3166:3225  block.timestamp >= escrowTimestamps[msg.sender] + 1 minutes */\n      lt\n      iszero\n        /* \"contracts/PropertyRegistry.sol\":3158:3259  require(block.timestamp >= escrowTimestamps[msg.sender] + 1 minutes, \"Escrow period not yet elapsed\") */\n      tag_121\n      jumpi\n      mload(0x40)\n      0x08c379a000000000000000000000000000000000000000000000000000000000\n      dup2\n      mstore\n      0x04\n      add\n      tag_122\n      swap1\n      tag_123\n      jump\t// in\n    tag_122:\n      mload(0x40)\n      dup1\n      swap2\n      sub\n      swap1\n      revert\n    tag_121:\n        /* \"contracts/PropertyRegistry.sol\":3270:3291  address originalOwner */\n      0x00\n        /* \"contracts/PropertyRegistry.sol\":3294:3308  propertyOwners */\n      0x02\n        /* \"contracts/PropertyRegistry.sol\":3309:3329  escrowPropertyHashes */\n      0x06\n        /* \"contracts/PropertyRegistry.sol\":3309:3341  escrowPropertyHashes[msg.sender] */\n      0x00\n        /* \"contracts/PropertyRegistry.sol\":3330:3340  msg.sender */\n      caller\n        /* \"contracts/PropertyRegistry.sol\":3309:3341  escrowPropertyHashes[msg.sender] */\n      0xffffffffffffffffffffffffffffffffffffffff\n      and\n      0xffffffffffffffffffffffffffffffffffffffff\n      and\n      dup2\n      mstore\n      0x20\n      add\n      swap1\n      dup2\n      mstore\n      0x20\n      add\n      0x00\n      keccak256\n        /* \"contracts/PropertyRegistry.sol\":3294:3342  propertyOwners[escrowPropertyHashes[msg.sender]] */\n      mload(0x40)\n      tag_124\n      swap2\n      swap1\n      tag_125\n      jump\t// in\n    tag_124:\n      swap1\n      dup2\n      mstore\n      0x20\n      add\n      mload(0x40)\n      dup1\n      swap2\n      sub\n      swap1\n      keccak256\n      0x00\n      swap1\n      sload\n      swap1\n      0x0100\n      exp\n      swap1\n      div\n      0xffffffffffffffffffffffffffffffffffffffff\n      and\n        /* \"contracts/PropertyRegistry.sol\":3270:3342  address originalOwner = propertyOwners[escrowPropertyHashes[msg.sender]] */\n      swap1\n      pop\n        /* \"contracts/PropertyRegistry.sol\":3352:3373  uint256 depositAmount */\n      0x00\n        /* \"contracts/PropertyRegistry.sol\":3376:3390  escrowDeposits */\n      0x04\n        /* \"contracts/PropertyRegistry.sol\":3376:3402  escrowDeposits[msg.sender] */\n      0x00\n        /* \"contracts/PropertyRegistry.sol\":3391:3401  msg.sender */\n      caller\n        /* \"contracts/PropertyRegistry.sol\":3376:3402  escrowDeposits[msg.sender] */\n      0xffffffffffffffffffffffffffffffffffffffff\n      and\n      0xffffffffffffffffffffffffffffffffffffffff\n      and\n      dup2\n      mstore\n      0x20\n      add\n      swap1\n      dup2\n      mstore\n      0x20\n      add\n      0x00\n      keccak256\n      sload\n        /* \"contracts/PropertyRegistry.sol\":3352:3402  uint256 depositAmount = escrowDeposits[msg.sender] */\n      swap1\n      pop\n        /* \"contracts/PropertyRegistry.sol\":3503:3513  msg.sender */\n      caller\n        /* \"contracts/PropertyRegistry.sol\":3452:3466  propertyOwners */\n      0x02\n        /* \"contracts/PropertyRegistry.sol\":3467:3487  escrowPropertyHashes */\n      0x06\n        /* \"contracts/PropertyRegistry.sol\":3467:3499  escrowPropertyHashes[msg.sender] */\n      0x00\n        /* \"contracts/PropertyRegistry.sol\":3488:3498  msg.sender */\n      caller\n        /* \"contracts/PropertyRegistry.sol\":3467:3499  escrowPropertyHashes[msg.sender] */\n      0xffffffffffffffffffffffffffffffffffffffff\n      and\n      0xffffffffffffffffffffffffffffffffffffffff\n      and\n      dup2\n      mstore\n      0x20\n      add\n      swap1\n      dup2\n      mstore\n      0x20\n      add\n      0x00\n      keccak256\n        /* \"contracts/PropertyRegistry.sol\":3452:3500  propertyOwners[escrowPropertyHashes[msg.sender]] */\n      mload(0x40)\n      tag_126\n      swap2\n      swap1\n      tag_125\n      jump\t// in\n    tag_126:\n      swap1\n      dup2\n      mstore\n      0x20\n      add\n      mload(0x40)\n      dup1\n      swap2\n      sub\n      swap1\n      keccak256\n      0x00\n        /* \"contracts/PropertyRegistry.sol\":3452:3513  propertyOwners[escrowPropertyHashes[msg.sender]] = msg.sender */\n      0x0100\n      exp\n      dup2\n      sload\n      dup2\n      0xffffffffffffffffffffffffffffffffffffffff\n      mul\n      not\n      and\n      swap1\n      dup4\n      0xffffffffffffffffffffffffffffffffffffffff\n      and\n      mul\n      or\n      swap1\n      sstore\n      pop\n        /* \"contracts/PropertyRegistry.sol\":3585:3586  0 */\n      0x00\n        /* \"contracts/PropertyRegistry.sol\":3556:3570  escrowDeposits */\n      0x04\n        /* \"contracts/PropertyRegistry.sol\":3556:3582  escrowDeposits[msg.sender] */\n      0x00\n        /* \"contracts/PropertyRegistry.sol\":3571:3581  msg.sender */\n      caller\n        /* \"contracts/PropertyRegistry.sol\":3556:3582  escrowDeposits[msg.sender] */\n      0xffffffffffffffffffffffffffffffffffffffff\n      and\n      0xffffffffffffffffffffffffffffffffffffffff\n      and\n      dup2\n      mstore\n      0x20\n      add\n      swap1\n      dup2\n      mstore\n      0x20\n      add\n      0x00\n      keccak256\n        /* \"contracts/PropertyRegistry.sol\":3556:3586  escrowDeposits[msg.sender] = 0 */\n      dup2\n      swap1\n      sstore\n      pop\n        /* \"contracts/PropertyRegistry.sol\":3627:3628  0 */\n      0x00\n        /* \"contracts/PropertyRegistry.sol\":3596:3612  escrowTimestamps */\n      0x05\n        /* \"contracts/PropertyRegistry.sol\":3596:3624  escrowTimestamps[msg.sender] */\n      0x00\n        /* \"contracts/PropertyRegistry.sol\":3613:3623  msg.sender */\n      caller\n        /* \"contracts/PropertyRegistry.sol\":3596:3624  escrowTimestamps[msg.sender] */\n      0xffffffffffffffffffffffffffffffffffffffff\n      and\n      0xffffffffffffffffffffffffffffffffffffffff\n      and\n      dup2\n      mstore\n      0x20\n      add\n      swap1\n      dup2\n      mstore\n      0x20\n      add\n      0x00\n      keccak256\n        /* \"contracts/PropertyRegistry.sol\":3596:3628  escrowTimestamps[msg.sender] = 0 */\n      dup2\n      swap1\n      sstore\n      pop\n        /* \"contracts/PropertyRegistry.sol\":3638:3675  escrowPropertyHashes[msg.sender] = \"\" */\n      mload(0x40)\n      dup1\n      0x20\n      add\n      0x40\n      mstore\n      dup1\n      0x00\n      dup2\n      mstore\n      pop\n        /* \"contracts/PropertyRegistry.sol\":3638:3658  escrowPropertyHashes */\n      0x06\n        /* \"contracts/PropertyRegistry.sol\":3638:3670  escrowPropertyHashes[msg.sender] */\n      0x00\n        /* \"contracts/PropertyRegistry.sol\":3659:3669  msg.sender */\n      caller\n        /* \"contracts/PropertyRegistry.sol\":3638:3670  escrowPropertyHashes[msg.sender] */\n      0xffffffffffffffffffffffffffffffffffffffff\n      and\n      0xffffffffffffffffffffffffffffffffffffffff\n      and\n      dup2\n      mstore\n      0x20\n      add\n      swap1\n      dup2\n      mstore\n      0x20\n      add\n      0x00\n      keccak256\n        /* \"contracts/PropertyRegistry.sol\":3638:3675  escrowPropertyHashes[msg.sender] = \"\" */\n      swap1\n      dup2\n      tag_127\n      swap2\n      swap1\n      tag_102\n      jump\t// in\n    tag_127:\n      pop\n        /* \"contracts/PropertyRegistry.sol\":3756:3817  internalTransfer(address(this), originalOwner, depositAmount) */\n      tag_128\n        /* \"contracts/PropertyRegistry.sol\":3781:3785  this */\n      address\n        /* \"contracts/PropertyRegistry.sol\":3788:3801  originalOwner */\n      dup4\n        /* \"contracts/PropertyRegistry.sol\":3803:3816  depositAmount */\n      dup4\n        /* \"contracts/PropertyRegistry.sol\":3756:3772  internalTransfer */\n      tag_100\n        /* \"contracts/PropertyRegistry.sol\":3756:3817  internalTransfer(address(this), originalOwner, depositAmount) */\n      jump\t// in\n    tag_128:\n        /* \"contracts/PropertyRegistry.sol\":3072:3824  {... */\n      pop\n      pop\n        /* \"contracts/PropertyRegistry.sol\":3040:3824  function releaseEscrow() public {... */\n      jump\t// out\n        /* \"contracts/PropertyRegistry.sol\":1729:1777  mapping(string => address) public propertyOwners */\n    tag_60:\n      0x02\n      dup2\n      dup1\n      mload\n      0x20\n      dup2\n      add\n      dup3\n      add\n      dup1\n      mload\n      dup5\n      dup3\n      mstore\n      0x20\n      dup4\n      add\n      0x20\n      dup6\n      add\n      keccak256\n      dup2\n      dup4\n      mstore\n      dup1\n      swap6\n      pop\n      pop\n      pop\n      pop\n      pop\n      pop\n      0x00\n      swap2\n      pop\n      sload\n      swap1\n      0x0100\n      exp\n      swap1\n      div\n      0xffffffffffffffffffffffffffffffffffffffff\n      and\n      dup2\n      jump\t// out\n        /* \"contracts/PropertyRegistry.sol\":510:548  string public constant symbol = \"NYUD\" */\n    tag_64:\n      mload(0x40)\n      dup1\n      0x40\n      add\n      0x40\n      mstore\n      dup1\n      0x04\n      dup2\n      mstore\n      0x20\n      add\n      0x4e59554400000000000000000000000000000000000000000000000000000000\n      dup2\n      mstore\n      pop\n      dup2\n      jump\t// out\n        /* \"contracts/PropertyRegistry.sol\":1892:1943  mapping(address => uint256) public escrowTimestamps */\n    tag_68:\n      mstore(0x20, 0x05)\n      dup1\n      0x00\n      mstore\n      keccak256(0x00, 0x40)\n      0x00\n      swap2\n      pop\n      swap1\n      pop\n      sload\n      dup2\n      jump\t// out\n        /* \"contracts/PropertyRegistry.sol\":1837:1886  mapping(address => uint256) public escrowDeposits */\n    tag_72:\n      mstore(0x20, 0x04)\n      dup1\n      0x00\n      mstore\n      keccak256(0x00, 0x40)\n      0x00\n      swap2\n      pop\n      swap1\n      pop\n      sload\n      dup2\n      jump\t// out\n        /* \"contracts/PropertyRegistry.sol\":909:1230  function transfer(address recipient, uint256 amount) public override returns (bool) {... */\n    tag_76:\n        /* \"contracts/PropertyRegistry.sol\":987:991  bool */\n      0x00\n        /* \"contracts/PropertyRegistry.sol\":1036:1042  amount */\n      dup2\n        /* \"contracts/PropertyRegistry.sol\":1011:1020  _balances */\n      0x01\n        /* \"contracts/PropertyRegistry.sol\":1011:1032  _balances[msg.sender] */\n      0x00\n        /* \"contracts/PropertyRegistry.sol\":1021:1031  msg.sender */\n      caller\n        /* \"contracts/PropertyRegistry.sol\":1011:1032  _balances[msg.sender] */\n      0xffffffffffffffffffffffffffffffffffffffff\n      and\n      0xffffffffffffffffffffffffffffffffffffffff\n      and\n      dup2\n      mstore\n      0x20\n      add\n      swap1\n      dup2\n      mstore\n      0x20\n      add\n      0x00\n      keccak256\n      sload\n        /* \"contracts/PropertyRegistry.sol\":1011:1042  _balances[msg.sender] >= amount */\n      lt\n      iszero\n        /* \"contracts/PropertyRegistry.sol\":1003:1067  require(_balances[msg.sender] >= amount, \"Insufficient balance\") */\n      tag_130\n      jumpi\n      mload(0x40)\n      0x08c379a000000000000000000000000000000000000000000000000000000000\n      dup2\n      mstore\n      0x04\n      add\n      tag_131\n      swap1\n      tag_132\n      jump\t// in\n    tag_131:\n      mload(0x40)\n      dup1\n      swap2\n      sub\n      swap1\n      revert\n    tag_130:\n        /* \"contracts/PropertyRegistry.sol\":1102:1108  amount */\n      dup2\n        /* \"contracts/PropertyRegistry.sol\":1077:1086  _balances */\n      0x01\n        /* \"contracts/PropertyRegistry.sol\":1077:1098  _balances[msg.sender] */\n      0x00\n        /* \"contracts/PropertyRegistry.sol\":1087:1097  msg.sender */\n      caller\n        /* \"contracts/PropertyRegistry.sol\":1077:1098  _balances[msg.sender] */\n      0xffffffffffffffffffffffffffffffffffffffff\n      and\n      0xffffffffffffffffffffffffffffffffffffffff\n      and\n      dup2\n      mstore\n      0x20\n      add\n      swap1\n      dup2\n      mstore\n      0x20\n      add\n      0x00\n      keccak256\n      0x00\n        /* \"contracts/PropertyRegistry.sol\":1077:1108  _balances[msg.sender] -= amount */\n      dup3\n      dup3\n      sload\n      tag_133\n      swap2\n      swap1\n      tag_134\n      jump\t// in\n    tag_133:\n      swap3\n      pop\n      pop\n      dup2\n      swap1\n      sstore\n      pop\n        /* \"contracts/PropertyRegistry.sol\":1142:1148  amount */\n      dup2\n        /* \"contracts/PropertyRegistry.sol\":1118:1127  _balances */\n      0x01\n        /* \"contracts/PropertyRegistry.sol\":1118:1138  _balances[recipient] */\n      0x00\n        /* \"contracts/PropertyRegistry.sol\":1128:1137  recipient */\n      dup6\n        /* \"contracts/PropertyRegistry.sol\":1118:1138  _balances[recipient] */\n      0xffffffffffffffffffffffffffffffffffffffff\n      and\n      0xffffffffffffffffffffffffffffffffffffffff\n      and\n      dup2\n      mstore\n      0x20\n      add\n      swap1\n      dup2\n      mstore\n      0x20\n      add\n      0x00\n      keccak256\n      0x00\n        /* \"contracts/PropertyRegistry.sol\":1118:1148  _balances[recipient] += amount */\n      dup3\n      dup3\n      sload\n      tag_135\n      swap2\n      swap1\n      tag_112\n      jump\t// in\n    tag_135:\n      swap3\n      pop\n      pop\n      dup2\n      swap1\n      sstore\n      pop\n        /* \"contracts/PropertyRegistry.sol\":1184:1193  recipient */\n      dup3\n        /* \"contracts/PropertyRegistry.sol\":1163:1202  Transfer(msg.sender, recipient, amount) */\n      0xffffffffffffffffffffffffffffffffffffffff\n      and\n        /* \"contracts/PropertyRegistry.sol\":1172:1182  msg.sender */\n      caller\n        /* \"contracts/PropertyRegistry.sol\":1163:1202  Transfer(msg.sender, recipient, amount) */\n      0xffffffffffffffffffffffffffffffffffffffff\n      and\n      0xddf252ad1be2c89b69c2b068fc378daa952ba7f163c4a11628f55a4df523b3ef\n        /* \"contracts/PropertyRegistry.sol\":1195:1201  amount */\n      dup5\n        /* \"contracts/PropertyRegistry.sol\":1163:1202  Transfer(msg.sender, recipient, amount) */\n      mload(0x40)\n      tag_136\n      swap2\n      swap1\n      tag_34\n      jump\t// in\n    tag_136:\n      mload(0x40)\n      dup1\n      swap2\n      sub\n      swap1\n      log3\n        /* \"contracts/PropertyRegistry.sol\":1219:1223  true */\n      0x01\n        /* \"contracts/PropertyRegistry.sol\":1212:1223  return true */\n      swap1\n      pop\n        /* \"contracts/PropertyRegistry.sol\":909:1230  function transfer(address recipient, uint256 amount) public override returns (bool) {... */\n      swap3\n      swap2\n      pop\n      pop\n      jump\t// out\n        /* \"contracts/PropertyRegistry.sol\":2285:2424  function verifyPropertyOwner(string memory propertyHash) public view returns (address) {... */\n    tag_81:\n        /* \"contracts/PropertyRegistry.sol\":2363:2370  address */\n      0x00\n        /* \"contracts/PropertyRegistry.sol\":2389:2403  propertyOwners */\n      0x02\n        /* \"contracts/PropertyRegistry.sol\":2404:2416  propertyHash */\n      dup3\n        /* \"contracts/PropertyRegistry.sol\":2389:2417  propertyOwners[propertyHash] */\n      mload(0x40)\n      tag_138\n      swap2\n      swap1\n      tag_91\n      jump\t// in\n    tag_138:\n      swap1\n      dup2\n      mstore\n      0x20\n      add\n      mload(0x40)\n      dup1\n      swap2\n      sub\n      swap1\n      keccak256\n      0x00\n      swap1\n      sload\n      swap1\n      0x0100\n      exp\n      swap1\n      div\n      0xffffffffffffffffffffffffffffffffffffffff\n      and\n        /* \"contracts/PropertyRegistry.sol\":2382:2417  return propertyOwners[propertyHash] */\n      swap1\n      pop\n        /* \"contracts/PropertyRegistry.sol\":2285:2424  function verifyPropertyOwner(string memory propertyHash) public view returns (address) {... */\n      swap2\n      swap1\n      pop\n      jump\t// out\n        /* \"contracts/PropertyRegistry.sol\":2010:2279  function storePropertyHash(string memory propertyHash, uint256 price) public {... */\n    tag_86:\n        /* \"contracts/PropertyRegistry.sol\":2145:2146  0 */\n      0x00\n        /* \"contracts/PropertyRegistry.sol\":2105:2147  propertyOwners[propertyHash] == address(0) */\n      0xffffffffffffffffffffffffffffffffffffffff\n      and\n        /* \"contracts/PropertyRegistry.sol\":2105:2119  propertyOwners */\n      0x02\n        /* \"contracts/PropertyRegistry.sol\":2120:2132  propertyHash */\n      dup4\n        /* \"contracts/PropertyRegistry.sol\":2105:2133  propertyOwners[propertyHash] */\n      mload(0x40)\n      tag_140\n      swap2\n      swap1\n      tag_91\n      jump\t// in\n    tag_140:\n      swap1\n      dup2\n      mstore\n      0x20\n      add\n      mload(0x40)\n      dup1\n      swap2\n      sub\n      swap1\n      keccak256\n      0x00\n      swap1\n      sload\n      swap1\n      0x0100\n      exp\n      swap1\n      div\n      0xffffffffffffffffffffffffffffffffffffffff\n      and\n        /* \"contracts/PropertyRegistry.sol\":2105:2147  propertyOwners[propertyHash] == address(0) */\n      0xffffffffffffffffffffffffffffffffffffffff\n      and\n      eq\n        /* \"contracts/PropertyRegistry.sol\":2097:2175  require(propertyOwners[propertyHash] == address(0), \"Hash already registered\") */\n      tag_141\n      jumpi\n      mload(0x40)\n      0x08c379a000000000000000000000000000000000000000000000000000000000\n      dup2\n      mstore\n      0x04\n      add\n      tag_142\n      swap1\n      tag_143\n      jump\t// in\n    tag_142:\n      mload(0x40)\n      dup1\n      swap2\n      sub\n      swap1\n      revert\n    tag_141:\n        /* \"contracts/PropertyRegistry.sol\":2216:2226  msg.sender */\n      caller\n        /* \"contracts/PropertyRegistry.sol\":2185:2199  propertyOwners */\n      0x02\n        /* \"contracts/PropertyRegistry.sol\":2200:2212  propertyHash */\n      dup4\n        /* \"contracts/PropertyRegistry.sol\":2185:2213  propertyOwners[propertyHash] */\n      mload(0x40)\n      tag_144\n      swap2\n      swap1\n      tag_91\n      jump\t// in\n    tag_144:\n      swap1\n      dup2\n      mstore\n      0x20\n      add\n      mload(0x40)\n      dup1\n      swap2\n      sub\n      swap1\n      keccak256\n      0x00\n        /* \"contracts/PropertyRegistry.sol\":2185:2226  propertyOwners[propertyHash] = msg.sender */\n      0x0100\n      exp\n      dup2\n      sload\n      dup2\n      0xffffffffffffffffffffffffffffffffffffffff\n      mul\n      not\n      and\n      swap1\n      dup4\n      0xffffffffffffffffffffffffffffffffffffffff\n      and\n      mul\n      or\n      swap1\n      sstore\n      pop\n        /* \"contracts/PropertyRegistry.sol\":2267:2272  price */\n      dup1\n        /* \"contracts/PropertyRegistry.sol\":2236:2250  propertyPrices */\n      0x03\n        /* \"contracts/PropertyRegistry.sol\":2251:2263  propertyHash */\n      dup4\n        /* \"contracts/PropertyRegistry.sol\":2236:2264  propertyPrices[propertyHash] */\n      mload(0x40)\n      tag_145\n      swap2\n      swap1\n      tag_91\n      jump\t// in\n    tag_145:\n      swap1\n      dup2\n      mstore\n      0x20\n      add\n      mload(0x40)\n      dup1\n      swap2\n      sub\n      swap1\n      keccak256\n        /* \"contracts/PropertyRegistry.sol\":2236:2272  propertyPrices[propertyHash] = price */\n      dup2\n      swap1\n      sstore\n      pop\n        /* \"contracts/PropertyRegistry.sol\":2010:2279  function storePropertyHash(string memory propertyHash, uint256 price) public {... */\n      pop\n      pop\n      jump\t// out\n        /* \"contracts/PropertyRegistry.sol\":2430:2561  function mintTokens() public {... */\n    tag_88:\n        /* \"contracts/PropertyRegistry.sol\":2469:2524  mint(msg.sender, 1_000_000 * (10 ** uint256(decimals))) */\n      tag_147\n        /* \"contracts/PropertyRegistry.sol\":2474:2484  msg.sender */\n      caller\n        /* \"contracts/PropertyRegistry.sol\":587:589  18 */\n      0x12\n        /* \"contracts/PropertyRegistry.sol\":2505:2522  uint256(decimals) */\n      0xff\n      and\n        /* \"contracts/PropertyRegistry.sol\":2499:2501  10 */\n      0x0a\n        /* \"contracts/PropertyRegistry.sol\":2499:2522  10 ** uint256(decimals) */\n      tag_148\n      swap2\n      swap1\n      tag_149\n      jump\t// in\n    tag_148:\n        /* \"contracts/PropertyRegistry.sol\":2486:2495  1_000_000 */\n      0x0f4240\n        /* \"contracts/PropertyRegistry.sol\":2486:2523  1_000_000 * (10 ** uint256(decimals)) */\n      tag_150\n      swap2\n      swap1\n      tag_151\n      jump\t// in\n    tag_150:\n        /* \"contracts/PropertyRegistry.sol\":2469:2473  mint */\n      tag_51\n        /* \"contracts/PropertyRegistry.sol\":2469:2524  mint(msg.sender, 1_000_000 * (10 ** uint256(decimals))) */\n      jump\t// in\n    tag_147:\n        /* \"contracts/PropertyRegistry.sol\":2430:2561  function mintTokens() public {... */\n      jump\t// out\n        /* \"contracts/PropertyRegistry.sol\":1419:1680  function internalTransfer(address from, address to, uint256 amount) internal {... */\n    tag_100:\n        /* \"contracts/PropertyRegistry.sol\":1533:1539  amount */\n      dup1\n        /* \"contracts/PropertyRegistry.sol\":1514:1523  _balances */\n      0x01\n        /* \"contracts/PropertyRegistry.sol\":1514:1529  _balances[from] */\n      0x00\n        /* \"contracts/PropertyRegistry.sol\":1524:1528  from */\n      dup6\n        /* \"contracts/PropertyRegistry.sol\":1514:1529  _balances[from] */\n      0xffffffffffffffffffffffffffffffffffffffff\n      and\n      0xffffffffffffffffffffffffffffffffffffffff\n      and\n      dup2\n      mstore\n      0x20\n      add\n      swap1\n      dup2\n      mstore\n      0x20\n      add\n      0x00\n      keccak256\n      sload\n        /* \"contracts/PropertyRegistry.sol\":1514:1539  _balances[from] >= amount */\n      lt\n      iszero\n        /* \"contracts/PropertyRegistry.sol\":1506:1564  require(_balances[from] >= amount, \"Insufficient balance\") */\n      tag_153\n      jumpi\n      mload(0x40)\n      0x08c379a000000000000000000000000000000000000000000000000000000000\n      dup2\n      mstore\n      0x04\n      add\n      tag_154\n      swap1\n      tag_132\n      jump\t// in\n    tag_154:\n      mload(0x40)\n      dup1\n      swap2\n      sub\n      swap1\n      revert\n    tag_153:\n        /* \"contracts/PropertyRegistry.sol\":1593:1599  amount */\n      dup1\n        /* \"contracts/PropertyRegistry.sol\":1574:1583  _balances */\n      0x01\n        /* \"contracts/PropertyRegistry.sol\":1574:1589  _balances[from] */\n      0x00\n        /* \"contracts/PropertyRegistry.sol\":1584:1588  from */\n      dup6\n        /* \"contracts/PropertyRegistry.sol\":1574:1589  _balances[from] */\n      0xffffffffffffffffffffffffffffffffffffffff\n      and\n      0xffffffffffffffffffffffffffffffffffffffff\n      and\n      dup2\n      mstore\n      0x20\n      add\n      swap1\n      dup2\n      mstore\n      0x20\n      add\n      0x00\n      keccak256\n      0x00\n        /* \"contracts/PropertyRegistry.sol\":1574:1599  _balances[from] -= amount */\n      dup3\n      dup3\n      sload\n      tag_155\n      swap2\n      swap1\n      tag_134\n      jump\t// in\n    tag_155:\n      swap3\n      pop\n      pop\n      dup2\n      swap1\n      sstore\n      pop\n        /* \"contracts/PropertyRegistry.sol\":1626:1632  amount */\n      dup1\n        /* \"contracts/PropertyRegistry.sol\":1609:1618  _balances */\n      0x01\n        /* \"contracts/PropertyRegistry.sol\":1609:1622  _balances[to] */\n      0x00\n        /* \"contracts/PropertyRegistry.sol\":1619:1621  to */\n      dup5\n        /* \"contracts/PropertyRegistry.sol\":1609:1622  _balances[to] */\n      0xffffffffffffffffffffffffffffffffffffffff\n      and\n      0xffffffffffffffffffffffffffffffffffffffff\n      and\n      dup2\n      mstore\n      0x20\n      add\n      swap1\n      dup2\n      mstore\n      0x20\n      add\n      0x00\n      keccak256\n      0x00\n        /* \"contracts/PropertyRegistry.sol\":1609:1632  _balances[to] += amount */\n      dup3\n      dup3\n      sload\n      tag_156\n      swap2\n      swap1\n      tag_112\n      jump\t// in\n    tag_156:\n      swap3\n      pop\n      pop\n      dup2\n      swap1\n      sstore\n      pop\n        /* \"contracts/PropertyRegistry.sol\":1662:1664  to */\n      dup2\n        /* \"contracts/PropertyRegistry.sol\":1647:1673  Transfer(from, to, amount) */\n      0xffffffffffffffffffffffffffffffffffffffff\n      and\n        /* \"contracts/PropertyRegistry.sol\":1656:1660  from */\n      dup4\n        /* \"contracts/PropertyRegistry.sol\":1647:1673  Transfer(from, to, amount) */\n      0xffffffffffffffffffffffffffffffffffffffff\n      and\n      0xddf252ad1be2c89b69c2b068fc378daa952ba7f163c4a11628f55a4df523b3ef\n        /* \"contracts/PropertyRegistry.sol\":1666:1672  amount */\n      dup4\n        /* \"contracts/PropertyRegistry.sol\":1647:1673  Transfer(from, to, amount) */\n      mload(0x40)\n      tag_157\n      swap2\n      swap1\n      tag_34\n      jump\t// in\n    tag_157:\n      mload(0x40)\n      dup1\n      swap2\n      sub\n      swap1\n      log3\n        /* \"contracts/PropertyRegistry.sol\":1419:1680  function internalTransfer(address from, address to, uint256 amount) internal {... */\n      pop\n      pop\n      pop\n      jump\t// out\n        /* \"#utility.yul\":7:106   */\n    tag_158:\n        /* \"#utility.yul\":59:65   */\n      0x00\n        /* \"#utility.yul\":93:98   */\n      dup2\n        /* \"#utility.yul\":87:99   */\n      mload\n        /* \"#utility.yul\":77:99   */\n      swap1\n      pop\n        /* \"#utility.yul\":7:106   */\n      swap2\n      swap1\n      pop\n      jump\t// out\n        /* \"#utility.yul\":112:281   */\n    tag_159:\n        /* \"#utility.yul\":196:207   */\n      0x00\n        /* \"#utility.yul\":230:236   */\n      dup3\n        /* \"#utility.yul\":225:228   */\n      dup3\n        /* \"#utility.yul\":218:237   */\n      mstore\n        /* \"#utility.yul\":270:274   */\n      0x20\n        /* \"#utility.yul\":265:268   */\n      dup3\n        /* \"#utility.yul\":261:275   */\n      add\n        /* \"#utility.yul\":246:275   */\n      swap1\n      pop\n        /* \"#utility.yul\":112:281   */\n      swap3\n      swap2\n      pop\n      pop\n      jump\t// out\n        /* \"#utility.yul\":287:533   */\n    tag_160:\n        /* \"#utility.yul\":368:369   */\n      0x00\n        /* \"#utility.yul\":378:491   */\n    tag_227:\n        /* \"#utility.yul\":392:398   */\n      dup4\n        /* \"#utility.yul\":389:390   */\n      dup2\n        /* \"#utility.yul\":386:399   */\n      lt\n        /* \"#utility.yul\":378:491   */\n      iszero\n      tag_229\n      jumpi\n        /* \"#utility.yul\":477:478   */\n      dup1\n        /* \"#utility.yul\":472:475   */\n      dup3\n        /* \"#utility.yul\":468:479   */\n      add\n        /* \"#utility.yul\":462:480   */\n      mload\n        /* \"#utility.yul\":458:459   */\n      dup2\n        /* \"#utility.yul\":453:456   */\n      dup5\n        /* \"#utility.yul\":449:460   */\n      add\n        /* \"#utility.yul\":442:481   */\n      mstore\n        /* \"#utility.yul\":414:416   */\n      0x20\n        /* \"#utility.yul\":411:412   */\n      dup2\n        /* \"#utility.yul\":407:417   */\n      add\n        /* \"#utility.yul\":402:417   */\n      swap1\n      pop\n        /* \"#utility.yul\":378:491   */\n      jump(tag_227)\n    tag_229:\n        /* \"#utility.yul\":525:526   */\n      0x00\n        /* \"#utility.yul\":516:522   */\n      dup5\n        /* \"#utility.yul\":511:514   */\n      dup5\n        /* \"#utility.yul\":507:523   */\n      add\n        /* \"#utility.yul\":500:527   */\n      mstore\n        /* \"#utility.yul\":349:533   */\n      pop\n        /* \"#utility.yul\":287:533   */\n      pop\n      pop\n      pop\n      jump\t// out\n        /* \"#utility.yul\":539:641   */\n    tag_161:\n        /* \"#utility.yul\":580:586   */\n      0x00\n        /* \"#utility.yul\":631:633   */\n      0x1f\n        /* \"#utility.yul\":627:634   */\n      not\n        /* \"#utility.yul\":622:624   */\n      0x1f\n        /* \"#utility.yul\":615:620   */\n      dup4\n        /* \"#utility.yul\":611:625   */\n      add\n        /* \"#utility.yul\":607:635   */\n      and\n        /* \"#utility.yul\":597:635   */\n      swap1\n      pop\n        /* \"#utility.yul\":539:641   */\n      swap2\n      swap1\n      pop\n      jump\t// out\n        /* \"#utility.yul\":647:1024   */\n    tag_162:\n        /* \"#utility.yul\":735:738   */\n      0x00\n        /* \"#utility.yul\":763:802   */\n      tag_232\n        /* \"#utility.yul\":796:801   */\n      dup3\n        /* \"#utility.yul\":763:802   */\n      tag_158\n      jump\t// in\n    tag_232:\n        /* \"#utility.yul\":818:889   */\n      tag_233\n        /* \"#utility.yul\":882:888   */\n      dup2\n        /* \"#utility.yul\":877:880   */\n      dup6\n        /* \"#utility.yul\":818:889   */\n      tag_159\n      jump\t// in\n    tag_233:\n        /* \"#utility.yul\":811:889   */\n      swap4\n      pop\n        /* \"#utility.yul\":898:963   */\n      tag_234\n        /* \"#utility.yul\":956:962   */\n      dup2\n        /* \"#utility.yul\":951:954   */\n      dup6\n        /* \"#utility.yul\":944:948   */\n      0x20\n        /* \"#utility.yul\":937:942   */\n      dup7\n        /* \"#utility.yul\":933:949   */\n      add\n        /* \"#utility.yul\":898:963   */\n      tag_160\n      jump\t// in\n    tag_234:\n        /* \"#utility.yul\":988:1017   */\n      tag_235\n        /* \"#utility.yul\":1010:1016   */\n      dup2\n        /* \"#utility.yul\":988:1017   */\n      tag_161\n      jump\t// in\n    tag_235:\n        /* \"#utility.yul\":983:986   */\n      dup5\n        /* \"#utility.yul\":979:1018   */\n      add\n        /* \"#utility.yul\":972:1018   */\n      swap2\n      pop\n        /* \"#utility.yul\":739:1024   */\n      pop\n        /* \"#utility.yul\":647:1024   */\n      swap3\n      swap2\n      pop\n      pop\n      jump\t// out\n        /* \"#utility.yul\":1030:1343   */\n    tag_26:\n        /* \"#utility.yul\":1143:1147   */\n      0x00\n        /* \"#utility.yul\":1181:1183   */\n      0x20\n        /* \"#utility.yul\":1170:1179   */\n      dup3\n        /* \"#utility.yul\":1166:1184   */\n      add\n        /* \"#utility.yul\":1158:1184   */\n      swap1\n      pop\n        /* \"#utility.yul\":1230:1239   */\n      dup2\n        /* \"#utility.yul\":1224:1228   */\n      dup2\n        /* \"#utility.yul\":1220:1240   */\n      sub\n        /* \"#utility.yul\":1216:1217   */\n      0x00\n        /* \"#utility.yul\":1205:1214   */\n      dup4\n        /* \"#utility.yul\":1201:1218   */\n      add\n        /* \"#utility.yul\":1194:1241   */\n      mstore\n        /* \"#utility.yul\":1258:1336   */\n      tag_237\n        /* \"#utility.yul\":1331:1335   */\n      dup2\n        /* \"#utility.yul\":1322:1328   */\n      dup5\n        /* \"#utility.yul\":1258:1336   */\n      tag_162\n      jump\t// in\n    tag_237:\n        /* \"#utility.yul\":1250:1336   */\n      swap1\n      pop\n        /* \"#utility.yul\":1030:1343   */\n      swap3\n      swap2\n      pop\n      pop\n      jump\t// out\n        /* \"#utility.yul\":1349:1424   */\n    tag_163:\n        /* \"#utility.yul\":1382:1388   */\n      0x00\n        /* \"#utility.yul\":1415:1417   */\n      0x40\n        /* \"#utility.yul\":1409:1418   */\n      mload\n        /* \"#utility.yul\":1399:1418   */\n      swap1\n      pop\n        /* \"#utility.yul\":1349:1424   */\n      swap1\n      jump\t// out\n        /* \"#utility.yul\":1430:1547   */\n    tag_164:\n        /* \"#utility.yul\":1539:1540   */\n      0x00\n        /* \"#utility.yul\":1536:1537   */\n      dup1\n        /* \"#utility.yul\":1529:1541   */\n      revert\n        /* \"#utility.yul\":1553:1670   */\n    tag_165:\n        /* \"#utility.yul\":1662:1663   */\n      0x00\n        /* \"#utility.yul\":1659:1660   */\n      dup1\n        /* \"#utility.yul\":1652:1664   */\n      revert\n        /* \"#utility.yul\":1676:1793   */\n    tag_166:\n        /* \"#utility.yul\":1785:1786   */\n      0x00\n        /* \"#utility.yul\":1782:1783   */\n      dup1\n        /* \"#utility.yul\":1775:1787   */\n      revert\n        /* \"#utility.yul\":1799:1916   */\n    tag_167:\n        /* \"#utility.yul\":1908:1909   */\n      0x00\n        /* \"#utility.yul\":1905:1906   */\n      dup1\n        /* \"#utility.yul\":1898:1910   */\n      revert\n        /* \"#utility.yul\":1922:2102   */\n    tag_168:\n        /* \"#utility.yul\":1970:2047   */\n      0x4e487b7100000000000000000000000000000000000000000000000000000000\n        /* \"#utility.yul\":1967:1968   */\n      0x00\n        /* \"#utility.yul\":1960:2048   */\n      mstore\n        /* \"#utility.yul\":2067:2071   */\n      0x41\n        /* \"#utility.yul\":2064:2065   */\n      0x04\n        /* \"#utility.yul\":2057:2072   */\n      mstore\n        /* \"#utility.yul\":2091:2095   */\n      0x24\n        /* \"#utility.yul\":2088:2089   */\n      0x00\n        /* \"#utility.yul\":2081:2096   */\n      revert\n        /* \"#utility.yul\":2108:2389   */\n    tag_169:\n        /* \"#utility.yul\":2191:2218   */\n      tag_245\n        /* \"#utility.yul\":2213:2217   */\n      dup3\n        /* \"#utility.yul\":2191:2218   */\n      tag_161\n      jump\t// in\n    tag_245:\n        /* \"#utility.yul\":2183:2189   */\n      dup2\n        /* \"#utility.yul\":2179:2219   */\n      add\n        /* \"#utility.yul\":2321:2327   */\n      dup2\n        /* \"#utility.yul\":2309:2319   */\n      dup2\n        /* \"#utility.yul\":2306:2328   */\n      lt\n        /* \"#utility.yul\":2285:2303   */\n      0xffffffffffffffff\n        /* \"#utility.yul\":2273:2283   */\n      dup3\n        /* \"#utility.yul\":2270:2304   */\n      gt\n        /* \"#utility.yul\":2267:2329   */\n      or\n        /* \"#utility.yul\":2264:2352   */\n      iszero\n      tag_246\n      jumpi\n        /* \"#utility.yul\":2332:2350   */\n      tag_247\n      tag_168\n      jump\t// in\n    tag_247:\n        /* \"#utility.yul\":2264:2352   */\n    tag_246:\n        /* \"#utility.yul\":2372:2382   */\n      dup1\n        /* \"#utility.yul\":2368:2370   */\n      0x40\n        /* \"#utility.yul\":2361:2383   */\n      mstore\n        /* \"#utility.yul\":2151:2389   */\n      pop\n        /* \"#utility.yul\":2108:2389   */\n      pop\n      pop\n      jump\t// out\n        /* \"#utility.yul\":2395:2524   */\n    tag_170:\n        /* \"#utility.yul\":2429:2435   */\n      0x00\n        /* \"#utility.yul\":2456:2476   */\n      tag_249\n      tag_163\n      jump\t// in\n    tag_249:\n        /* \"#utility.yul\":2446:2476   */\n      swap1\n      pop\n        /* \"#utility.yul\":2485:2518   */\n      tag_250\n        /* \"#utility.yul\":2513:2517   */\n      dup3\n        /* \"#utility.yul\":2505:2511   */\n      dup3\n        /* \"#utility.yul\":2485:2518   */\n      tag_169\n      jump\t// in\n    tag_250:\n        /* \"#utility.yul\":2395:2524   */\n      swap2\n      swap1\n      pop\n      jump\t// out\n        /* \"#utility.yul\":2530:2838   */\n    tag_171:\n        /* \"#utility.yul\":2592:2596   */\n      0x00\n        /* \"#utility.yul\":2682:2700   */\n      0xffffffffffffffff\n        /* \"#utility.yul\":2674:2680   */\n      dup3\n        /* \"#utility.yul\":2671:2701   */\n      gt\n        /* \"#utility.yul\":2668:2724   */\n      iszero\n      tag_252\n      jumpi\n        /* \"#utility.yul\":2704:2722   */\n      tag_253\n      tag_168\n      jump\t// in\n    tag_253:\n        /* \"#utility.yul\":2668:2724   */\n    tag_252:\n        /* \"#utility.yul\":2742:2771   */\n      tag_254\n        /* \"#utility.yul\":2764:2770   */\n      dup3\n        /* \"#utility.yul\":2742:2771   */\n      tag_161\n      jump\t// in\n    tag_254:\n        /* \"#utility.yul\":2734:2771   */\n      swap1\n      pop\n        /* \"#utility.yul\":2826:2830   */\n      0x20\n        /* \"#utility.yul\":2820:2824   */\n      dup2\n        /* \"#utility.yul\":2816:2831   */\n      add\n        /* \"#utility.yul\":2808:2831   */\n      swap1\n      pop\n        /* \"#utility.yul\":2530:2838   */\n      swap2\n      swap1\n      pop\n      jump\t// out\n        /* \"#utility.yul\":2844:2990   */\n    tag_172:\n        /* \"#utility.yul\":2941:2947   */\n      dup3\n        /* \"#utility.yul\":2936:2939   */\n      dup2\n        /* \"#utility.yul\":2931:2934   */\n      dup4\n        /* \"#utility.yul\":2918:2948   */\n      calldatacopy\n        /* \"#utility.yul\":2982:2983   */\n      0x00\n        /* \"#utility.yul\":2973:2979   */\n      dup4\n        /* \"#utility.yul\":2968:2971   */\n      dup4\n        /* \"#utility.yul\":2964:2980   */\n      add\n        /* \"#utility.yul\":2957:2984   */\n      mstore\n        /* \"#utility.yul\":2844:2990   */\n      pop\n      pop\n      pop\n      jump\t// out\n        /* \"#utility.yul\":2996:3421   */\n    tag_173:\n        /* \"#utility.yul\":3074:3079   */\n      0x00\n        /* \"#utility.yul\":3099:3165   */\n      tag_257\n        /* \"#utility.yul\":3115:3164   */\n      tag_258\n        /* \"#utility.yul\":3157:3163   */\n      dup5\n        /* \"#utility.yul\":3115:3164   */\n      tag_171\n      jump\t// in\n    tag_258:\n        /* \"#utility.yul\":3099:3165   */\n      tag_170\n      jump\t// in\n    tag_257:\n        /* \"#utility.yul\":3090:3165   */\n      swap1\n      pop\n        /* \"#utility.yul\":3188:3194   */\n      dup3\n        /* \"#utility.yul\":3181:3186   */\n      dup2\n        /* \"#utility.yul\":3174:3195   */\n      mstore\n        /* \"#utility.yul\":3226:3230   */\n      0x20\n        /* \"#utility.yul\":3219:3224   */\n      dup2\n        /* \"#utility.yul\":3215:3231   */\n      add\n        /* \"#utility.yul\":3264:3267   */\n      dup5\n        /* \"#utility.yul\":3255:3261   */\n      dup5\n        /* \"#utility.yul\":3250:3253   */\n      dup5\n        /* \"#utility.yul\":3246:3262   */\n      add\n        /* \"#utility.yul\":3243:3268   */\n      gt\n        /* \"#utility.yul\":3240:3352   */\n      iszero\n      tag_259\n      jumpi\n        /* \"#utility.yul\":3271:3350   */\n      tag_260\n      tag_167\n      jump\t// in\n    tag_260:\n        /* \"#utility.yul\":3240:3352   */\n    tag_259:\n        /* \"#utility.yul\":3361:3415   */\n      tag_261\n        /* \"#utility.yul\":3408:3414   */\n      dup5\n        /* \"#utility.yul\":3403:3406   */\n      dup3\n        /* \"#utility.yul\":3398:3401   */\n      dup6\n        /* \"#utility.yul\":3361:3415   */\n      tag_172\n      jump\t// in\n    tag_261:\n        /* \"#utility.yul\":3080:3421   */\n      pop\n        /* \"#utility.yul\":2996:3421   */\n      swap4\n      swap3\n      pop\n      pop\n      pop\n      jump\t// out\n        /* \"#utility.yul\":3441:3781   */\n    tag_174:\n        /* \"#utility.yul\":3497:3502   */\n      0x00\n        /* \"#utility.yul\":3546:3549   */\n      dup3\n        /* \"#utility.yul\":3539:3543   */\n      0x1f\n        /* \"#utility.yul\":3531:3537   */\n      dup4\n        /* \"#utility.yul\":3527:3544   */\n      add\n        /* \"#utility.yul\":3523:3550   */\n      slt\n        /* \"#utility.yul\":3513:3635   */\n      tag_263\n      jumpi\n        /* \"#utility.yul\":3554:3633   */\n      tag_264\n      tag_166\n      jump\t// in\n    tag_264:\n        /* \"#utility.yul\":3513:3635   */\n    tag_263:\n        /* \"#utility.yul\":3671:3677   */\n      dup2\n        /* \"#utility.yul\":3658:3678   */\n      calldataload\n        /* \"#utility.yul\":3696:3775   */\n      tag_265\n        /* \"#utility.yul\":3771:3774   */\n      dup5\n        /* \"#utility.yul\":3763:3769   */\n      dup3\n        /* \"#utility.yul\":3756:3760   */\n      0x20\n        /* \"#utility.yul\":3748:3754   */\n      dup7\n        /* \"#utility.yul\":3744:3761   */\n      add\n        /* \"#utility.yul\":3696:3775   */\n      tag_173\n      jump\t// in\n    tag_265:\n        /* \"#utility.yul\":3687:3775   */\n      swap2\n      pop\n        /* \"#utility.yul\":3503:3781   */\n      pop\n        /* \"#utility.yul\":3441:3781   */\n      swap3\n      swap2\n      pop\n      pop\n      jump\t// out\n        /* \"#utility.yul\":3787:4296   */\n    tag_29:\n        /* \"#utility.yul\":3856:3862   */\n      0x00\n        /* \"#utility.yul\":3905:3907   */\n      0x20\n        /* \"#utility.yul\":3893:3902   */\n      dup3\n        /* \"#utility.yul\":3884:3891   */\n      dup5\n        /* \"#utility.yul\":3880:3903   */\n      sub\n        /* \"#utility.yul\":3876:3908   */\n      slt\n        /* \"#utility.yul\":3873:3992   */\n      iszero\n      tag_267\n      jumpi\n        /* \"#utility.yul\":3911:3990   */\n      tag_268\n      tag_164\n      jump\t// in\n    tag_268:\n        /* \"#utility.yul\":3873:3992   */\n    tag_267:\n        /* \"#utility.yul\":4059:4060   */\n      0x00\n        /* \"#utility.yul\":4048:4057   */\n      dup3\n        /* \"#utility.yul\":4044:4061   */\n      add\n        /* \"#utility.yul\":4031:4062   */\n      calldataload\n        /* \"#utility.yul\":4089:4107   */\n      0xffffffffffffffff\n        /* \"#utility.yul\":4081:4087   */\n      dup2\n        /* \"#utility.yul\":4078:4108   */\n      gt\n        /* \"#utility.yul\":4075:4192   */\n      iszero\n      tag_269\n      jumpi\n        /* \"#utility.yul\":4111:4190   */\n      tag_270\n      tag_165\n      jump\t// in\n    tag_270:\n        /* \"#utility.yul\":4075:4192   */\n    tag_269:\n        /* \"#utility.yul\":4216:4279   */\n      tag_271\n        /* \"#utility.yul\":4271:4278   */\n      dup5\n        /* \"#utility.yul\":4262:4268   */\n      dup3\n        /* \"#utility.yul\":4251:4260   */\n      dup6\n        /* \"#utility.yul\":4247:4269   */\n      add\n        /* \"#utility.yul\":4216:4279   */\n      tag_174\n      jump\t// in\n    tag_271:\n        /* \"#utility.yul\":4206:4279   */\n      swap2\n      pop\n        /* \"#utility.yul\":4002:4289   */\n      pop\n        /* \"#utility.yul\":3787:4296   */\n      swap3\n      swap2\n      pop\n      pop\n      jump\t// out\n        /* \"#utility.yul\":4302:4379   */\n    tag_175:\n        /* \"#utility.yul\":4339:4346   */\n      0x00\n        /* \"#utility.yul\":4368:4373   */\n      dup2\n        /* \"#utility.yul\":4357:4373   */\n      swap1\n      pop\n        /* \"#utility.yul\":4302:4379   */\n      swap2\n      swap1\n      pop\n      jump\t// out\n        /* \"#utility.yul\":4385:4503   */\n    tag_176:\n        /* \"#utility.yul\":4472:4496   */\n      tag_274\n        /* \"#utility.yul\":4490:4495   */\n      dup2\n        /* \"#utility.yul\":4472:4496   */\n      tag_175\n      jump\t// in\n    tag_274:\n        /* \"#utility.yul\":4467:4470   */\n      dup3\n        /* \"#utility.yul\":4460:4497   */\n      mstore\n        /* \"#utility.yul\":4385:4503   */\n      pop\n      pop\n      jump\t// out\n        /* \"#utility.yul\":4509:4731   */\n    tag_34:\n        /* \"#utility.yul\":4602:4606   */\n      0x00\n        /* \"#utility.yul\":4640:4642   */\n      0x20\n        /* \"#utility.yul\":4629:4638   */\n      dup3\n        /* \"#utility.yul\":4625:4643   */\n      add\n        /* \"#utility.yul\":4617:4643   */\n      swap1\n      pop\n        /* \"#utility.yul\":4653:4724   */\n      tag_276\n        /* \"#utility.yul\":4721:4722   */\n      0x00\n        /* \"#utility.yul\":4710:4719   */\n      dup4\n        /* \"#utility.yul\":4706:4723   */\n      add\n        /* \"#utility.yul\":4697:4703   */\n      dup5\n        /* \"#utility.yul\":4653:4724   */\n      tag_176\n      jump\t// in\n    tag_276:\n        /* \"#utility.yul\":4509:4731   */\n      swap3\n      swap2\n      pop\n      pop\n      jump\t// out\n        /* \"#utility.yul\":4737:4863   */\n    tag_177:\n        /* \"#utility.yul\":4774:4781   */\n      0x00\n        /* \"#utility.yul\":4814:4856   */\n      0xffffffffffffffffffffffffffffffffffffffff\n        /* \"#utility.yul\":4807:4812   */\n      dup3\n        /* \"#utility.yul\":4803:4857   */\n      and\n        /* \"#utility.yul\":4792:4857   */\n      swap1\n      pop\n        /* \"#utility.yul\":4737:4863   */\n      swap2\n      swap1\n      pop\n      jump\t// out\n        /* \"#utility.yul\":4869:4965   */\n    tag_178:\n        /* \"#utility.yul\":4906:4913   */\n      0x00\n        /* \"#utility.yul\":4935:4959   */\n      tag_279\n        /* \"#utility.yul\":4953:4958   */\n      dup3\n        /* \"#utility.yul\":4935:4959   */\n      tag_177\n      jump\t// in\n    tag_279:\n        /* \"#utility.yul\":4924:4959   */\n      swap1\n      pop\n        /* \"#utility.yul\":4869:4965   */\n      swap2\n      swap1\n      pop\n      jump\t// out\n        /* \"#utility.yul\":4971:5093   */\n    tag_179:\n        /* \"#utility.yul\":5044:5068   */\n      tag_281\n        /* \"#utility.yul\":5062:5067   */\n      dup2\n        /* \"#utility.yul\":5044:5068   */\n      tag_178\n      jump\t// in\n    tag_281:\n        /* \"#utility.yul\":5037:5042   */\n      dup2\n        /* \"#utility.yul\":5034:5069   */\n      eq\n        /* \"#utility.yul\":5024:5087   */\n      tag_282\n      jumpi\n        /* \"#utility.yul\":5083:5084   */\n      0x00\n        /* \"#utility.yul\":5080:5081   */\n      dup1\n        /* \"#utility.yul\":5073:5085   */\n      revert\n        /* \"#utility.yul\":5024:5087   */\n    tag_282:\n        /* \"#utility.yul\":4971:5093   */\n      pop\n      jump\t// out\n        /* \"#utility.yul\":5099:5238   */\n    tag_180:\n        /* \"#utility.yul\":5145:5150   */\n      0x00\n        /* \"#utility.yul\":5183:5189   */\n      dup2\n        /* \"#utility.yul\":5170:5190   */\n      calldataload\n        /* \"#utility.yul\":5161:5190   */\n      swap1\n      pop\n        /* \"#utility.yul\":5199:5232   */\n      tag_284\n        /* \"#utility.yul\":5226:5231   */\n      dup2\n        /* \"#utility.yul\":5199:5232   */\n      tag_179\n      jump\t// in\n    tag_284:\n        /* \"#utility.yul\":5099:5238   */\n      swap3\n      swap2\n      pop\n      pop\n      jump\t// out\n        /* \"#utility.yul\":5244:5573   */\n    tag_41:\n        /* \"#utility.yul\":5303:5309   */\n      0x00\n        /* \"#utility.yul\":5352:5354   */\n      0x20\n        /* \"#utility.yul\":5340:5349   */\n      dup3\n        /* \"#utility.yul\":5331:5338   */\n      dup5\n        /* \"#utility.yul\":5327:5350   */\n      sub\n        /* \"#utility.yul\":5323:5355   */\n      slt\n        /* \"#utility.yul\":5320:5439   */\n      iszero\n      tag_286\n      jumpi\n        /* \"#utility.yul\":5358:5437   */\n      tag_287\n      tag_164\n      jump\t// in\n    tag_287:\n        /* \"#utility.yul\":5320:5439   */\n    tag_286:\n        /* \"#utility.yul\":5478:5479   */\n      0x00\n        /* \"#utility.yul\":5503:5556   */\n      tag_288\n        /* \"#utility.yul\":5548:5555   */\n      dup5\n        /* \"#utility.yul\":5539:5545   */\n      dup3\n        /* \"#utility.yul\":5528:5537   */\n      dup6\n        /* \"#utility.yul\":5524:5546   */\n      add\n        /* \"#utility.yul\":5503:5556   */\n      tag_180\n      jump\t// in\n    tag_288:\n        /* \"#utility.yul\":5493:5556   */\n      swap2\n      pop\n        /* \"#utility.yul\":5449:5566   */\n      pop\n        /* \"#utility.yul\":5244:5573   */\n      swap3\n      swap2\n      pop\n      pop\n      jump\t// out\n        /* \"#utility.yul\":5579:5665   */\n    tag_181:\n        /* \"#utility.yul\":5614:5621   */\n      0x00\n        /* \"#utility.yul\":5654:5658   */\n      0xff\n        /* \"#utility.yul\":5647:5652   */\n      dup3\n        /* \"#utility.yul\":5643:5659   */\n      and\n        /* \"#utility.yul\":5632:5659   */\n      swap1\n      pop\n        /* \"#utility.yul\":5579:5665   */\n      swap2\n      swap1\n      pop\n      jump\t// out\n        /* \"#utility.yul\":5671:5783   */\n    tag_182:\n        /* \"#utility.yul\":5754:5776   */\n      tag_291\n        /* \"#utility.yul\":5770:5775   */\n      dup2\n        /* \"#utility.yul\":5754:5776   */\n      tag_181\n      jump\t// in\n    tag_291:\n        /* \"#utility.yul\":5749:5752   */\n      dup3\n        /* \"#utility.yul\":5742:5777   */\n      mstore\n        /* \"#utility.yul\":5671:5783   */\n      pop\n      pop\n      jump\t// out\n        /* \"#utility.yul\":5789:6003   */\n    tag_47:\n        /* \"#utility.yul\":5878:5882   */\n      0x00\n        /* \"#utility.yul\":5916:5918   */\n      0x20\n        /* \"#utility.yul\":5905:5914   */\n      dup3\n        /* \"#utility.yul\":5901:5919   */\n      add\n        /* \"#utility.yul\":5893:5919   */\n      swap1\n      pop\n        /* \"#utility.yul\":5929:5996   */\n      tag_293\n        /* \"#utility.yul\":5993:5994   */\n      0x00\n        /* \"#utility.yul\":5982:5991   */\n      dup4\n        /* \"#utility.yul\":5978:5995   */\n      add\n        /* \"#utility.yul\":5969:5975   */\n      dup5\n        /* \"#utility.yul\":5929:5996   */\n      tag_182\n      jump\t// in\n    tag_293:\n        /* \"#utility.yul\":5789:6003   */\n      swap3\n      swap2\n      pop\n      pop\n      jump\t// out\n        /* \"#utility.yul\":6009:6131   */\n    tag_183:\n        /* \"#utility.yul\":6082:6106   */\n      tag_295\n        /* \"#utility.yul\":6100:6105   */\n      dup2\n        /* \"#utility.yul\":6082:6106   */\n      tag_175\n      jump\t// in\n    tag_295:\n        /* \"#utility.yul\":6075:6080   */\n      dup2\n        /* \"#utility.yul\":6072:6107   */\n      eq\n        /* \"#utility.yul\":6062:6125   */\n      tag_296\n      jumpi\n        /* \"#utility.yul\":6121:6122   */\n      0x00\n        /* \"#utility.yul\":6118:6119   */\n      dup1\n        /* \"#utility.yul\":6111:6123   */\n      revert\n        /* \"#utility.yul\":6062:6125   */\n    tag_296:\n        /* \"#utility.yul\":6009:6131   */\n      pop\n      jump\t// out\n        /* \"#utility.yul\":6137:6276   */\n    tag_184:\n        /* \"#utility.yul\":6183:6188   */\n      0x00\n        /* \"#utility.yul\":6221:6227   */\n      dup2\n        /* \"#utility.yul\":6208:6228   */\n      calldataload\n        /* \"#utility.yul\":6199:6228   */\n      swap1\n      pop\n        /* \"#utility.yul\":6237:6270   */\n      tag_298\n        /* \"#utility.yul\":6264:6269   */\n      dup2\n        /* \"#utility.yul\":6237:6270   */\n      tag_183\n      jump\t// in\n    tag_298:\n        /* \"#utility.yul\":6137:6276   */\n      swap3\n      swap2\n      pop\n      pop\n      jump\t// out\n        /* \"#utility.yul\":6282:6756   */\n    tag_50:\n        /* \"#utility.yul\":6350:6356   */\n      0x00\n        /* \"#utility.yul\":6358:6364   */\n      dup1\n        /* \"#utility.yul\":6407:6409   */\n      0x40\n        /* \"#utility.yul\":6395:6404   */\n      dup4\n        /* \"#utility.yul\":6386:6393   */\n      dup6\n        /* \"#utility.yul\":6382:6405   */\n      sub\n        /* \"#utility.yul\":6378:6410   */\n      slt\n        /* \"#utility.yul\":6375:6494   */\n      iszero\n      tag_300\n      jumpi\n        /* \"#utility.yul\":6413:6492   */\n      tag_301\n      tag_164\n      jump\t// in\n    tag_301:\n        /* \"#utility.yul\":6375:6494   */\n    tag_300:\n        /* \"#utility.yul\":6533:6534   */\n      0x00\n        /* \"#utility.yul\":6558:6611   */\n      tag_302\n        /* \"#utility.yul\":6603:6610   */\n      dup6\n        /* \"#utility.yul\":6594:6600   */\n      dup3\n        /* \"#utility.yul\":6583:6592   */\n      dup7\n        /* \"#utility.yul\":6579:6601   */\n      add\n        /* \"#utility.yul\":6558:6611   */\n      tag_180\n      jump\t// in\n    tag_302:\n        /* \"#utility.yul\":6548:6611   */\n      swap3\n      pop\n        /* \"#utility.yul\":6504:6621   */\n      pop\n        /* \"#utility.yul\":6660:6662   */\n      0x20\n        /* \"#utility.yul\":6686:6739   */\n      tag_303\n        /* \"#utility.yul\":6731:6738   */\n      dup6\n        /* \"#utility.yul\":6722:6728   */\n      dup3\n        /* \"#utility.yul\":6711:6720   */\n      dup7\n        /* \"#utility.yul\":6707:6729   */\n      add\n        /* \"#utility.yul\":6686:6739   */\n      tag_184\n      jump\t// in\n    tag_303:\n        /* \"#utility.yul\":6676:6739   */\n      swap2\n      pop\n        /* \"#utility.yul\":6631:6749   */\n      pop\n        /* \"#utility.yul\":6282:6756   */\n      swap3\n      pop\n      swap3\n      swap1\n      pop\n      jump\t// out\n        /* \"#utility.yul\":6762:6880   */\n    tag_185:\n        /* \"#utility.yul\":6849:6873   */\n      tag_305\n        /* \"#utility.yul\":6867:6872   */\n      dup2\n        /* \"#utility.yul\":6849:6873   */\n      tag_178\n      jump\t// in\n    tag_305:\n        /* \"#utility.yul\":6844:6847   */\n      dup3\n        /* \"#utility.yul\":6837:6874   */\n      mstore\n        /* \"#utility.yul\":6762:6880   */\n      pop\n      pop\n      jump\t// out\n        /* \"#utility.yul\":6886:7108   */\n    tag_62:\n        /* \"#utility.yul\":6979:6983   */\n      0x00\n        /* \"#utility.yul\":7017:7019   */\n      0x20\n        /* \"#utility.yul\":7006:7015   */\n      dup3\n        /* \"#utility.yul\":7002:7020   */\n      add\n        /* \"#utility.yul\":6994:7020   */\n      swap1\n      pop\n        /* \"#utility.yul\":7030:7101   */\n      tag_307\n        /* \"#utility.yul\":7098:7099   */\n      0x00\n        /* \"#utility.yul\":7087:7096   */\n      dup4\n        /* \"#utility.yul\":7083:7100   */\n      add\n        /* \"#utility.yul\":7074:7080   */\n      dup5\n        /* \"#utility.yul\":7030:7101   */\n      tag_185\n      jump\t// in\n    tag_307:\n        /* \"#utility.yul\":6886:7108   */\n      swap3\n      swap2\n      pop\n      pop\n      jump\t// out\n        /* \"#utility.yul\":7114:7204   */\n    tag_186:\n        /* \"#utility.yul\":7148:7155   */\n      0x00\n        /* \"#utility.yul\":7191:7196   */\n      dup2\n        /* \"#utility.yul\":7184:7197   */\n      iszero\n        /* \"#utility.yul\":7177:7198   */\n      iszero\n        /* \"#utility.yul\":7166:7198   */\n      swap1\n      pop\n        /* \"#utility.yul\":7114:7204   */\n      swap2\n      swap1\n      pop\n      jump\t// out\n        /* \"#utility.yul\":7210:7319   */\n    tag_187:\n        /* \"#utility.yul\":7291:7312   */\n      tag_310\n        /* \"#utility.yul\":7306:7311   */\n      dup2\n        /* \"#utility.yul\":7291:7312   */\n      tag_186\n      jump\t// in\n    tag_310:\n        /* \"#utility.yul\":7286:7289   */\n      dup3\n        /* \"#utility.yul\":7279:7313   */\n      mstore\n        /* \"#utility.yul\":7210:7319   */\n      pop\n      pop\n      jump\t// out\n        /* \"#utility.yul\":7325:7535   */\n    tag_78:\n        /* \"#utility.yul\":7412:7416   */\n      0x00\n        /* \"#utility.yul\":7450:7452   */\n      0x20\n        /* \"#utility.yul\":7439:7448   */\n      dup3\n        /* \"#utility.yul\":7435:7453   */\n      add\n        /* \"#utility.yul\":7427:7453   */\n      swap1\n      pop\n        /* \"#utility.yul\":7463:7528   */\n      tag_312\n        /* \"#utility.yul\":7525:7526   */\n      0x00\n        /* \"#utility.yul\":7514:7523   */\n      dup4\n        /* \"#utility.yul\":7510:7527   */\n      add\n        /* \"#utility.yul\":7501:7507   */\n      dup5\n        /* \"#utility.yul\":7463:7528   */\n      tag_187\n      jump\t// in\n    tag_312:\n        /* \"#utility.yul\":7325:7535   */\n      swap3\n      swap2\n      pop\n      pop\n      jump\t// out\n        /* \"#utility.yul\":7541:8195   */\n    tag_85:\n        /* \"#utility.yul\":7619:7625   */\n      0x00\n        /* \"#utility.yul\":7627:7633   */\n      dup1\n        /* \"#utility.yul\":7676:7678   */\n      0x40\n        /* \"#utility.yul\":7664:7673   */\n      dup4\n        /* \"#utility.yul\":7655:7662   */\n      dup6\n        /* \"#utility.yul\":7651:7674   */\n      sub\n        /* \"#utility.yul\":7647:7679   */\n      slt\n        /* \"#utility.yul\":7644:7763   */\n      iszero\n      tag_314\n      jumpi\n        /* \"#utility.yul\":7682:7761   */\n      tag_315\n      tag_164\n      jump\t// in\n    tag_315:\n        /* \"#utility.yul\":7644:7763   */\n    tag_314:\n        /* \"#utility.yul\":7830:7831   */\n      0x00\n        /* \"#utility.yul\":7819:7828   */\n      dup4\n        /* \"#utility.yul\":7815:7832   */\n      add\n        /* \"#utility.yul\":7802:7833   */\n      calldataload\n        /* \"#utility.yul\":7860:7878   */\n      0xffffffffffffffff\n        /* \"#utility.yul\":7852:7858   */\n      dup2\n        /* \"#utility.yul\":7849:7879   */\n      gt\n        /* \"#utility.yul\":7846:7963   */\n      iszero\n      tag_316\n      jumpi\n        /* \"#utility.yul\":7882:7961   */\n      tag_317\n      tag_165\n      jump\t// in\n    tag_317:\n        /* \"#utility.yul\":7846:7963   */\n    tag_316:\n        /* \"#utility.yul\":7987:8050   */\n      tag_318\n        /* \"#utility.yul\":8042:8049   */\n      dup6\n        /* \"#utility.yul\":8033:8039   */\n      dup3\n        /* \"#utility.yul\":8022:8031   */\n      dup7\n        /* \"#utility.yul\":8018:8040   */\n      add\n        /* \"#utility.yul\":7987:8050   */\n      tag_174\n      jump\t// in\n    tag_318:\n        /* \"#utility.yul\":7977:8050   */\n      swap3\n      pop\n        /* \"#utility.yul\":7773:8060   */\n      pop\n        /* \"#utility.yul\":8099:8101   */\n      0x20\n        /* \"#utility.yul\":8125:8178   */\n      tag_319\n        /* \"#utility.yul\":8170:8177   */\n      dup6\n        /* \"#utility.yul\":8161:8167   */\n      dup3\n        /* \"#utility.yul\":8150:8159   */\n      dup7\n        /* \"#utility.yul\":8146:8168   */\n      add\n        /* \"#utility.yul\":8125:8178   */\n      tag_184\n      jump\t// in\n    tag_319:\n        /* \"#utility.yul\":8115:8178   */\n      swap2\n      pop\n        /* \"#utility.yul\":8070:8188   */\n      pop\n        /* \"#utility.yul\":7541:8195   */\n      swap3\n      pop\n      swap3\n      swap1\n      pop\n      jump\t// out\n        /* \"#utility.yul\":8201:8349   */\n    tag_188:\n        /* \"#utility.yul\":8303:8314   */\n      0x00\n        /* \"#utility.yul\":8340:8343   */\n      dup2\n        /* \"#utility.yul\":8325:8343   */\n      swap1\n      pop\n        /* \"#utility.yul\":8201:8349   */\n      swap3\n      swap2\n      pop\n      pop\n      jump\t// out\n        /* \"#utility.yul\":8355:8745   */\n    tag_189:\n        /* \"#utility.yul\":8461:8464   */\n      0x00\n        /* \"#utility.yul\":8489:8528   */\n      tag_322\n        /* \"#utility.yul\":8522:8527   */\n      dup3\n        /* \"#utility.yul\":8489:8528   */\n      tag_158\n      jump\t// in\n    tag_322:\n        /* \"#utility.yul\":8544:8633   */\n      tag_323\n        /* \"#utility.yul\":8626:8632   */\n      dup2\n        /* \"#utility.yul\":8621:8624   */\n      dup6\n        /* \"#utility.yul\":8544:8633   */\n      tag_188\n      jump\t// in\n    tag_323:\n        /* \"#utility.yul\":8537:8633   */\n      swap4\n      pop\n        /* \"#utility.yul\":8642:8707   */\n      tag_324\n        /* \"#utility.yul\":8700:8706   */\n      dup2\n        /* \"#utility.yul\":8695:8698   */\n      dup6\n        /* \"#utility.yul\":8688:8692   */\n      0x20\n        /* \"#utility.yul\":8681:8686   */\n      dup7\n        /* \"#utility.yul\":8677:8693   */\n      add\n        /* \"#utility.yul\":8642:8707   */\n      tag_160\n      jump\t// in\n    tag_324:\n        /* \"#utility.yul\":8732:8738   */\n      dup1\n        /* \"#utility.yul\":8727:8730   */\n      dup5\n        /* \"#utility.yul\":8723:8739   */\n      add\n        /* \"#utility.yul\":8716:8739   */\n      swap2\n      pop\n        /* \"#utility.yul\":8465:8745   */\n      pop\n        /* \"#utility.yul\":8355:8745   */\n      swap3\n      swap2\n      pop\n      pop\n      jump\t// out\n        /* \"#utility.yul\":8751:9026   */\n    tag_91:\n        /* \"#utility.yul\":8883:8886   */\n      0x00\n        /* \"#utility.yul\":8905:9000   */\n      tag_326\n        /* \"#utility.yul\":8996:8999   */\n      dup3\n        /* \"#utility.yul\":8987:8993   */\n      dup5\n        /* \"#utility.yul\":8905:9000   */\n      tag_189\n      jump\t// in\n    tag_326:\n        /* \"#utility.yul\":8898:9000   */\n      swap2\n      pop\n        /* \"#utility.yul\":9017:9020   */\n      dup2\n        /* \"#utility.yul\":9010:9020   */\n      swap1\n      pop\n        /* \"#utility.yul\":8751:9026   */\n      swap3\n      swap2\n      pop\n      pop\n      jump\t// out\n        /* \"#utility.yul\":9032:9203   */\n    tag_190:\n        /* \"#utility.yul\":9172:9195   */\n      0x50726f7065727479206e6f7420666f722073616c650000000000000000000000\n        /* \"#utility.yul\":9168:9169   */\n      0x00\n        /* \"#utility.yul\":9160:9166   */\n      dup3\n        /* \"#utility.yul\":9156:9170   */\n      add\n        /* \"#utility.yul\":9149:9196   */\n      mstore\n        /* \"#utility.yul\":9032:9203   */\n      pop\n      jump\t// out\n        /* \"#utility.yul\":9209:9575   */\n    tag_191:\n        /* \"#utility.yul\":9351:9354   */\n      0x00\n        /* \"#utility.yul\":9372:9439   */\n      tag_329\n        /* \"#utility.yul\":9436:9438   */\n      0x15\n        /* \"#utility.yul\":9431:9434   */\n      dup4\n        /* \"#utility.yul\":9372:9439   */\n      tag_159\n      jump\t// in\n    tag_329:\n        /* \"#utility.yul\":9365:9439   */\n      swap2\n      pop\n        /* \"#utility.yul\":9448:9541   */\n      tag_330\n        /* \"#utility.yul\":9537:9540   */\n      dup3\n        /* \"#utility.yul\":9448:9541   */\n      tag_190\n      jump\t// in\n    tag_330:\n        /* \"#utility.yul\":9566:9568   */\n      0x20\n        /* \"#utility.yul\":9561:9564   */\n      dup3\n        /* \"#utility.yul\":9557:9569   */\n      add\n        /* \"#utility.yul\":9550:9569   */\n      swap1\n      pop\n        /* \"#utility.yul\":9209:9575   */\n      swap2\n      swap1\n      pop\n      jump\t// out\n        /* \"#utility.yul\":9581:10000   */\n    tag_94:\n        /* \"#utility.yul\":9747:9751   */\n      0x00\n        /* \"#utility.yul\":9785:9787   */\n      0x20\n        /* \"#utility.yul\":9774:9783   */\n      dup3\n        /* \"#utility.yul\":9770:9788   */\n      add\n        /* \"#utility.yul\":9762:9788   */\n      swap1\n      pop\n        /* \"#utility.yul\":9834:9843   */\n      dup2\n        /* \"#utility.yul\":9828:9832   */\n      dup2\n        /* \"#utility.yul\":9824:9844   */\n      sub\n        /* \"#utility.yul\":9820:9821   */\n      0x00\n        /* \"#utility.yul\":9809:9818   */\n      dup4\n        /* \"#utility.yul\":9805:9822   */\n      add\n        /* \"#utility.yul\":9798:9845   */\n      mstore\n        /* \"#utility.yul\":9862:9993   */\n      tag_332\n        /* \"#utility.yul\":9988:9992   */\n      dup2\n        /* \"#utility.yul\":9862:9993   */\n      tag_191\n      jump\t// in\n    tag_332:\n        /* \"#utility.yul\":9854:9993   */\n      swap1\n      pop\n        /* \"#utility.yul\":9581:10000   */\n      swap2\n      swap1\n      pop\n      jump\t// out\n        /* \"#utility.yul\":10006:10182   */\n    tag_192:\n        /* \"#utility.yul\":10146:10174   */\n      0x496e73756666696369656e7420746f6b656e2062616c616e6365000000000000\n        /* \"#utility.yul\":10142:10143   */\n      0x00\n        /* \"#utility.yul\":10134:10140   */\n      dup3\n        /* \"#utility.yul\":10130:10144   */\n      add\n        /* \"#utility.yul\":10123:10175   */\n      mstore\n        /* \"#utility.yul\":10006:10182   */\n      pop\n      jump\t// out\n        /* \"#utility.yul\":10188:10554   */\n    tag_193:\n        /* \"#utility.yul\":10330:10333   */\n      0x00\n        /* \"#utility.yul\":10351:10418   */\n      tag_335\n        /* \"#utility.yul\":10415:10417   */\n      0x1a\n        /* \"#utility.yul\":10410:10413   */\n      dup4\n        /* \"#utility.yul\":10351:10418   */\n      tag_159\n      jump\t// in\n    tag_335:\n        /* \"#utility.yul\":10344:10418   */\n      swap2\n      pop\n        /* \"#utility.yul\":10427:10520   */\n      tag_336\n        /* \"#utility.yul\":10516:10519   */\n      dup3\n        /* \"#utility.yul\":10427:10520   */\n      tag_192\n      jump\t// in\n    tag_336:\n        /* \"#utility.yul\":10545:10547   */\n      0x20\n        /* \"#utility.yul\":10540:10543   */\n      dup3\n        /* \"#utility.yul\":10536:10548   */\n      add\n        /* \"#utility.yul\":10529:10548   */\n      swap1\n      pop\n        /* \"#utility.yul\":10188:10554   */\n      swap2\n      swap1\n      pop\n      jump\t// out\n        /* \"#utility.yul\":10560:10979   */\n    tag_98:\n        /* \"#utility.yul\":10726:10730   */\n      0x00\n        /* \"#utility.yul\":10764:10766   */\n      0x20\n        /* \"#utility.yul\":10753:10762   */\n      dup3\n        /* \"#utility.yul\":10749:10767   */\n      add\n        /* \"#utility.yul\":10741:10767   */\n      swap1\n      pop\n        /* \"#utility.yul\":10813:10822   */\n      dup2\n        /* \"#utility.yul\":10807:10811   */\n      dup2\n        /* \"#utility.yul\":10803:10823   */\n      sub\n        /* \"#utility.yul\":10799:10800   */\n      0x00\n        /* \"#utility.yul\":10788:10797   */\n      dup4\n        /* \"#utility.yul\":10784:10801   */\n      add\n        /* \"#utility.yul\":10777:10824   */\n      mstore\n        /* \"#utility.yul\":10841:10972   */\n      tag_338\n        /* \"#utility.yul\":10967:10971   */\n      dup2\n        /* \"#utility.yul\":10841:10972   */\n      tag_193\n      jump\t// in\n    tag_338:\n        /* \"#utility.yul\":10833:10972   */\n      swap1\n      pop\n        /* \"#utility.yul\":10560:10979   */\n      swap2\n      swap1\n      pop\n      jump\t// out\n        /* \"#utility.yul\":10985:11165   */\n    tag_194:\n        /* \"#utility.yul\":11033:11110   */\n      0x4e487b7100000000000000000000000000000000000000000000000000000000\n        /* \"#utility.yul\":11030:11031   */\n      0x00\n        /* \"#utility.yul\":11023:11111   */\n      mstore\n        /* \"#utility.yul\":11130:11134   */\n      0x22\n        /* \"#utility.yul\":11127:11128   */\n      0x04\n        /* \"#utility.yul\":11120:11135   */\n      mstore\n        /* \"#utility.yul\":11154:11158   */\n      0x24\n        /* \"#utility.yul\":11151:11152   */\n      0x00\n        /* \"#utility.yul\":11144:11159   */\n      revert\n        /* \"#utility.yul\":11171:11491   */\n    tag_105:\n        /* \"#utility.yul\":11215:11221   */\n      0x00\n        /* \"#utility.yul\":11252:11253   */\n      0x02\n        /* \"#utility.yul\":11246:11250   */\n      dup3\n        /* \"#utility.yul\":11242:11254   */\n      div\n        /* \"#utility.yul\":11232:11254   */\n      swap1\n      pop\n        /* \"#utility.yul\":11299:11300   */\n      0x01\n        /* \"#utility.yul\":11293:11297   */\n      dup3\n        /* \"#utility.yul\":11289:11301   */\n      and\n        /* \"#utility.yul\":11320:11338   */\n      dup1\n        /* \"#utility.yul\":11310:11391   */\n      tag_341\n      jumpi\n        /* \"#utility.yul\":11376:11380   */\n      0x7f\n        /* \"#utility.yul\":11368:11374   */\n      dup3\n        /* \"#utility.yul\":11364:11381   */\n      and\n        /* \"#utility.yul\":11354:11381   */\n      swap2\n      pop\n        /* \"#utility.yul\":11310:11391   */\n    tag_341:\n        /* \"#utility.yul\":11438:11440   */\n      0x20\n        /* \"#utility.yul\":11430:11436   */\n      dup3\n        /* \"#utility.yul\":11427:11441   */\n      lt\n        /* \"#utility.yul\":11407:11425   */\n      dup2\n        /* \"#utility.yul\":11404:11442   */\n      sub\n        /* \"#utility.yul\":11401:11485   */\n      tag_342\n      jumpi\n        /* \"#utility.yul\":11457:11475   */\n      tag_343\n      tag_194\n      jump\t// in\n    tag_343:\n        /* \"#utility.yul\":11401:11485   */\n    tag_342:\n        /* \"#utility.yul\":11222:11491   */\n      pop\n        /* \"#utility.yul\":11171:11491   */\n      swap2\n      swap1\n      pop\n      jump\t// out\n        /* \"#utility.yul\":11497:11638   */\n    tag_195:\n        /* \"#utility.yul\":11546:11550   */\n      0x00\n        /* \"#utility.yul\":11569:11572   */\n      dup2\n        /* \"#utility.yul\":11561:11572   */\n      swap1\n      pop\n        /* \"#utility.yul\":11592:11595   */\n      dup2\n        /* \"#utility.yul\":11589:11590   */\n      0x00\n        /* \"#utility.yul\":11582:11596   */\n      mstore\n        /* \"#utility.yul\":11626:11630   */\n      0x20\n        /* \"#utility.yul\":11623:11624   */\n      0x00\n        /* \"#utility.yul\":11613:11631   */\n      keccak256\n        /* \"#utility.yul\":11605:11631   */\n      swap1\n      pop\n        /* \"#utility.yul\":11497:11638   */\n      swap2\n      swap1\n      pop\n      jump\t// out\n        /* \"#utility.yul\":11644:11737   */\n    tag_196:\n        /* \"#utility.yul\":11681:11687   */\n      0x00\n        /* \"#utility.yul\":11728:11730   */\n      0x20\n        /* \"#utility.yul\":11723:11725   */\n      0x1f\n        /* \"#utility.yul\":11716:11721   */\n      dup4\n        /* \"#utility.yul\":11712:11726   */\n      add\n        /* \"#utility.yul\":11708:11731   */\n      div\n        /* \"#utility.yul\":11698:11731   */\n      swap1\n      pop\n        /* \"#utility.yul\":11644:11737   */\n      swap2\n      swap1\n      pop\n      jump\t// out\n        /* \"#utility.yul\":11743:11850   */\n    tag_197:\n        /* \"#utility.yul\":11787:11795   */\n      0x00\n        /* \"#utility.yul\":11837:11842   */\n      dup3\n        /* \"#utility.yul\":11831:11835   */\n      dup3\n        /* \"#utility.yul\":11827:11843   */\n      shl\n        /* \"#utility.yul\":11806:11843   */\n      swap1\n      pop\n        /* \"#utility.yul\":11743:11850   */\n      swap3\n      swap2\n      pop\n      pop\n      jump\t// out\n        /* \"#utility.yul\":11856:12249   */\n    tag_198:\n        /* \"#utility.yul\":11925:11931   */\n      0x00\n        /* \"#utility.yul\":11975:11976   */\n      0x08\n        /* \"#utility.yul\":11963:11973   */\n      dup4\n        /* \"#utility.yul\":11959:11977   */\n      mul\n        /* \"#utility.yul\":11998:12095   */\n      tag_348\n        /* \"#utility.yul\":12028:12094   */\n      0xffffffffffffffffffffffffffffffffffffffffffffffffffffffffffffffff\n        /* \"#utility.yul\":12017:12026   */\n      dup3\n        /* \"#utility.yul\":11998:12095   */\n      tag_197\n      jump\t// in\n    tag_348:\n        /* \"#utility.yul\":12116:12155   */\n      tag_349\n        /* \"#utility.yul\":12146:12154   */\n      dup7\n        /* \"#utility.yul\":12135:12144   */\n      dup4\n        /* \"#utility.yul\":12116:12155   */\n      tag_197\n      jump\t// in\n    tag_349:\n        /* \"#utility.yul\":12104:12155   */\n      swap6\n      pop\n        /* \"#utility.yul\":12188:12192   */\n      dup1\n        /* \"#utility.yul\":12184:12193   */\n      not\n        /* \"#utility.yul\":12177:12182   */\n      dup5\n        /* \"#utility.yul\":12173:12194   */\n      and\n        /* \"#utility.yul\":12164:12194   */\n      swap4\n      pop\n        /* \"#utility.yul\":12237:12241   */\n      dup1\n        /* \"#utility.yul\":12227:12235   */\n      dup7\n        /* \"#utility.yul\":12223:12242   */\n      and\n        /* \"#utility.yul\":12216:12221   */\n      dup5\n        /* \"#utility.yul\":12213:12243   */\n      or\n        /* \"#utility.yul\":12203:12243   */\n      swap3\n      pop\n        /* \"#utility.yul\":11932:12249   */\n      pop\n      pop\n        /* \"#utility.yul\":11856:12249   */\n      swap4\n      swap3\n      pop\n      pop\n      pop\n      jump\t// out\n        /* \"#utility.yul\":12255:12315   */\n    tag_199:\n        /* \"#utility.yul\":12283:12286   */\n      0x00\n        /* \"#utility.yul\":12304:12309   */\n      dup2\n        /* \"#utility.yul\":12297:12309   */\n      swap1\n      pop\n        /* \"#utility.yul\":12255:12315   */\n      swap2\n      swap1\n      pop\n      jump\t// out\n        /* \"#utility.yul\":12321:12463   */\n    tag_200:\n        /* \"#utility.yul\":12371:12380   */\n      0x00\n        /* \"#utility.yul\":12404:12457   */\n      tag_352\n        /* \"#utility.yul\":12422:12456   */\n      tag_353\n        /* \"#utility.yul\":12431:12455   */\n      tag_354\n        /* \"#utility.yul\":12449:12454   */\n      dup5\n        /* \"#utility.yul\":12431:12455   */\n      tag_175\n      jump\t// in\n    tag_354:\n        /* \"#utility.yul\":12422:12456   */\n      tag_199\n      jump\t// in\n    tag_353:\n        /* \"#utility.yul\":12404:12457   */\n      tag_175\n      jump\t// in\n    tag_352:\n        /* \"#utility.yul\":12391:12457   */\n      swap1\n      pop\n        /* \"#utility.yul\":12321:12463   */\n      swap2\n      swap1\n      pop\n      jump\t// out\n        /* \"#utility.yul\":12469:12544   */\n    tag_201:\n        /* \"#utility.yul\":12512:12515   */\n      0x00\n        /* \"#utility.yul\":12533:12538   */\n      dup2\n        /* \"#utility.yul\":12526:12538   */\n      swap1\n      pop\n        /* \"#utility.yul\":12469:12544   */\n      swap2\n      swap1\n      pop\n      jump\t// out\n        /* \"#utility.yul\":12550:12819   */\n    tag_202:\n        /* \"#utility.yul\":12660:12699   */\n      tag_357\n        /* \"#utility.yul\":12691:12698   */\n      dup4\n        /* \"#utility.yul\":12660:12699   */\n      tag_200\n      jump\t// in\n    tag_357:\n        /* \"#utility.yul\":12721:12812   */\n      tag_358\n        /* \"#utility.yul\":12770:12811   */\n      tag_359\n        /* \"#utility.yul\":12794:12810   */\n      dup3\n        /* \"#utility.yul\":12770:12811   */\n      tag_201\n      jump\t// in\n    tag_359:\n        /* \"#utility.yul\":12762:12768   */\n      dup5\n        /* \"#utility.yul\":12755:12759   */\n      dup5\n        /* \"#utility.yul\":12749:12760   */\n      sload\n        /* \"#utility.yul\":12721:12812   */\n      tag_198\n      jump\t// in\n    tag_358:\n        /* \"#utility.yul\":12715:12719   */\n      dup3\n        /* \"#utility.yul\":12708:12813   */\n      sstore\n        /* \"#utility.yul\":12626:12819   */\n      pop\n        /* \"#utility.yul\":12550:12819   */\n      pop\n      pop\n      pop\n      jump\t// out\n        /* \"#utility.yul\":12825:12898   */\n    tag_203:\n        /* \"#utility.yul\":12870:12873   */\n      0x00\n        /* \"#utility.yul\":12825:12898   */\n      swap1\n      jump\t// out\n        /* \"#utility.yul\":12904:13093   */\n    tag_204:\n        /* \"#utility.yul\":12981:13013   */\n      tag_362\n      tag_203\n      jump\t// in\n    tag_362:\n        /* \"#utility.yul\":13022:13087   */\n      tag_363\n        /* \"#utility.yul\":13080:13086   */\n      dup2\n        /* \"#utility.yul\":13072:13078   */\n      dup5\n        /* \"#utility.yul\":13066:13070   */\n      dup5\n        /* \"#utility.yul\":13022:13087   */\n      tag_202\n      jump\t// in\n    tag_363:\n        /* \"#utility.yul\":12957:13093   */\n      pop\n        /* \"#utility.yul\":12904:13093   */\n      pop\n      pop\n      jump\t// out\n        /* \"#utility.yul\":13099:13285   */\n    tag_205:\n        /* \"#utility.yul\":13159:13279   */\n    tag_365:\n        /* \"#utility.yul\":13176:13179   */\n      dup2\n        /* \"#utility.yul\":13169:13174   */\n      dup2\n        /* \"#utility.yul\":13166:13180   */\n      lt\n        /* \"#utility.yul\":13159:13279   */\n      iszero\n      tag_367\n      jumpi\n        /* \"#utility.yul\":13230:13269   */\n      tag_368\n        /* \"#utility.yul\":13267:13268   */\n      0x00\n        /* \"#utility.yul\":13260:13265   */\n      dup3\n        /* \"#utility.yul\":13230:13269   */\n      tag_204\n      jump\t// in\n    tag_368:\n        /* \"#utility.yul\":13203:13204   */\n      0x01\n        /* \"#utility.yul\":13196:13201   */\n      dup2\n        /* \"#utility.yul\":13192:13205   */\n      add\n        /* \"#utility.yul\":13183:13205   */\n      swap1\n      pop\n        /* \"#utility.yul\":13159:13279   */\n      jump(tag_365)\n    tag_367:\n        /* \"#utility.yul\":13099:13285   */\n      pop\n      pop\n      jump\t// out\n        /* \"#utility.yul\":13291:13834   */\n    tag_206:\n        /* \"#utility.yul\":13392:13394   */\n      0x1f\n        /* \"#utility.yul\":13387:13390   */\n      dup3\n        /* \"#utility.yul\":13384:13395   */\n      gt\n        /* \"#utility.yul\":13381:13827   */\n      iszero\n      tag_370\n      jumpi\n        /* \"#utility.yul\":13426:13464   */\n      tag_371\n        /* \"#utility.yul\":13458:13463   */\n      dup2\n        /* \"#utility.yul\":13426:13464   */\n      tag_195\n      jump\t// in\n    tag_371:\n        /* \"#utility.yul\":13510:13539   */\n      tag_372\n        /* \"#utility.yul\":13528:13538   */\n      dup5\n        /* \"#utility.yul\":13510:13539   */\n      tag_196\n      jump\t// in\n    tag_372:\n        /* \"#utility.yul\":13500:13508   */\n      dup2\n        /* \"#utility.yul\":13496:13540   */\n      add\n        /* \"#utility.yul\":13693:13695   */\n      0x20\n        /* \"#utility.yul\":13681:13691   */\n      dup6\n        /* \"#utility.yul\":13678:13696   */\n      lt\n        /* \"#utility.yul\":13675:13724   */\n      iszero\n      tag_373\n      jumpi\n        /* \"#utility.yul\":13714:13722   */\n      dup2\n        /* \"#utility.yul\":13699:13722   */\n      swap1\n      pop\n        /* \"#utility.yul\":13675:13724   */\n    tag_373:\n        /* \"#utility.yul\":13737:13817   */\n      tag_374\n        /* \"#utility.yul\":13793:13815   */\n      tag_375\n        /* \"#utility.yul\":13811:13814   */\n      dup6\n        /* \"#utility.yul\":13793:13815   */\n      tag_196\n      jump\t// in\n    tag_375:\n        /* \"#utility.yul\":13783:13791   */\n      dup4\n        /* \"#utility.yul\":13779:13816   */\n      add\n        /* \"#utility.yul\":13766:13777   */\n      dup3\n        /* \"#utility.yul\":13737:13817   */\n      tag_205\n      jump\t// in\n    tag_374:\n        /* \"#utility.yul\":13396:13827   */\n      pop\n      pop\n        /* \"#utility.yul\":13381:13827   */\n    tag_370:\n        /* \"#utility.yul\":13291:13834   */\n      pop\n      pop\n      pop\n      jump\t// out\n        /* \"#utility.yul\":13840:13957   */\n    tag_207:\n        /* \"#utility.yul\":13894:13902   */\n      0x00\n        /* \"#utility.yul\":13944:13949   */\n      dup3\n        /* \"#utility.yul\":13938:13942   */\n      dup3\n        /* \"#utility.yul\":13934:13950   */\n      shr\n        /* \"#utility.yul\":13913:13950   */\n      swap1\n      pop\n        /* \"#utility.yul\":13840:13957   */\n      swap3\n      swap2\n      pop\n      pop\n      jump\t// out\n        /* \"#utility.yul\":13963:14132   */\n    tag_208:\n        /* \"#utility.yul\":14007:14013   */\n      0x00\n        /* \"#utility.yul\":14040:14091   */\n      tag_378\n        /* \"#utility.yul\":14088:14089   */\n      0x00\n        /* \"#utility.yul\":14084:14090   */\n      not\n        /* \"#utility.yul\":14076:14081   */\n      dup5\n        /* \"#utility.yul\":14073:14074   */\n      0x08\n        /* \"#utility.yul\":14069:14082   */\n      mul\n        /* \"#utility.yul\":14040:14091   */\n      tag_207\n      jump\t// in\n    tag_378:\n        /* \"#utility.yul\":14036:14092   */\n      not\n        /* \"#utility.yul\":14121:14125   */\n      dup1\n        /* \"#utility.yul\":14115:14119   */\n      dup4\n        /* \"#utility.yul\":14111:14126   */\n      and\n        /* \"#utility.yul\":14101:14126   */\n      swap2\n      pop\n        /* \"#utility.yul\":14014:14132   */\n      pop\n        /* \"#utility.yul\":13963:14132   */\n      swap3\n      swap2\n      pop\n      pop\n      jump\t// out\n        /* \"#utility.yul\":14137:14432   */\n    tag_209:\n        /* \"#utility.yul\":14213:14217   */\n      0x00\n        /* \"#utility.yul\":14359:14388   */\n      tag_380\n        /* \"#utility.yul\":14384:14387   */\n      dup4\n        /* \"#utility.yul\":14378:14382   */\n      dup4\n        /* \"#utility.yul\":14359:14388   */\n      tag_208\n      jump\t// in\n    tag_380:\n        /* \"#utility.yul\":14351:14388   */\n      swap2\n      pop\n        /* \"#utility.yul\":14421:14424   */\n      dup3\n        /* \"#utility.yul\":14418:14419   */\n      0x02\n        /* \"#utility.yul\":14414:14425   */\n      mul\n        /* \"#utility.yul\":14408:14412   */\n      dup3\n        /* \"#utility.yul\":14405:14426   */\n      or\n        /* \"#utility.yul\":14397:14426   */\n      swap1\n      pop\n        /* \"#utility.yul\":14137:14432   */\n      swap3\n      swap2\n      pop\n      pop\n      jump\t// out\n        /* \"#utility.yul\":14437:15832   */\n    tag_102:\n        /* \"#utility.yul\":14554:14591   */\n      tag_382\n        /* \"#utility.yul\":14587:14590   */\n      dup3\n        /* \"#utility.yul\":14554:14591   */\n      tag_158\n      jump\t// in\n    tag_382:\n        /* \"#utility.yul\":14656:14674   */\n      0xffffffffffffffff\n        /* \"#utility.yul\":14648:14654   */\n      dup2\n        /* \"#utility.yul\":14645:14675   */\n      gt\n        /* \"#utility.yul\":14642:14698   */\n      iszero\n      tag_383\n      jumpi\n        /* \"#utility.yul\":14678:14696   */\n      tag_384\n      tag_168\n      jump\t// in\n    tag_384:\n        /* \"#utility.yul\":14642:14698   */\n    tag_383:\n        /* \"#utility.yul\":14722:14760   */\n      tag_385\n        /* \"#utility.yul\":14754:14758   */\n      dup3\n        /* \"#utility.yul\":14748:14759   */\n      sload\n        /* \"#utility.yul\":14722:14760   */\n      tag_105\n      jump\t// in\n    tag_385:\n        /* \"#utility.yul\":14807:14874   */\n      tag_386\n        /* \"#utility.yul\":14867:14873   */\n      dup3\n        /* \"#utility.yul\":14859:14865   */\n      dup3\n        /* \"#utility.yul\":14853:14857   */\n      dup6\n        /* \"#utility.yul\":14807:14874   */\n      tag_206\n      jump\t// in\n    tag_386:\n        /* \"#utility.yul\":14901:14902   */\n      0x00\n        /* \"#utility.yul\":14925:14929   */\n      0x20\n        /* \"#utility.yul\":14912:14929   */\n      swap1\n      pop\n        /* \"#utility.yul\":14957:14959   */\n      0x1f\n        /* \"#utility.yul\":14949:14955   */\n      dup4\n        /* \"#utility.yul\":14946:14960   */\n      gt\n        /* \"#utility.yul\":14974:14975   */\n      0x01\n        /* \"#utility.yul\":14969:15587   */\n      dup2\n      eq\n      tag_388\n      jumpi\n        /* \"#utility.yul\":15631:15632   */\n      0x00\n        /* \"#utility.yul\":15648:15654   */\n      dup5\n        /* \"#utility.yul\":15645:15722   */\n      iszero\n      tag_389\n      jumpi\n        /* \"#utility.yul\":15697:15706   */\n      dup3\n        /* \"#utility.yul\":15692:15695   */\n      dup8\n        /* \"#utility.yul\":15688:15707   */\n      add\n        /* \"#utility.yul\":15682:15708   */\n      mload\n        /* \"#utility.yul\":15673:15708   */\n      swap1\n      pop\n        /* \"#utility.yul\":15645:15722   */\n    tag_389:\n        /* \"#utility.yul\":15748:15815   */\n      tag_390\n        /* \"#utility.yul\":15808:15814   */\n      dup6\n        /* \"#utility.yul\":15801:15806   */\n      dup3\n        /* \"#utility.yul\":15748:15815   */\n      tag_209\n      jump\t// in\n    tag_390:\n        /* \"#utility.yul\":15742:15746   */\n      dup7\n        /* \"#utility.yul\":15735:15816   */\n      sstore\n        /* \"#utility.yul\":15604:15826   */\n      pop\n        /* \"#utility.yul\":14939:15826   */\n      jump(tag_387)\n        /* \"#utility.yul\":14969:15587   */\n    tag_388:\n        /* \"#utility.yul\":15021:15025   */\n      0x1f\n        /* \"#utility.yul\":15017:15026   */\n      not\n        /* \"#utility.yul\":15009:15015   */\n      dup5\n        /* \"#utility.yul\":15005:15027   */\n      and\n        /* \"#utility.yul\":15055:15092   */\n      tag_391\n        /* \"#utility.yul\":15087:15091   */\n      dup7\n        /* \"#utility.yul\":15055:15092   */\n      tag_195\n      jump\t// in\n    tag_391:\n        /* \"#utility.yul\":15114:15115   */\n      0x00\n        /* \"#utility.yul\":15128:15336   */\n    tag_392:\n        /* \"#utility.yul\":15142:15149   */\n      dup3\n        /* \"#utility.yul\":15139:15140   */\n      dup2\n        /* \"#utility.yul\":15136:15150   */\n      lt\n        /* \"#utility.yul\":15128:15336   */\n      iszero\n      tag_394\n      jumpi\n        /* \"#utility.yul\":15221:15230   */\n      dup5\n        /* \"#utility.yul\":15216:15219   */\n      dup10\n        /* \"#utility.yul\":15212:15231   */\n      add\n        /* \"#utility.yul\":15206:15232   */\n      mload\n        /* \"#utility.yul\":15198:15204   */\n      dup3\n        /* \"#utility.yul\":15191:15233   */\n      sstore\n        /* \"#utility.yul\":15272:15273   */\n      0x01\n        /* \"#utility.yul\":15264:15270   */\n      dup3\n        /* \"#utility.yul\":15260:15274   */\n      add\n        /* \"#utility.yul\":15250:15274   */\n      swap2\n      pop\n        /* \"#utility.yul\":15319:15321   */\n      0x20\n        /* \"#utility.yul\":15308:15317   */\n      dup6\n        /* \"#utility.yul\":15304:15322   */\n      add\n        /* \"#utility.yul\":15291:15322   */\n      swap5\n      pop\n        /* \"#utility.yul\":15165:15169   */\n      0x20\n        /* \"#utility.yul\":15162:15163   */\n      dup2\n        /* \"#utility.yul\":15158:15170   */\n      add\n        /* \"#utility.yul\":15153:15170   */\n      swap1\n      pop\n        /* \"#utility.yul\":15128:15336   */\n      jump(tag_392)\n    tag_394:\n        /* \"#utility.yul\":15364:15370   */\n      dup7\n        /* \"#utility.yul\":15355:15362   */\n      dup4\n        /* \"#utility.yul\":15352:15371   */\n      lt\n        /* \"#utility.yul\":15349:15528   */\n      iszero\n      tag_395\n      jumpi\n        /* \"#utility.yul\":15422:15431   */\n      dup5\n        /* \"#utility.yul\":15417:15420   */\n      dup10\n        /* \"#utility.yul\":15413:15432   */\n      add\n        /* \"#utility.yul\":15407:15433   */\n      mload\n        /* \"#utility.yul\":15465:15513   */\n      tag_396\n        /* \"#utility.yul\":15507:15511   */\n      0x1f\n        /* \"#utility.yul\":15499:15505   */\n      dup10\n        /* \"#utility.yul\":15495:15512   */\n      and\n        /* \"#utility.yul\":15484:15493   */\n      dup3\n        /* \"#utility.yul\":15465:15513   */\n      tag_208\n      jump\t// in\n    tag_396:\n        /* \"#utility.yul\":15457:15463   */\n      dup4\n        /* \"#utility.yul\":15450:15514   */\n      sstore\n        /* \"#utility.yul\":15372:15528   */\n      pop\n        /* \"#utility.yul\":15349:15528   */\n    tag_395:\n        /* \"#utility.yul\":15574:15575   */\n      0x01\n        /* \"#utility.yul\":15570:15571   */\n      0x02\n        /* \"#utility.yul\":15562:15568   */\n      dup9\n        /* \"#utility.yul\":15558:15572   */\n      mul\n        /* \"#utility.yul\":15554:15576   */\n      add\n        /* \"#utility.yul\":15548:15552   */\n      dup9\n        /* \"#utility.yul\":15541:15577   */\n      sstore\n        /* \"#utility.yul\":14976:15587   */\n      pop\n      pop\n      pop\n        /* \"#utility.yul\":14939:15826   */\n    tag_387:\n      pop\n        /* \"#utility.yul\":14529:15832   */\n      pop\n      pop\n      pop\n        /* \"#utility.yul\":14437:15832   */\n      pop\n      pop\n      jump\t// out\n        /* \"#utility.yul\":15838:16018   */\n    tag_210:\n        /* \"#utility.yul\":15886:15963   */\n      0x4e487b7100000000000000000000000000000000000000000000000000000000\n        /* \"#utility.yul\":15883:15884   */\n      0x00\n        /* \"#utility.yul\":15876:15964   */\n      mstore\n        /* \"#utility.yul\":15983:15987   */\n      0x11\n        /* \"#utility.yul\":15980:15981   */\n      0x04\n        /* \"#utility.yul\":15973:15988   */\n      mstore\n        /* \"#utility.yul\":16007:16011   */\n      0x24\n        /* \"#utility.yul\":16004:16005   */\n      0x00\n        /* \"#utility.yul\":15997:16012   */\n      revert\n        /* \"#utility.yul\":16024:16215   */\n    tag_112:\n        /* \"#utility.yul\":16064:16067   */\n      0x00\n        /* \"#utility.yul\":16083:16103   */\n      tag_399\n        /* \"#utility.yul\":16101:16102   */\n      dup3\n        /* \"#utility.yul\":16083:16103   */\n      tag_175\n      jump\t// in\n    tag_399:\n        /* \"#utility.yul\":16078:16103   */\n      swap2\n      pop\n        /* \"#utility.yul\":16117:16137   */\n      tag_400\n        /* \"#utility.yul\":16135:16136   */\n      dup4\n        /* \"#utility.yul\":16117:16137   */\n      tag_175\n      jump\t// in\n    tag_400:\n        /* \"#utility.yul\":16112:16137   */\n      swap3\n      pop\n        /* \"#utility.yul\":16160:16161   */\n      dup3\n        /* \"#utility.yul\":16157:16158   */\n      dup3\n        /* \"#utility.yul\":16153:16162   */\n      add\n        /* \"#utility.yul\":16146:16162   */\n      swap1\n      pop\n        /* \"#utility.yul\":16181:16184   */\n      dup1\n        /* \"#utility.yul\":16178:16179   */\n      dup3\n        /* \"#utility.yul\":16175:16185   */\n      gt\n        /* \"#utility.yul\":16172:16208   */\n      iszero\n      tag_401\n      jumpi\n        /* \"#utility.yul\":16188:16206   */\n      tag_402\n      tag_210\n      jump\t// in\n    tag_402:\n        /* \"#utility.yul\":16172:16208   */\n    tag_401:\n        /* \"#utility.yul\":16024:16215   */\n      swap3\n      swap2\n      pop\n      pop\n      jump\t// out\n        /* \"#utility.yul\":16221:16394   */\n    tag_211:\n        /* \"#utility.yul\":16361:16386   */\n      0x4e6f20657363726f77206465706f73697420666f756e64000000000000000000\n        /* \"#utility.yul\":16357:16358   */\n      0x00\n        /* \"#utility.yul\":16349:16355   */\n      dup3\n        /* \"#utility.yul\":16345:16359   */\n      add\n        /* \"#utility.yul\":16338:16387   */\n      mstore\n        /* \"#utility.yul\":16221:16394   */\n      pop\n      jump\t// out\n        /* \"#utility.yul\":16400:16766   */\n    tag_212:\n        /* \"#utility.yul\":16542:16545   */\n      0x00\n        /* \"#utility.yul\":16563:16630   */\n      tag_405\n        /* \"#utility.yul\":16627:16629   */\n      0x17\n        /* \"#utility.yul\":16622:16625   */\n      dup4\n        /* \"#utility.yul\":16563:16630   */\n      tag_159\n      jump\t// in\n    tag_405:\n        /* \"#utility.yul\":16556:16630   */\n      swap2\n      pop\n        /* \"#utility.yul\":16639:16732   */\n      tag_406\n        /* \"#utility.yul\":16728:16731   */\n      dup3\n        /* \"#utility.yul\":16639:16732   */\n      tag_211\n      jump\t// in\n    tag_406:\n        /* \"#utility.yul\":16757:16759   */\n      0x20\n        /* \"#utility.yul\":16752:16755   */\n      dup3\n        /* \"#utility.yul\":16748:16760   */\n      add\n        /* \"#utility.yul\":16741:16760   */\n      swap1\n      pop\n        /* \"#utility.yul\":16400:16766   */\n      swap2\n      swap1\n      pop\n      jump\t// out\n        /* \"#utility.yul\":16772:17191   */\n    tag_119:\n        /* \"#utility.yul\":16938:16942   */\n      0x00\n        /* \"#utility.yul\":16976:16978   */\n      0x20\n        /* \"#utility.yul\":16965:16974   */\n      dup3\n        /* \"#utility.yul\":16961:16979   */\n      add\n        /* \"#utility.yul\":16953:16979   */\n      swap1\n      pop\n        /* \"#utility.yul\":17025:17034   */\n      dup2\n        /* \"#utility.yul\":17019:17023   */\n      dup2\n        /* \"#utility.yul\":17015:17035   */\n      sub\n        /* \"#utility.yul\":17011:17012   */\n      0x00\n        /* \"#utility.yul\":17000:17009   */\n      dup4\n        /* \"#utility.yul\":16996:17013   */\n      add\n        /* \"#utility.yul\":16989:17036   */\n      mstore\n        /* \"#utility.yul\":17053:17184   */\n      tag_408\n        /* \"#utility.yul\":17179:17183   */\n      dup2\n        /* \"#utility.yul\":17053:17184   */\n      tag_212\n      jump\t// in\n    tag_408:\n        /* \"#utility.yul\":17045:17184   */\n      swap1\n      pop\n        /* \"#utility.yul\":16772:17191   */\n      swap2\n      swap1\n      pop\n      jump\t// out\n        /* \"#utility.yul\":17197:17376   */\n    tag_213:\n        /* \"#utility.yul\":17337:17368   */\n      0x457363726f7720706572696f64206e6f742079657420656c6170736564000000\n        /* \"#utility.yul\":17333:17334   */\n      0x00\n        /* \"#utility.yul\":17325:17331   */\n      dup3\n        /* \"#utility.yul\":17321:17335   */\n      add\n        /* \"#utility.yul\":17314:17369   */\n      mstore\n        /* \"#utility.yul\":17197:17376   */\n      pop\n      jump\t// out\n        /* \"#utility.yul\":17382:17748   */\n    tag_214:\n        /* \"#utility.yul\":17524:17527   */\n      0x00\n        /* \"#utility.yul\":17545:17612   */\n      tag_411\n        /* \"#utility.yul\":17609:17611   */\n      0x1d\n        /* \"#utility.yul\":17604:17607   */\n      dup4\n        /* \"#utility.yul\":17545:17612   */\n      tag_159\n      jump\t// in\n    tag_411:\n        /* \"#utility.yul\":17538:17612   */\n      swap2\n      pop\n        /* \"#utility.yul\":17621:17714   */\n      tag_412\n        /* \"#utility.yul\":17710:17713   */\n      dup3\n        /* \"#utility.yul\":17621:17714   */\n      tag_213\n      jump\t// in\n    tag_412:\n        /* \"#utility.yul\":17739:17741   */\n      0x20\n        /* \"#utility.yul\":17734:17737   */\n      dup3\n        /* \"#utility.yul\":17730:17742   */\n      add\n        /* \"#utility.yul\":17723:17742   */\n      swap1\n      pop\n        /* \"#utility.yul\":17382:17748   */\n      swap2\n      swap1\n      pop\n      jump\t// out\n        /* \"#utility.yul\":17754:18173   */\n    tag_123:\n        /* \"#utility.yul\":17920:17924   */\n      0x00\n        /* \"#utility.yul\":17958:17960   */\n      0x20\n        /* \"#utility.yul\":17947:17956   */\n      dup3\n        /* \"#utility.yul\":17943:17961   */\n      add\n        /* \"#utility.yul\":17935:17961   */\n      swap1\n      pop\n        /* \"#utility.yul\":18007:18016   */\n      dup2\n        /* \"#utility.yul\":18001:18005   */\n      dup2\n        /* \"#utility.yul\":17997:18017   */\n      sub\n        /* \"#utility.yul\":17993:17994   */\n      0x00\n        /* \"#utility.yul\":17982:17991   */\n      dup4\n        /* \"#utility.yul\":17978:17995   */\n      add\n        /* \"#utility.yul\":17971:18018   */\n      mstore\n        /* \"#utility.yul\":18035:18166   */\n      tag_414\n        /* \"#utility.yul\":18161:18165   */\n      dup2\n        /* \"#utility.yul\":18035:18166   */\n      tag_214\n      jump\t// in\n    tag_414:\n        /* \"#utility.yul\":18027:18166   */\n      swap1\n      pop\n        /* \"#utility.yul\":17754:18173   */\n      swap2\n      swap1\n      pop\n      jump\t// out\n        /* \"#utility.yul\":18203:19077   */\n    tag_215:\n        /* \"#utility.yul\":18306:18309   */\n      0x00\n        /* \"#utility.yul\":18343:18348   */\n      dup2\n        /* \"#utility.yul\":18337:18349   */\n      sload\n        /* \"#utility.yul\":18372:18408   */\n      tag_416\n        /* \"#utility.yul\":18398:18407   */\n      dup2\n        /* \"#utility.yul\":18372:18408   */\n      tag_105\n      jump\t// in\n    tag_416:\n        /* \"#utility.yul\":18424:18513   */\n      tag_417\n        /* \"#utility.yul\":18506:18512   */\n      dup2\n        /* \"#utility.yul\":18501:18504   */\n      dup7\n        /* \"#utility.yul\":18424:18513   */\n      tag_188\n      jump\t// in\n    tag_417:\n        /* \"#utility.yul\":18417:18513   */\n      swap5\n      pop\n        /* \"#utility.yul\":18544:18545   */\n      0x01\n        /* \"#utility.yul\":18533:18542   */\n      dup3\n        /* \"#utility.yul\":18529:18546   */\n      and\n        /* \"#utility.yul\":18560:18561   */\n      0x00\n        /* \"#utility.yul\":18555:18721   */\n      dup2\n      eq\n      tag_419\n      jumpi\n        /* \"#utility.yul\":18735:18736   */\n      0x01\n        /* \"#utility.yul\":18730:19071   */\n      dup2\n      eq\n      tag_420\n      jumpi\n        /* \"#utility.yul\":18522:19071   */\n      jump(tag_418)\n        /* \"#utility.yul\":18555:18721   */\n    tag_419:\n        /* \"#utility.yul\":18639:18643   */\n      0xff\n        /* \"#utility.yul\":18635:18644   */\n      not\n        /* \"#utility.yul\":18624:18633   */\n      dup4\n        /* \"#utility.yul\":18620:18645   */\n      and\n        /* \"#utility.yul\":18615:18618   */\n      dup7\n        /* \"#utility.yul\":18608:18646   */\n      mstore\n        /* \"#utility.yul\":18701:18707   */\n      dup2\n        /* \"#utility.yul\":18694:18708   */\n      iszero\n        /* \"#utility.yul\":18687:18709   */\n      iszero\n        /* \"#utility.yul\":18679:18685   */\n      dup3\n        /* \"#utility.yul\":18675:18710   */\n      mul\n        /* \"#utility.yul\":18670:18673   */\n      dup7\n        /* \"#utility.yul\":18666:18711   */\n      add\n        /* \"#utility.yul\":18659:18711   */\n      swap4\n      pop\n        /* \"#utility.yul\":18555:18721   */\n      jump(tag_418)\n        /* \"#utility.yul\":18730:19071   */\n    tag_420:\n        /* \"#utility.yul\":18797:18835   */\n      tag_421\n        /* \"#utility.yul\":18829:18834   */\n      dup6\n        /* \"#utility.yul\":18797:18835   */\n      tag_195\n      jump\t// in\n    tag_421:\n        /* \"#utility.yul\":18857:18858   */\n      0x00\n        /* \"#utility.yul\":18871:19025   */\n    tag_422:\n        /* \"#utility.yul\":18885:18891   */\n      dup4\n        /* \"#utility.yul\":18882:18883   */\n      dup2\n        /* \"#utility.yul\":18879:18892   */\n      lt\n        /* \"#utility.yul\":18871:19025   */\n      iszero\n      tag_424\n      jumpi\n        /* \"#utility.yul\":18959:18966   */\n      dup2\n        /* \"#utility.yul\":18953:18967   */\n      sload\n        /* \"#utility.yul\":18949:18950   */\n      dup2\n        /* \"#utility.yul\":18944:18947   */\n      dup10\n        /* \"#utility.yul\":18940:18951   */\n      add\n        /* \"#utility.yul\":18933:18968   */\n      mstore\n        /* \"#utility.yul\":19009:19010   */\n      0x01\n        /* \"#utility.yul\":19000:19007   */\n      dup3\n        /* \"#utility.yul\":18996:19011   */\n      add\n        /* \"#utility.yul\":18985:19011   */\n      swap2\n      pop\n        /* \"#utility.yul\":18907:18911   */\n      0x20\n        /* \"#utility.yul\":18904:18905   */\n      dup2\n        /* \"#utility.yul\":18900:18912   */\n      add\n        /* \"#utility.yul\":18895:18912   */\n      swap1\n      pop\n        /* \"#utility.yul\":18871:19025   */\n      jump(tag_422)\n    tag_424:\n        /* \"#utility.yul\":19054:19060   */\n      dup4\n        /* \"#utility.yul\":19049:19052   */\n      dup9\n        /* \"#utility.yul\":19045:19061   */\n      add\n        /* \"#utility.yul\":19038:19061   */\n      swap6\n      pop\n        /* \"#utility.yul\":18737:19071   */\n      pop\n      pop\n        /* \"#utility.yul\":18522:19071   */\n    tag_418:\n      pop\n        /* \"#utility.yul\":18310:19077   */\n      pop\n      pop\n        /* \"#utility.yul\":18203:19077   */\n      swap3\n      swap2\n      pop\n      pop\n      jump\t// out\n        /* \"#utility.yul\":19083:19352   */\n    tag_125:\n        /* \"#utility.yul\":19212:19215   */\n      0x00\n        /* \"#utility.yul\":19234:19326   */\n      tag_426\n        /* \"#utility.yul\":19322:19325   */\n      dup3\n        /* \"#utility.yul\":19313:19319   */\n      dup5\n        /* \"#utility.yul\":19234:19326   */\n      tag_215\n      jump\t// in\n    tag_426:\n        /* \"#utility.yul\":19227:19326   */\n      swap2\n      pop\n        /* \"#utility.yul\":19343:19346   */\n      dup2\n        /* \"#utility.yul\":19336:19346   */\n      swap1\n      pop\n        /* \"#utility.yul\":19083:19352   */\n      swap3\n      swap2\n      pop\n      pop\n      jump\t// out\n        /* \"#utility.yul\":19358:19528   */\n    tag_216:\n        /* \"#utility.yul\":19498:19520   */\n      0x496e73756666696369656e742062616c616e6365000000000000000000000000\n        /* \"#utility.yul\":19494:19495   */\n      0x00\n        /* \"#utility.yul\":19486:19492   */\n      dup3\n        /* \"#utility.yul\":19482:19496   */\n      add\n        /* \"#utility.yul\":19475:19521   */\n      mstore\n        /* \"#utility.yul\":19358:19528   */\n      pop\n      jump\t// out\n        /* \"#utility.yul\":19534:19900   */\n    tag_217:\n        /* \"#utility.yul\":19676:19679   */\n      0x00\n        /* \"#utility.yul\":19697:19764   */\n      tag_429\n        /* \"#utility.yul\":19761:19763   */\n      0x14\n        /* \"#utility.yul\":19756:19759   */\n      dup4\n        /* \"#utility.yul\":19697:19764   */\n      tag_159\n      jump\t// in\n    tag_429:\n        /* \"#utility.yul\":19690:19764   */\n      swap2\n      pop\n        /* \"#utility.yul\":19773:19866   */\n      tag_430\n        /* \"#utility.yul\":19862:19865   */\n      dup3\n        /* \"#utility.yul\":19773:19866   */\n      tag_216\n      jump\t// in\n    tag_430:\n        /* \"#utility.yul\":19891:19893   */\n      0x20\n        /* \"#utility.yul\":19886:19889   */\n      dup3\n        /* \"#utility.yul\":19882:19894   */\n      add\n        /* \"#utility.yul\":19875:19894   */\n      swap1\n      pop\n        /* \"#utility.yul\":19534:19900   */\n      swap2\n      swap1\n      pop\n      jump\t// out\n        /* \"#utility.yul\":19906:20325   */\n    tag_132:\n        /* \"#utility.yul\":20072:20076   */\n      0x00\n        /* \"#utility.yul\":20110:20112   */\n      0x20\n        /* \"#utility.yul\":20099:20108   */\n      dup3\n        /* \"#utility.yul\":20095:20113   */\n      add\n        /* \"#utility.yul\":20087:20113   */\n      swap1\n      pop\n        /* \"#utility.yul\":20159:20168   */\n      dup2\n        /* \"#utility.yul\":20153:20157   */\n      dup2\n        /* \"#utility.yul\":20149:20169   */\n      sub\n        /* \"#utility.yul\":20145:20146   */\n      0x00\n        /* \"#utility.yul\":20134:20143   */\n      dup4\n        /* \"#utility.yul\":20130:20147   */\n      add\n        /* \"#utility.yul\":20123:20170   */\n      mstore\n        /* \"#utility.yul\":20187:20318   */\n      tag_432\n        /* \"#utility.yul\":20313:20317   */\n      dup2\n        /* \"#utility.yul\":20187:20318   */\n      tag_217\n      jump\t// in\n    tag_432:\n        /* \"#utility.yul\":20179:20318   */\n      swap1\n      pop\n        /* \"#utility.yul\":19906:20325   */\n      swap2\n      swap1\n      pop\n      jump\t// out\n        /* \"#utility.yul\":20331:20525   */\n    tag_134:\n        /* \"#utility.yul\":20371:20375   */\n      0x00\n        /* \"#utility.yul\":20391:20411   */\n      tag_434\n        /* \"#utility.yul\":20409:20410   */\n      dup3\n        /* \"#utility.yul\":20391:20411   */\n      tag_175\n      jump\t// in\n    tag_434:\n        /* \"#utility.yul\":20386:20411   */\n      swap2\n      pop\n        /* \"#utility.yul\":20425:20445   */\n      tag_435\n        /* \"#utility.yul\":20443:20444   */\n      dup4\n        /* \"#utility.yul\":20425:20445   */\n      tag_175\n      jump\t// in\n    tag_435:\n        /* \"#utility.yul\":20420:20445   */\n      swap3\n      pop\n        /* \"#utility.yul\":20469:20470   */\n      dup3\n        /* \"#utility.yul\":20466:20467   */\n      dup3\n        /* \"#utility.yul\":20462:20471   */\n      sub\n        /* \"#utility.yul\":20454:20471   */\n      swap1\n      pop\n        /* \"#utility.yul\":20493:20494   */\n      dup2\n        /* \"#utility.yul\":20487:20491   */\n      dup2\n        /* \"#utility.yul\":20484:20495   */\n      gt\n        /* \"#utility.yul\":20481:20518   */\n      iszero\n      tag_436\n      jumpi\n        /* \"#utility.yul\":20498:20516   */\n      tag_437\n      tag_210\n      jump\t// in\n    tag_437:\n        /* \"#utility.yul\":20481:20518   */\n    tag_436:\n        /* \"#utility.yul\":20331:20525   */\n      swap3\n      swap2\n      pop\n      pop\n      jump\t// out\n        /* \"#utility.yul\":20531:20704   */\n    tag_218:\n        /* \"#utility.yul\":20671:20696   */\n      0x4861736820616c72656164792072656769737465726564000000000000000000\n        /* \"#utility.yul\":20667:20668   */\n      0x00\n        /* \"#utility.yul\":20659:20665   */\n      dup3\n        /* \"#utility.yul\":20655:20669   */\n      add\n        /* \"#utility.yul\":20648:20697   */\n      mstore\n        /* \"#utility.yul\":20531:20704   */\n      pop\n      jump\t// out\n        /* \"#utility.yul\":20710:21076   */\n    tag_219:\n        /* \"#utility.yul\":20852:20855   */\n      0x00\n        /* \"#utility.yul\":20873:20940   */\n      tag_440\n        /* \"#utility.yul\":20937:20939   */\n      0x17\n        /* \"#utility.yul\":20932:20935   */\n      dup4\n        /* \"#utility.yul\":20873:20940   */\n      tag_159\n      jump\t// in\n    tag_440:\n        /* \"#utility.yul\":20866:20940   */\n      swap2\n      pop\n        /* \"#utility.yul\":20949:21042   */\n      tag_441\n        /* \"#utility.yul\":21038:21041   */\n      dup3\n        /* \"#utility.yul\":20949:21042   */\n      tag_218\n      jump\t// in\n    tag_441:\n        /* \"#utility.yul\":21067:21069   */\n      0x20\n        /* \"#utility.yul\":21062:21065   */\n      dup3\n        /* \"#utility.yul\":21058:21070   */\n      add\n        /* \"#utility.yul\":21051:21070   */\n      swap1\n      pop\n        /* \"#utility.yul\":20710:21076   */\n      swap2\n      swap1\n      pop\n      jump\t// out\n        /* \"#utility.yul\":21082:21501   */\n    tag_143:\n        /* \"#utility.yul\":21248:21252   */\n      0x00\n        /* \"#utility.yul\":21286:21288   */\n      0x20\n        /* \"#utility.yul\":21275:21284   */\n      dup3\n        /* \"#utility.yul\":21271:21289   */\n      add\n        /* \"#utility.yul\":21263:21289   */\n      swap1\n      pop\n        /* \"#utility.yul\":21335:21344   */\n      dup2\n        /* \"#utility.yul\":21329:21333   */\n      dup2\n        /* \"#utility.yul\":21325:21345   */\n      sub\n        /* \"#utility.yul\":21321:21322   */\n      0x00\n        /* \"#utility.yul\":21310:21319   */\n      dup4\n        /* \"#utility.yul\":21306:21323   */\n      add\n        /* \"#utility.yul\":21299:21346   */\n      mstore\n        /* \"#utility.yul\":21363:21494   */\n      tag_443\n        /* \"#utility.yul\":21489:21493   */\n      dup2\n        /* \"#utility.yul\":21363:21494   */\n      tag_219\n      jump\t// in\n    tag_443:\n        /* \"#utility.yul\":21355:21494   */\n      swap1\n      pop\n        /* \"#utility.yul\":21082:21501   */\n      swap2\n      swap1\n      pop\n      jump\t// out\n        /* \"#utility.yul\":21507:21609   */\n    tag_220:\n        /* \"#utility.yul\":21549:21557   */\n      0x00\n        /* \"#utility.yul\":21596:21601   */\n      dup2\n        /* \"#utility.yul\":21593:21594   */\n      0x01\n        /* \"#utility.yul\":21589:21602   */\n      shr\n        /* \"#utility.yul\":21568:21602   */\n      swap1\n      pop\n        /* \"#utility.yul\":21507:21609   */\n      swap2\n      swap1\n      pop\n      jump\t// out\n        /* \"#utility.yul\":21615:22463   */\n    tag_221:\n        /* \"#utility.yul\":21676:21681   */\n      0x00\n        /* \"#utility.yul\":21683:21687   */\n      dup1\n        /* \"#utility.yul\":21707:21713   */\n      dup3\n        /* \"#utility.yul\":21698:21713   */\n      swap2\n      pop\n        /* \"#utility.yul\":21731:21736   */\n      dup4\n        /* \"#utility.yul\":21722:21736   */\n      swap1\n      pop\n        /* \"#utility.yul\":21745:22457   */\n    tag_446:\n        /* \"#utility.yul\":21766:21767   */\n      0x01\n        /* \"#utility.yul\":21756:21764   */\n      dup6\n        /* \"#utility.yul\":21753:21768   */\n      gt\n        /* \"#utility.yul\":21745:22457   */\n      iszero\n      tag_448\n      jumpi\n        /* \"#utility.yul\":21861:21865   */\n      dup1\n        /* \"#utility.yul\":21856:21859   */\n      dup7\n        /* \"#utility.yul\":21852:21866   */\n      div\n        /* \"#utility.yul\":21846:21850   */\n      dup2\n        /* \"#utility.yul\":21843:21867   */\n      gt\n        /* \"#utility.yul\":21840:21890   */\n      iszero\n      tag_449\n      jumpi\n        /* \"#utility.yul\":21870:21888   */\n      tag_450\n      tag_210\n      jump\t// in\n    tag_450:\n        /* \"#utility.yul\":21840:21890   */\n    tag_449:\n        /* \"#utility.yul\":21920:21921   */\n      0x01\n        /* \"#utility.yul\":21910:21918   */\n      dup6\n        /* \"#utility.yul\":21906:21922   */\n      and\n        /* \"#utility.yul\":21903:22354   */\n      iszero\n      tag_451\n      jumpi\n        /* \"#utility.yul\":22335:22339   */\n      dup1\n        /* \"#utility.yul\":22328:22333   */\n      dup3\n        /* \"#utility.yul\":22324:22340   */\n      mul\n        /* \"#utility.yul\":22315:22340   */\n      swap2\n      pop\n        /* \"#utility.yul\":21903:22354   */\n    tag_451:\n        /* \"#utility.yul\":22385:22389   */\n      dup1\n        /* \"#utility.yul\":22379:22383   */\n      dup2\n        /* \"#utility.yul\":22375:22390   */\n      mul\n        /* \"#utility.yul\":22367:22390   */\n      swap1\n      pop\n        /* \"#utility.yul\":22415:22447   */\n      tag_452\n        /* \"#utility.yul\":22438:22446   */\n      dup6\n        /* \"#utility.yul\":22415:22447   */\n      tag_220\n      jump\t// in\n    tag_452:\n        /* \"#utility.yul\":22403:22447   */\n      swap5\n      pop\n        /* \"#utility.yul\":21745:22457   */\n      jump(tag_446)\n    tag_448:\n        /* \"#utility.yul\":21615:22463   */\n      swap5\n      pop\n      swap5\n      swap3\n      pop\n      pop\n      pop\n      jump\t// out\n        /* \"#utility.yul\":22469:23542   */\n    tag_222:\n        /* \"#utility.yul\":22523:22528   */\n      0x00\n        /* \"#utility.yul\":22714:22722   */\n      dup3\n        /* \"#utility.yul\":22704:22744   */\n      tag_454\n      jumpi\n        /* \"#utility.yul\":22735:22736   */\n      0x01\n        /* \"#utility.yul\":22726:22736   */\n      swap1\n      pop\n        /* \"#utility.yul\":22737:22742   */\n      jump(tag_453)\n        /* \"#utility.yul\":22704:22744   */\n    tag_454:\n        /* \"#utility.yul\":22763:22767   */\n      dup2\n        /* \"#utility.yul\":22753:22789   */\n      tag_455\n      jumpi\n        /* \"#utility.yul\":22780:22781   */\n      0x00\n        /* \"#utility.yul\":22771:22781   */\n      swap1\n      pop\n        /* \"#utility.yul\":22782:22787   */\n      jump(tag_453)\n        /* \"#utility.yul\":22753:22789   */\n    tag_455:\n        /* \"#utility.yul\":22849:22853   */\n      dup2\n        /* \"#utility.yul\":22897:22898   */\n      0x01\n        /* \"#utility.yul\":22892:22919   */\n      dup2\n      eq\n      tag_457\n      jumpi\n        /* \"#utility.yul\":22933:22934   */\n      0x02\n        /* \"#utility.yul\":22928:23119   */\n      dup2\n      eq\n      tag_458\n      jumpi\n        /* \"#utility.yul\":22842:23119   */\n      jump(tag_456)\n        /* \"#utility.yul\":22892:22919   */\n    tag_457:\n        /* \"#utility.yul\":22910:22911   */\n      0x01\n        /* \"#utility.yul\":22901:22911   */\n      swap2\n      pop\n        /* \"#utility.yul\":22912:22917   */\n      pop\n      jump(tag_453)\n        /* \"#utility.yul\":22928:23119   */\n    tag_458:\n        /* \"#utility.yul\":22973:22976   */\n      0xff\n        /* \"#utility.yul\":22963:22971   */\n      dup5\n        /* \"#utility.yul\":22960:22977   */\n      gt\n        /* \"#utility.yul\":22957:23000   */\n      iszero\n      tag_459\n      jumpi\n        /* \"#utility.yul\":22980:22998   */\n      tag_460\n      tag_210\n      jump\t// in\n    tag_460:\n        /* \"#utility.yul\":22957:23000   */\n    tag_459:\n        /* \"#utility.yul\":23029:23037   */\n      dup4\n        /* \"#utility.yul\":23026:23027   */\n      0x02\n        /* \"#utility.yul\":23022:23038   */\n      exp\n        /* \"#utility.yul\":23013:23038   */\n      swap2\n      pop\n        /* \"#utility.yul\":23064:23067   */\n      dup5\n        /* \"#utility.yul\":23057:23062   */\n      dup3\n        /* \"#utility.yul\":23054:23068   */\n      gt\n        /* \"#utility.yul\":23051:23091   */\n      iszero\n      tag_461\n      jumpi\n        /* \"#utility.yul\":23071:23089   */\n      tag_462\n      tag_210\n      jump\t// in\n    tag_462:\n        /* \"#utility.yul\":23051:23091   */\n    tag_461:\n        /* \"#utility.yul\":23104:23109   */\n      pop\n      jump(tag_453)\n        /* \"#utility.yul\":22842:23119   */\n    tag_456:\n      pop\n        /* \"#utility.yul\":23228:23230   */\n      0x20\n        /* \"#utility.yul\":23218:23226   */\n      dup4\n        /* \"#utility.yul\":23215:23231   */\n      lt\n        /* \"#utility.yul\":23209:23212   */\n      0x0133\n        /* \"#utility.yul\":23203:23207   */\n      dup4\n        /* \"#utility.yul\":23200:23213   */\n      lt\n        /* \"#utility.yul\":23196:23232   */\n      and\n        /* \"#utility.yul\":23178:23180   */\n      0x4e\n        /* \"#utility.yul\":23168:23176   */\n      dup5\n        /* \"#utility.yul\":23165:23181   */\n      lt\n        /* \"#utility.yul\":23160:23162   */\n      0x0b\n        /* \"#utility.yul\":23154:23158   */\n      dup5\n        /* \"#utility.yul\":23151:23163   */\n      lt\n        /* \"#utility.yul\":23147:23182   */\n      and\n        /* \"#utility.yul\":23131:23242   */\n      or\n        /* \"#utility.yul\":23128:23374   */\n      iszero\n      tag_463\n      jumpi\n        /* \"#utility.yul\":23284:23292   */\n      dup3\n        /* \"#utility.yul\":23278:23282   */\n      dup3\n        /* \"#utility.yul\":23274:23293   */\n      exp\n        /* \"#utility.yul\":23265:23293   */\n      swap1\n      pop\n        /* \"#utility.yul\":23319:23322   */\n      dup4\n        /* \"#utility.yul\":23312:23317   */\n      dup2\n        /* \"#utility.yul\":23309:23323   */\n      gt\n        /* \"#utility.yul\":23306:23346   */\n      iszero\n      tag_464\n      jumpi\n        /* \"#utility.yul\":23326:23344   */\n      tag_465\n      tag_210\n      jump\t// in\n    tag_465:\n        /* \"#utility.yul\":23306:23346   */\n    tag_464:\n        /* \"#utility.yul\":23359:23364   */\n      jump(tag_453)\n        /* \"#utility.yul\":23128:23374   */\n    tag_463:\n        /* \"#utility.yul\":23399:23441   */\n      tag_466\n        /* \"#utility.yul\":23437:23440   */\n      dup5\n        /* \"#utility.yul\":23427:23435   */\n      dup5\n        /* \"#utility.yul\":23421:23425   */\n      dup5\n        /* \"#utility.yul\":23418:23419   */\n      0x01\n        /* \"#utility.yul\":23399:23441   */\n      tag_221\n      jump\t// in\n    tag_466:\n        /* \"#utility.yul\":23384:23441   */\n      swap3\n      pop\n      swap1\n      pop\n        /* \"#utility.yul\":23473:23477   */\n      dup2\n        /* \"#utility.yul\":23468:23471   */\n      dup5\n        /* \"#utility.yul\":23464:23478   */\n      div\n        /* \"#utility.yul\":23457:23462   */\n      dup2\n        /* \"#utility.yul\":23454:23479   */\n      gt\n        /* \"#utility.yul\":23451:23502   */\n      iszero\n      tag_467\n      jumpi\n        /* \"#utility.yul\":23482:23500   */\n      tag_468\n      tag_210\n      jump\t// in\n    tag_468:\n        /* \"#utility.yul\":23451:23502   */\n    tag_467:\n        /* \"#utility.yul\":23531:23535   */\n      dup2\n        /* \"#utility.yul\":23524:23529   */\n      dup2\n        /* \"#utility.yul\":23520:23536   */\n      mul\n        /* \"#utility.yul\":23511:23536   */\n      swap1\n      pop\n        /* \"#utility.yul\":22469:23542   */\n    tag_453:\n      swap4\n      swap3\n      pop\n      pop\n      pop\n      jump\t// out\n        /* \"#utility.yul\":23548:23833   */\n    tag_149:\n        /* \"#utility.yul\":23608:23613   */\n      0x00\n        /* \"#utility.yul\":23632:23655   */\n      tag_470\n        /* \"#utility.yul\":23650:23654   */\n      dup3\n        /* \"#utility.yul\":23632:23655   */\n      tag_175\n      jump\t// in\n    tag_470:\n        /* \"#utility.yul\":23624:23655   */\n      swap2\n      pop\n        /* \"#utility.yul\":23676:23703   */\n      tag_471\n        /* \"#utility.yul\":23694:23702   */\n      dup4\n        /* \"#utility.yul\":23676:23703   */\n      tag_175\n      jump\t// in\n    tag_471:\n        /* \"#utility.yul\":23664:23703   */\n      swap3\n      pop\n        /* \"#utility.yul\":23722:23826   */\n      tag_472\n        /* \"#utility.yul\":23759:23825   */\n      0xffffffffffffffffffffffffffffffffffffffffffffffffffffffffffffffff\n        /* \"#utility.yul\":23749:23757   */\n      dup5\n        /* \"#utility.yul\":23743:23747   */\n      dup5\n        /* \"#utility.yul\":23722:23826   */\n      tag_222\n      jump\t// in\n    tag_472:\n        /* \"#utility.yul\":23713:23826   */\n      swap1\n      pop\n        /* \"#utility.yul\":23548:23833   */\n      swap3\n      swap2\n      pop\n      pop\n      jump\t// out\n        /* \"#utility.yul\":23839:24249   */\n    tag_151:\n        /* \"#utility.yul\":23879:23886   */\n      0x00\n        /* \"#utility.yul\":23902:23922   */\n      tag_474\n        /* \"#utility.yul\":23920:23921   */\n      dup3\n        /* \"#utility.yul\":23902:23922   */\n      tag_175\n      jump\t// in\n    tag_474:\n        /* \"#utility.yul\":23897:23922   */\n      swap2\n      pop\n        /* \"#utility.yul\":23936:23956   */\n      tag_475\n        /* \"#utility.yul\":23954:23955   */\n      dup4\n        /* \"#utility.yul\":23936:23956   */\n      tag_175\n      jump\t// in\n    tag_475:\n        /* \"#utility.yul\":23931:23956   */\n      swap3\n      pop\n        /* \"#utility.yul\":23991:23992   */\n      dup3\n        /* \"#utility.yul\":23988:23989   */\n      dup3\n        /* \"#utility.yul\":23984:23993   */\n      mul\n        /* \"#utility.yul\":24013:24043   */\n      tag_476\n        /* \"#utility.yul\":24031:24042   */\n      dup2\n        /* \"#utility.yul\":24013:24043   */\n      tag_175\n      jump\t// in\n    tag_476:\n        /* \"#utility.yul\":24002:24043   */\n      swap2\n      pop\n        /* \"#utility.yul\":24192:24193   */\n      dup3\n        /* \"#utility.yul\":24183:24190   */\n      dup3\n        /* \"#utility.yul\":24179:24194   */\n      div\n        /* \"#utility.yul\":24176:24177   */\n      dup5\n        /* \"#utility.yul\":24173:24195   */\n      eq\n        /* \"#utility.yul\":24153:24154   */\n      dup4\n        /* \"#utility.yul\":24146:24155   */\n      iszero\n        /* \"#utility.yul\":24126:24209   */\n      or\n        /* \"#utility.yul\":24103:24242   */\n      tag_477\n      jumpi\n        /* \"#utility.yul\":24222:24240   */\n      tag_478\n      tag_210\n      jump\t// in\n    tag_478:\n        /* \"#utility.yul\":24103:24242   */\n    tag_477:\n        /* \"#utility.yul\":23887:24249   */\n      pop\n        /* \"#utility.yul\":23839:24249   */\n      swap3\n      swap2\n      pop\n      pop\n      jump\t// out\n\n    auxdata: 0xa26469706673582212204c0c523df521832144e46e0ccbb670dba221f0bf027997fd54fe2cb5f6d1fd9864736f6c63430008160033\n}\n",
				"bytecode": {
					"linkReferences": {},
					"object": "608060405234801561000f575f80fd5b50611cb48061001d5f395ff3fe608060405234801561000f575f80fd5b5060043610610109575f3560e01c8063757a5543116100a0578063a2d5b0051161006f578063a2d5b005146102b7578063a9059cbb146102e7578063ca67280914610317578063e743a9de14610347578063eeb9635c1461036357610109565b8063757a55431461022f5780637f6a0ad61461023957806395d89b4114610269578063967d74511461028757610109565b806329db8b40116100dc57806329db8b4014610195578063313ce567146101c557806340c10f19146101e357806370a08231146101ff57610109565b806306fdde031461010d5780630904bacc1461012b57806318160ddd1461014757806319c82c5814610165575b5f80fd5b61011561036d565b6040516101229190611067565b60405180910390f35b610145600480360381019061014091906111c4565b6103a6565b005b61014f610533565b60405161015c9190611223565b60405180910390f35b61017f600480360381019061017a91906111c4565b61053b565b60405161018c9190611223565b60405180910390f35b6101af60048036038101906101aa9190611296565b610568565b6040516101bc9190611067565b60405180910390f35b6101cd610603565b6040516101da91906112dc565b60405180910390f35b6101fd60048036038101906101f8919061131f565b610608565b005b61021960048036038101906102149190611296565b6106db565b6040516102269190611223565b60405180910390f35b610237610721565b005b610253600480360381019061024e91906111c4565b610a6e565b604051610260919061136c565b60405180910390f35b610271610ab6565b60405161027e9190611067565b60405180910390f35b6102a1600480360381019061029c9190611296565b610aef565b6040516102ae9190611223565b60405180910390f35b6102d160048036038101906102cc9190611296565b610b04565b6040516102de9190611223565b60405180910390f35b61030160048036038101906102fc919061131f565b610b19565b60405161030e919061139f565b60405180910390f35b610331600480360381019061032c91906111c4565b610caf565b60405161033e919061136c565b60405180910390f35b610361600480360381019061035c91906113b8565b610cf5565b005b61036b610e23565b005b6040518060400160405280600981526020017f4e595544546f6b656e000000000000000000000000000000000000000000000081525081565b5f6003826040516103b7919061144c565b90815260200160405180910390205490505f811161040a576040517f08c379a0000000000000000000000000000000000000000000000000000000008152600401610401906114ac565b60405180910390fd5b80610414336106db565b1015610455576040517f08c379a000000000000000000000000000000000000000000000000000000000815260040161044c90611514565b60405180910390fd5b610460333083610e4d565b8060045f3373ffffffffffffffffffffffffffffffffffffffff1673ffffffffffffffffffffffffffffffffffffffff1681526020019081526020015f20819055504260055f3373ffffffffffffffffffffffffffffffffffffffff1673ffffffffffffffffffffffffffffffffffffffff1681526020019081526020015f20819055508160065f3373ffffffffffffffffffffffffffffffffffffffff1673ffffffffffffffffffffffffffffffffffffffff1681526020019081526020015f20908161052e919061172c565b505050565b5f8054905090565b6003818051602081018201805184825260208301602085012081835280955050505050505f915090505481565b6006602052805f5260405f205f9150905080546105849061155f565b80601f01602080910402602001604051908101604052809291908181526020018280546105b09061155f565b80156105fb5780601f106105d2576101008083540402835291602001916105fb565b820191905f5260205f20905b8154815290600101906020018083116105de57829003601f168201915b505050505081565b601281565b805f808282546106189190611828565b925050819055508060015f8473ffffffffffffffffffffffffffffffffffffffff1673ffffffffffffffffffffffffffffffffffffffff1681526020019081526020015f205f82825461066b9190611828565b925050819055508173ffffffffffffffffffffffffffffffffffffffff165f73ffffffffffffffffffffffffffffffffffffffff167fddf252ad1be2c89b69c2b068fc378daa952ba7f163c4a11628f55a4df523b3ef836040516106cf9190611223565b60405180910390a35050565b5f60015f8373ffffffffffffffffffffffffffffffffffffffff1673ffffffffffffffffffffffffffffffffffffffff1681526020019081526020015f20549050919050565b5f60045f3373ffffffffffffffffffffffffffffffffffffffff1673ffffffffffffffffffffffffffffffffffffffff1681526020019081526020015f2054116107a0576040517f08c379a0000000000000000000000000000000000000000000000000000000008152600401610797906118a5565b60405180910390fd5b603c60055f3373ffffffffffffffffffffffffffffffffffffffff1673ffffffffffffffffffffffffffffffffffffffff1681526020019081526020015f20546107ea9190611828565b42101561082c576040517f08c379a00000000000000000000000000000000000000000000000000000000081526004016108239061190d565b60405180910390fd5b5f600260065f3373ffffffffffffffffffffffffffffffffffffffff1673ffffffffffffffffffffffffffffffffffffffff1681526020019081526020015f2060405161087991906119ab565b90815260200160405180910390205f9054906101000a900473ffffffffffffffffffffffffffffffffffffffff1690505f60045f3373ffffffffffffffffffffffffffffffffffffffff1673ffffffffffffffffffffffffffffffffffffffff1681526020019081526020015f2054905033600260065f3373ffffffffffffffffffffffffffffffffffffffff1673ffffffffffffffffffffffffffffffffffffffff1681526020019081526020015f2060405161093791906119ab565b90815260200160405180910390205f6101000a81548173ffffffffffffffffffffffffffffffffffffffff021916908373ffffffffffffffffffffffffffffffffffffffff1602179055505f60045f3373ffffffffffffffffffffffffffffffffffffffff1673ffffffffffffffffffffffffffffffffffffffff1681526020019081526020015f20819055505f60055f3373ffffffffffffffffffffffffffffffffffffffff1673ffffffffffffffffffffffffffffffffffffffff1681526020019081526020015f208190555060405180602001604052805f81525060065f3373ffffffffffffffffffffffffffffffffffffffff1673ffffffffffffffffffffffffffffffffffffffff1681526020019081526020015f209081610a5e919061172c565b50610a6a308383610e4d565b5050565b6002818051602081018201805184825260208301602085012081835280955050505050505f915054906101000a900473ffffffffffffffffffffffffffffffffffffffff1681565b6040518060400160405280600481526020017f4e5955440000000000000000000000000000000000000000000000000000000081525081565b6005602052805f5260405f205f915090505481565b6004602052805f5260405f205f915090505481565b5f8160015f3373ffffffffffffffffffffffffffffffffffffffff1673ffffffffffffffffffffffffffffffffffffffff1681526020019081526020015f20541015610b9a576040517f08c379a0000000000000000000000000000000000000000000000000000000008152600401610b9190611a0b565b60405180910390fd5b8160015f3373ffffffffffffffffffffffffffffffffffffffff1673ffffffffffffffffffffffffffffffffffffffff1681526020019081526020015f205f828254610be69190611a29565b925050819055508160015f8573ffffffffffffffffffffffffffffffffffffffff1673ffffffffffffffffffffffffffffffffffffffff1681526020019081526020015f205f828254610c399190611828565b925050819055508273ffffffffffffffffffffffffffffffffffffffff163373ffffffffffffffffffffffffffffffffffffffff167fddf252ad1be2c89b69c2b068fc378daa952ba7f163c4a11628f55a4df523b3ef84604051610c9d9190611223565b60405180910390a36001905092915050565b5f600282604051610cc0919061144c565b90815260200160405180910390205f9054906101000a900473ffffffffffffffffffffffffffffffffffffffff169050919050565b5f73ffffffffffffffffffffffffffffffffffffffff16600283604051610d1c919061144c565b90815260200160405180910390205f9054906101000a900473ffffffffffffffffffffffffffffffffffffffff1673ffffffffffffffffffffffffffffffffffffffff1614610da0576040517f08c379a0000000000000000000000000000000000000000000000000000000008152600401610d9790611aa6565b60405180910390fd5b33600283604051610db1919061144c565b90815260200160405180910390205f6101000a81548173ffffffffffffffffffffffffffffffffffffffff021916908373ffffffffffffffffffffffffffffffffffffffff16021790555080600383604051610e0d919061144c565b9081526020016040518091039020819055505050565b610e4b33601260ff16600a610e389190611bf3565b620f4240610e469190611c3d565b610608565b565b8060015f8573ffffffffffffffffffffffffffffffffffffffff1673ffffffffffffffffffffffffffffffffffffffff1681526020019081526020015f20541015610ecd576040517f08c379a0000000000000000000000000000000000000000000000000000000008152600401610ec490611a0b565b60405180910390fd5b8060015f8573ffffffffffffffffffffffffffffffffffffffff1673ffffffffffffffffffffffffffffffffffffffff1681526020019081526020015f205f828254610f199190611a29565b925050819055508060015f8473ffffffffffffffffffffffffffffffffffffffff1673ffffffffffffffffffffffffffffffffffffffff1681526020019081526020015f205f828254610f6c9190611828565b925050819055508173ffffffffffffffffffffffffffffffffffffffff168373ffffffffffffffffffffffffffffffffffffffff167fddf252ad1be2c89b69c2b068fc378daa952ba7f163c4a11628f55a4df523b3ef83604051610fd09190611223565b60405180910390a3505050565b5f81519050919050565b5f82825260208201905092915050565b5f5b83811015611014578082015181840152602081019050610ff9565b5f8484015250505050565b5f601f19601f8301169050919050565b5f61103982610fdd565b6110438185610fe7565b9350611053818560208601610ff7565b61105c8161101f565b840191505092915050565b5f6020820190508181035f83015261107f818461102f565b905092915050565b5f604051905090565b5f80fd5b5f80fd5b5f80fd5b5f80fd5b7f4e487b71000000000000000000000000000000000000000000000000000000005f52604160045260245ffd5b6110d68261101f565b810181811067ffffffffffffffff821117156110f5576110f46110a0565b5b80604052505050565b5f611107611087565b905061111382826110cd565b919050565b5f67ffffffffffffffff821115611132576111316110a0565b5b61113b8261101f565b9050602081019050919050565b828183375f83830152505050565b5f61116861116384611118565b6110fe565b9050828152602081018484840111156111845761118361109c565b5b61118f848285611148565b509392505050565b5f82601f8301126111ab576111aa611098565b5b81356111bb848260208601611156565b91505092915050565b5f602082840312156111d9576111d8611090565b5b5f82013567ffffffffffffffff8111156111f6576111f5611094565b5b61120284828501611197565b91505092915050565b5f819050919050565b61121d8161120b565b82525050565b5f6020820190506112365f830184611214565b92915050565b5f73ffffffffffffffffffffffffffffffffffffffff82169050919050565b5f6112658261123c565b9050919050565b6112758161125b565b811461127f575f80fd5b50565b5f813590506112908161126c565b92915050565b5f602082840312156112ab576112aa611090565b5b5f6112b884828501611282565b91505092915050565b5f60ff82169050919050565b6112d6816112c1565b82525050565b5f6020820190506112ef5f8301846112cd565b92915050565b6112fe8161120b565b8114611308575f80fd5b50565b5f81359050611319816112f5565b92915050565b5f806040838503121561133557611334611090565b5b5f61134285828601611282565b92505060206113538582860161130b565b9150509250929050565b6113668161125b565b82525050565b5f60208201905061137f5f83018461135d565b92915050565b5f8115159050919050565b61139981611385565b82525050565b5f6020820190506113b25f830184611390565b92915050565b5f80604083850312156113ce576113cd611090565b5b5f83013567ffffffffffffffff8111156113eb576113ea611094565b5b6113f785828601611197565b92505060206114088582860161130b565b9150509250929050565b5f81905092915050565b5f61142682610fdd565b6114308185611412565b9350611440818560208601610ff7565b80840191505092915050565b5f611457828461141c565b915081905092915050565b7f50726f7065727479206e6f7420666f722073616c6500000000000000000000005f82015250565b5f611496601583610fe7565b91506114a182611462565b602082019050919050565b5f6020820190508181035f8301526114c38161148a565b9050919050565b7f496e73756666696369656e7420746f6b656e2062616c616e63650000000000005f82015250565b5f6114fe601a83610fe7565b9150611509826114ca565b602082019050919050565b5f6020820190508181035f83015261152b816114f2565b9050919050565b7f4e487b71000000000000000000000000000000000000000000000000000000005f52602260045260245ffd5b5f600282049050600182168061157657607f821691505b60208210810361158957611588611532565b5b50919050565b5f819050815f5260205f209050919050565b5f6020601f8301049050919050565b5f82821b905092915050565b5f600883026115eb7fffffffffffffffffffffffffffffffffffffffffffffffffffffffffffffffff826115b0565b6115f586836115b0565b95508019841693508086168417925050509392505050565b5f819050919050565b5f61163061162b6116268461120b565b61160d565b61120b565b9050919050565b5f819050919050565b61164983611616565b61165d61165582611637565b8484546115bc565b825550505050565b5f90565b611671611665565b61167c818484611640565b505050565b5b8181101561169f576116945f82611669565b600181019050611682565b5050565b601f8211156116e4576116b58161158f565b6116be846115a1565b810160208510156116cd578190505b6116e16116d9856115a1565b830182611681565b50505b505050565b5f82821c905092915050565b5f6117045f19846008026116e9565b1980831691505092915050565b5f61171c83836116f5565b9150826002028217905092915050565b61173582610fdd565b67ffffffffffffffff81111561174e5761174d6110a0565b5b611758825461155f565b6117638282856116a3565b5f60209050601f831160018114611794575f8415611782578287015190505b61178c8582611711565b8655506117f3565b601f1984166117a28661158f565b5f5b828110156117c9578489015182556001820191506020850194506020810190506117a4565b868310156117e657848901516117e2601f8916826116f5565b8355505b6001600288020188555050505b505050505050565b7f4e487b71000000000000000000000000000000000000000000000000000000005f52601160045260245ffd5b5f6118328261120b565b915061183d8361120b565b9250828201905080821115611855576118546117fb565b5b92915050565b7f4e6f20657363726f77206465706f73697420666f756e640000000000000000005f82015250565b5f61188f601783610fe7565b915061189a8261185b565b602082019050919050565b5f6020820190508181035f8301526118bc81611883565b9050919050565b7f457363726f7720706572696f64206e6f742079657420656c61707365640000005f82015250565b5f6118f7601d83610fe7565b9150611902826118c3565b602082019050919050565b5f6020820190508181035f830152611924816118eb565b9050919050565b5f81546119378161155f565b6119418186611412565b9450600182165f811461195b5760018114611970576119a2565b60ff19831686528115158202860193506119a2565b6119798561158f565b5f5b8381101561199a5781548189015260018201915060208101905061197b565b838801955050505b50505092915050565b5f6119b6828461192b565b915081905092915050565b7f496e73756666696369656e742062616c616e63650000000000000000000000005f82015250565b5f6119f5601483610fe7565b9150611a00826119c1565b602082019050919050565b5f6020820190508181035f830152611a22816119e9565b9050919050565b5f611a338261120b565b9150611a3e8361120b565b9250828203905081811115611a5657611a556117fb565b5b92915050565b7f4861736820616c726561647920726567697374657265640000000000000000005f82015250565b5f611a90601783610fe7565b9150611a9b82611a5c565b602082019050919050565b5f6020820190508181035f830152611abd81611a84565b9050919050565b5f8160011c9050919050565b5f808291508390505b6001851115611b1957808604811115611af557611af46117fb565b5b6001851615611b045780820291505b8081029050611b1285611ac4565b9450611ad9565b94509492505050565b5f82611b315760019050611bec565b81611b3e575f9050611bec565b8160018114611b545760028114611b5e57611b8d565b6001915050611bec565b60ff841115611b7057611b6f6117fb565b5b8360020a915084821115611b8757611b866117fb565b5b50611bec565b5060208310610133831016604e8410600b8410161715611bc25782820a905083811115611bbd57611bbc6117fb565b5b611bec565b611bcf8484846001611ad0565b92509050818404811115611be657611be56117fb565b5b81810290505b9392505050565b5f611bfd8261120b565b9150611c088361120b565b9250611c357fffffffffffffffffffffffffffffffffffffffffffffffffffffffffffffffff8484611b22565b905092915050565b5f611c478261120b565b9150611c528361120b565b9250828202611c608161120b565b91508282048414831517611c7757611c766117fb565b5b509291505056fea26469706673582212204c0c523df521832144e46e0ccbb670dba221f0bf027997fd54fe2cb5f6d1fd9864736f6c63430008160033",
					"opcodes": "PUSH1 0x80 PUSH1 0x40 MSTORE CALLVALUE DUP1 ISZERO PUSH2 0xF JUMPI PUSH0 DUP1 REVERT JUMPDEST POP PUSH2 0x1CB4 DUP1 PUSH2 0x1D PUSH0 CODECOPY PUSH0 RETURN INVALID PUSH1 0x80 PUSH1 0x40 MSTORE CALLVALUE DUP1 ISZERO PUSH2 0xF JUMPI PUSH0 DUP1 REVERT JUMPDEST POP PUSH1 0x4 CALLDATASIZE LT PUSH2 0x109 JUMPI PUSH0 CALLDATALOAD PUSH1 0xE0 SHR DUP1 PUSH4 0x757A5543 GT PUSH2 0xA0 JUMPI DUP1 PUSH4 0xA2D5B005 GT PUSH2 0x6F JUMPI DUP1 PUSH4 0xA2D5B005 EQ PUSH2 0x2B7 JUMPI DUP1 PUSH4 0xA9059CBB EQ PUSH2 0x2E7 JUMPI DUP1 PUSH4 0xCA672809 EQ PUSH2 0x317 JUMPI DUP1 PUSH4 0xE743A9DE EQ PUSH2 0x347 JUMPI DUP1 PUSH4 0xEEB9635C EQ PUSH2 0x363 JUMPI PUSH2 0x109 JUMP JUMPDEST DUP1 PUSH4 0x757A5543 EQ PUSH2 0x22F JUMPI DUP1 PUSH4 0x7F6A0AD6 EQ PUSH2 0x239 JUMPI DUP1 PUSH4 0x95D89B41 EQ PUSH2 0x269 JUMPI DUP1 PUSH4 0x967D7451 EQ PUSH2 0x287 JUMPI PUSH2 0x109 JUMP JUMPDEST DUP1 PUSH4 0x29DB8B40 GT PUSH2 0xDC JUMPI DUP1 PUSH4 0x29DB8B40 EQ PUSH2 0x195 JUMPI DUP1 PUSH4 0x313CE567 EQ PUSH2 0x1C5 JUMPI DUP1 PUSH4 0x40C10F19 EQ PUSH2 0x1E3 JUMPI DUP1 PUSH4 0x70A08231 EQ PUSH2 0x1FF JUMPI PUSH2 0x109 JUMP JUMPDEST DUP1 PUSH4 0x6FDDE03 EQ PUSH2 0x10D JUMPI DUP1 PUSH4 0x904BACC EQ PUSH2 0x12B JUMPI DUP1 PUSH4 0x18160DDD EQ PUSH2 0x147 JUMPI DUP1 PUSH4 0x19C82C58 EQ PUSH2 0x165 JUMPI JUMPDEST PUSH0 DUP1 REVERT JUMPDEST PUSH2 0x115 PUSH2 0x36D JUMP JUMPDEST PUSH1 0x40 MLOAD PUSH2 0x122 SWAP2 SWAP1 PUSH2 0x1067 JUMP JUMPDEST PUSH1 0x40 MLOAD DUP1 SWAP2 SUB SWAP1 RETURN JUMPDEST PUSH2 0x145 PUSH1 0x4 DUP1 CALLDATASIZE SUB DUP2 ADD SWAP1 PUSH2 0x140 SWAP2 SWAP1 PUSH2 0x11C4 JUMP JUMPDEST PUSH2 0x3A6 JUMP JUMPDEST STOP JUMPDEST PUSH2 0x14F PUSH2 0x533 JUMP JUMPDEST PUSH1 0x40 MLOAD PUSH2 0x15C SWAP2 SWAP1 PUSH2 0x1223 JUMP JUMPDEST PUSH1 0x40 MLOAD DUP1 SWAP2 SUB SWAP1 RETURN JUMPDEST PUSH2 0x17F PUSH1 0x4 DUP1 CALLDATASIZE SUB DUP2 ADD SWAP1 PUSH2 0x17A SWAP2 SWAP1 PUSH2 0x11C4 JUMP JUMPDEST PUSH2 0x53B JUMP JUMPDEST PUSH1 0x40 MLOAD PUSH2 0x18C SWAP2 SWAP1 PUSH2 0x1223 JUMP JUMPDEST PUSH1 0x40 MLOAD DUP1 SWAP2 SUB SWAP1 RETURN JUMPDEST PUSH2 0x1AF PUSH1 0x4 DUP1 CALLDATASIZE SUB DUP2 ADD SWAP1 PUSH2 0x1AA SWAP2 SWAP1 PUSH2 0x1296 JUMP JUMPDEST PUSH2 0x568 JUMP JUMPDEST PUSH1 0x40 MLOAD PUSH2 0x1BC SWAP2 SWAP1 PUSH2 0x1067 JUMP JUMPDEST PUSH1 0x40 MLOAD DUP1 SWAP2 SUB SWAP1 RETURN JUMPDEST PUSH2 0x1CD PUSH2 0x603 JUMP JUMPDEST PUSH1 0x40 MLOAD PUSH2 0x1DA SWAP2 SWAP1 PUSH2 0x12DC JUMP JUMPDEST PUSH1 0x40 MLOAD DUP1 SWAP2 SUB SWAP1 RETURN JUMPDEST PUSH2 0x1FD PUSH1 0x4 DUP1 CALLDATASIZE SUB DUP2 ADD SWAP1 PUSH2 0x1F8 SWAP2 SWAP1 PUSH2 0x131F JUMP JUMPDEST PUSH2 0x608 JUMP JUMPDEST STOP JUMPDEST PUSH2 0x219 PUSH1 0x4 DUP1 CALLDATASIZE SUB DUP2 ADD SWAP1 PUSH2 0x214 SWAP2 SWAP1 PUSH2 0x1296 JUMP JUMPDEST PUSH2 0x6DB JUMP JUMPDEST PUSH1 0x40 MLOAD PUSH2 0x226 SWAP2 SWAP1 PUSH2 0x1223 JUMP JUMPDEST PUSH1 0x40 MLOAD DUP1 SWAP2 SUB SWAP1 RETURN JUMPDEST PUSH2 0x237 PUSH2 0x721 JUMP JUMPDEST STOP JUMPDEST PUSH2 0x253 PUSH1 0x4 DUP1 CALLDATASIZE SUB DUP2 ADD SWAP1 PUSH2 0x24E SWAP2 SWAP1 PUSH2 0x11C4 JUMP JUMPDEST PUSH2 0xA6E JUMP JUMPDEST PUSH1 0x40 MLOAD PUSH2 0x260 SWAP2 SWAP1 PUSH2 0x136C JUMP JUMPDEST PUSH1 0x40 MLOAD DUP1 SWAP2 SUB SWAP1 RETURN JUMPDEST PUSH2 0x271 PUSH2 0xAB6 JUMP JUMPDEST PUSH1 0x40 MLOAD PUSH2 0x27E SWAP2 SWAP1 PUSH2 0x1067 JUMP JUMPDEST PUSH1 0x40 MLOAD DUP1 SWAP2 SUB SWAP1 RETURN JUMPDEST PUSH2 0x2A1 PUSH1 0x4 DUP1 CALLDATASIZE SUB DUP2 ADD SWAP1 PUSH2 0x29C SWAP2 SWAP1 PUSH2 0x1296 JUMP JUMPDEST PUSH2 0xAEF JUMP JUMPDEST PUSH1 0x40 MLOAD PUSH2 0x2AE SWAP2 SWAP1 PUSH2 0x1223 JUMP JUMPDEST PUSH1 0x40 MLOAD DUP1 SWAP2 SUB SWAP1 RETURN JUMPDEST PUSH2 0x2D1 PUSH1 0x4 DUP1 CALLDATASIZE SUB DUP2 ADD SWAP1 PUSH2 0x2CC SWAP2 SWAP1 PUSH2 0x1296 JUMP JUMPDEST PUSH2 0xB04 JUMP JUMPDEST PUSH1 0x40 MLOAD PUSH2 0x2DE SWAP2 SWAP1 PUSH2 0x1223 JUMP JUMPDEST PUSH1 0x40 MLOAD DUP1 SWAP2 SUB SWAP1 RETURN JUMPDEST PUSH2 0x301 PUSH1 0x4 DUP1 CALLDATASIZE SUB DUP2 ADD SWAP1 PUSH2 0x2FC SWAP2 SWAP1 PUSH2 0x131F JUMP JUMPDEST PUSH2 0xB19 JUMP JUMPDEST PUSH1 0x40 MLOAD PUSH2 0x30E SWAP2 SWAP1 PUSH2 0x139F JUMP JUMPDEST PUSH1 0x40 MLOAD DUP1 SWAP2 SUB SWAP1 RETURN JUMPDEST PUSH2 0x331 PUSH1 0x4 DUP1 CALLDATASIZE SUB DUP2 ADD SWAP1 PUSH2 0x32C SWAP2 SWAP1 PUSH2 0x11C4 JUMP JUMPDEST PUSH2 0xCAF JUMP JUMPDEST PUSH1 0x40 MLOAD PUSH2 0x33E SWAP2 SWAP1 PUSH2 0x136C JUMP JUMPDEST PUSH1 0x40 MLOAD DUP1 SWAP2 SUB SWAP1 RETURN JUMPDEST PUSH2 0x361 PUSH1 0x4 DUP1 CALLDATASIZE SUB DUP2 ADD SWAP1 PUSH2 0x35C SWAP2 SWAP1 PUSH2 0x13B8 JUMP JUMPDEST PUSH2 0xCF5 JUMP JUMPDEST STOP JUMPDEST PUSH2 0x36B PUSH2 0xE23 JUMP JUMPDEST STOP JUMPDEST PUSH1 0x40 MLOAD DUP1 PUSH1 0x40 ADD PUSH1 0x40 MSTORE DUP1 PUSH1 0x9 DUP2 MSTORE PUSH1 0x20 ADD PUSH32 0x4E595544546F6B656E0000000000000000000000000000000000000000000000 DUP2 MSTORE POP DUP2 JUMP JUMPDEST PUSH0 PUSH1 0x3 DUP3 PUSH1 0x40 MLOAD PUSH2 0x3B7 SWAP2 SWAP1 PUSH2 0x144C JUMP JUMPDEST SWAP1 DUP2 MSTORE PUSH1 0x20 ADD PUSH1 0x40 MLOAD DUP1 SWAP2 SUB SWAP1 KECCAK256 SLOAD SWAP1 POP PUSH0 DUP2 GT PUSH2 0x40A JUMPI PUSH1 0x40 MLOAD PUSH32 0x8C379A000000000000000000000000000000000000000000000000000000000 DUP2 MSTORE PUSH1 0x4 ADD PUSH2 0x401 SWAP1 PUSH2 0x14AC JUMP JUMPDEST PUSH1 0x40 MLOAD DUP1 SWAP2 SUB SWAP1 REVERT JUMPDEST DUP1 PUSH2 0x414 CALLER PUSH2 0x6DB JUMP JUMPDEST LT ISZERO PUSH2 0x455 JUMPI PUSH1 0x40 MLOAD PUSH32 0x8C379A000000000000000000000000000000000000000000000000000000000 DUP2 MSTORE PUSH1 0x4 ADD PUSH2 0x44C SWAP1 PUSH2 0x1514 JUMP JUMPDEST PUSH1 0x40 MLOAD DUP1 SWAP2 SUB SWAP1 REVERT JUMPDEST PUSH2 0x460 CALLER ADDRESS DUP4 PUSH2 0xE4D JUMP JUMPDEST DUP1 PUSH1 0x4 PUSH0 CALLER PUSH20 0xFFFFFFFFFFFFFFFFFFFFFFFFFFFFFFFFFFFFFFFF AND PUSH20 0xFFFFFFFFFFFFFFFFFFFFFFFFFFFFFFFFFFFFFFFF AND DUP2 MSTORE PUSH1 0x20 ADD SWAP1 DUP2 MSTORE PUSH1 0x20 ADD PUSH0 KECCAK256 DUP2 SWAP1 SSTORE POP TIMESTAMP PUSH1 0x5 PUSH0 CALLER PUSH20 0xFFFFFFFFFFFFFFFFFFFFFFFFFFFFFFFFFFFFFFFF AND PUSH20 0xFFFFFFFFFFFFFFFFFFFFFFFFFFFFFFFFFFFFFFFF AND DUP2 MSTORE PUSH1 0x20 ADD SWAP1 DUP2 MSTORE PUSH1 0x20 ADD PUSH0 KECCAK256 DUP2 SWAP1 SSTORE POP DUP2 PUSH1 0x6 PUSH0 CALLER PUSH20 0xFFFFFFFFFFFFFFFFFFFFFFFFFFFFFFFFFFFFFFFF AND PUSH20 0xFFFFFFFFFFFFFFFFFFFFFFFFFFFFFFFFFFFFFFFF AND DUP2 MSTORE PUSH1 0x20 ADD SWAP1 DUP2 MSTORE PUSH1 0x20 ADD PUSH0 KECCAK256 SWAP1 DUP2 PUSH2 0x52E SWAP2 SWAP1 PUSH2 0x172C JUMP JUMPDEST POP POP POP JUMP JUMPDEST PUSH0 DUP1 SLOAD SWAP1 POP SWAP1 JUMP JUMPDEST PUSH1 0x3 DUP2 DUP1 MLOAD PUSH1 0x20 DUP2 ADD DUP3 ADD DUP1 MLOAD DUP5 DUP3 MSTORE PUSH1 0x20 DUP4 ADD PUSH1 0x20 DUP6 ADD KECCAK256 DUP2 DUP4 MSTORE DUP1 SWAP6 POP POP POP POP POP POP PUSH0 SWAP2 POP SWAP1 POP SLOAD DUP2 JUMP JUMPDEST PUSH1 0x6 PUSH1 0x20 MSTORE DUP1 PUSH0 MSTORE PUSH1 0x40 PUSH0 KECCAK256 PUSH0 SWAP2 POP SWAP1 POP DUP1 SLOAD PUSH2 0x584 SWAP1 PUSH2 0x155F JUMP JUMPDEST DUP1 PUSH1 0x1F ADD PUSH1 0x20 DUP1 SWAP2 DIV MUL PUSH1 0x20 ADD PUSH1 0x40 MLOAD SWAP1 DUP2 ADD PUSH1 0x40 MSTORE DUP1 SWAP3 SWAP2 SWAP1 DUP2 DUP2 MSTORE PUSH1 0x20 ADD DUP3 DUP1 SLOAD PUSH2 0x5B0 SWAP1 PUSH2 0x155F JUMP JUMPDEST DUP1 ISZERO PUSH2 0x5FB JUMPI DUP1 PUSH1 0x1F LT PUSH2 0x5D2 JUMPI PUSH2 0x100 DUP1 DUP4 SLOAD DIV MUL DUP4 MSTORE SWAP2 PUSH1 0x20 ADD SWAP2 PUSH2 0x5FB JUMP JUMPDEST DUP3 ADD SWAP2 SWAP1 PUSH0 MSTORE PUSH1 0x20 PUSH0 KECCAK256 SWAP1 JUMPDEST DUP2 SLOAD DUP2 MSTORE SWAP1 PUSH1 0x1 ADD SWAP1 PUSH1 0x20 ADD DUP1 DUP4 GT PUSH2 0x5DE JUMPI DUP3 SWAP1 SUB PUSH1 0x1F AND DUP3 ADD SWAP2 JUMPDEST POP POP POP POP POP DUP2 JUMP JUMPDEST PUSH1 0x12 DUP2 JUMP JUMPDEST DUP1 PUSH0 DUP1 DUP3 DUP3 SLOAD PUSH2 0x618 SWAP2 SWAP1 PUSH2 0x1828 JUMP JUMPDEST SWAP3 POP POP DUP2 SWAP1 SSTORE POP DUP1 PUSH1 0x1 PUSH0 DUP5 PUSH20 0xFFFFFFFFFFFFFFFFFFFFFFFFFFFFFFFFFFFFFFFF AND PUSH20 0xFFFFFFFFFFFFFFFFFFFFFFFFFFFFFFFFFFFFFFFF AND DUP2 MSTORE PUSH1 0x20 ADD SWAP1 DUP2 MSTORE PUSH1 0x20 ADD PUSH0 KECCAK256 PUSH0 DUP3 DUP3 SLOAD PUSH2 0x66B SWAP2 SWAP1 PUSH2 0x1828 JUMP JUMPDEST SWAP3 POP POP DUP2 SWAP1 SSTORE POP DUP2 PUSH20 0xFFFFFFFFFFFFFFFFFFFFFFFFFFFFFFFFFFFFFFFF AND PUSH0 PUSH20 0xFFFFFFFFFFFFFFFFFFFFFFFFFFFFFFFFFFFFFFFF AND PUSH32 0xDDF252AD1BE2C89B69C2B068FC378DAA952BA7F163C4A11628F55A4DF523B3EF DUP4 PUSH1 0x40 MLOAD PUSH2 0x6CF SWAP2 SWAP1 PUSH2 0x1223 JUMP JUMPDEST PUSH1 0x40 MLOAD DUP1 SWAP2 SUB SWAP1 LOG3 POP POP JUMP JUMPDEST PUSH0 PUSH1 0x1 PUSH0 DUP4 PUSH20 0xFFFFFFFFFFFFFFFFFFFFFFFFFFFFFFFFFFFFFFFF AND PUSH20 0xFFFFFFFFFFFFFFFFFFFFFFFFFFFFFFFFFFFFFFFF AND DUP2 MSTORE PUSH1 0x20 ADD SWAP1 DUP2 MSTORE PUSH1 0x20 ADD PUSH0 KECCAK256 SLOAD SWAP1 POP SWAP2 SWAP1 POP JUMP JUMPDEST PUSH0 PUSH1 0x4 PUSH0 CALLER PUSH20 0xFFFFFFFFFFFFFFFFFFFFFFFFFFFFFFFFFFFFFFFF AND PUSH20 0xFFFFFFFFFFFFFFFFFFFFFFFFFFFFFFFFFFFFFFFF AND DUP2 MSTORE PUSH1 0x20 ADD SWAP1 DUP2 MSTORE PUSH1 0x20 ADD PUSH0 KECCAK256 SLOAD GT PUSH2 0x7A0 JUMPI PUSH1 0x40 MLOAD PUSH32 0x8C379A000000000000000000000000000000000000000000000000000000000 DUP2 MSTORE PUSH1 0x4 ADD PUSH2 0x797 SWAP1 PUSH2 0x18A5 JUMP JUMPDEST PUSH1 0x40 MLOAD DUP1 SWAP2 SUB SWAP1 REVERT JUMPDEST PUSH1 0x3C PUSH1 0x5 PUSH0 CALLER PUSH20 0xFFFFFFFFFFFFFFFFFFFFFFFFFFFFFFFFFFFFFFFF AND PUSH20 0xFFFFFFFFFFFFFFFFFFFFFFFFFFFFFFFFFFFFFFFF AND DUP2 MSTORE PUSH1 0x20 ADD SWAP1 DUP2 MSTORE PUSH1 0x20 ADD PUSH0 KECCAK256 SLOAD PUSH2 0x7EA SWAP2 SWAP1 PUSH2 0x1828 JUMP JUMPDEST TIMESTAMP LT ISZERO PUSH2 0x82C JUMPI PUSH1 0x40 MLOAD PUSH32 0x8C379A000000000000000000000000000000000000000000000000000000000 DUP2 MSTORE PUSH1 0x4 ADD PUSH2 0x823 SWAP1 PUSH2 0x190D JUMP JUMPDEST PUSH1 0x40 MLOAD DUP1 SWAP2 SUB SWAP1 REVERT JUMPDEST PUSH0 PUSH1 0x2 PUSH1 0x6 PUSH0 CALLER PUSH20 0xFFFFFFFFFFFFFFFFFFFFFFFFFFFFFFFFFFFFFFFF AND PUSH20 0xFFFFFFFFFFFFFFFFFFFFFFFFFFFFFFFFFFFFFFFF AND DUP2 MSTORE PUSH1 0x20 ADD SWAP1 DUP2 MSTORE PUSH1 0x20 ADD PUSH0 KECCAK256 PUSH1 0x40 MLOAD PUSH2 0x879 SWAP2 SWAP1 PUSH2 0x19AB JUMP JUMPDEST SWAP1 DUP2 MSTORE PUSH1 0x20 ADD PUSH1 0x40 MLOAD DUP1 SWAP2 SUB SWAP1 KECCAK256 PUSH0 SWAP1 SLOAD SWAP1 PUSH2 0x100 EXP SWAP1 DIV PUSH20 0xFFFFFFFFFFFFFFFFFFFFFFFFFFFFFFFFFFFFFFFF AND SWAP1 POP PUSH0 PUSH1 0x4 PUSH0 CALLER PUSH20 0xFFFFFFFFFFFFFFFFFFFFFFFFFFFFFFFFFFFFFFFF AND PUSH20 0xFFFFFFFFFFFFFFFFFFFFFFFFFFFFFFFFFFFFFFFF AND DUP2 MSTORE PUSH1 0x20 ADD SWAP1 DUP2 MSTORE PUSH1 0x20 ADD PUSH0 KECCAK256 SLOAD SWAP1 POP CALLER PUSH1 0x2 PUSH1 0x6 PUSH0 CALLER PUSH20 0xFFFFFFFFFFFFFFFFFFFFFFFFFFFFFFFFFFFFFFFF AND PUSH20 0xFFFFFFFFFFFFFFFFFFFFFFFFFFFFFFFFFFFFFFFF AND DUP2 MSTORE PUSH1 0x20 ADD SWAP1 DUP2 MSTORE PUSH1 0x20 ADD PUSH0 KECCAK256 PUSH1 0x40 MLOAD PUSH2 0x937 SWAP2 SWAP1 PUSH2 0x19AB JUMP JUMPDEST SWAP1 DUP2 MSTORE PUSH1 0x20 ADD PUSH1 0x40 MLOAD DUP1 SWAP2 SUB SWAP1 KECCAK256 PUSH0 PUSH2 0x100 EXP DUP2 SLOAD DUP2 PUSH20 0xFFFFFFFFFFFFFFFFFFFFFFFFFFFFFFFFFFFFFFFF MUL NOT AND SWAP1 DUP4 PUSH20 0xFFFFFFFFFFFFFFFFFFFFFFFFFFFFFFFFFFFFFFFF AND MUL OR SWAP1 SSTORE POP PUSH0 PUSH1 0x4 PUSH0 CALLER PUSH20 0xFFFFFFFFFFFFFFFFFFFFFFFFFFFFFFFFFFFFFFFF AND PUSH20 0xFFFFFFFFFFFFFFFFFFFFFFFFFFFFFFFFFFFFFFFF AND DUP2 MSTORE PUSH1 0x20 ADD SWAP1 DUP2 MSTORE PUSH1 0x20 ADD PUSH0 KECCAK256 DUP2 SWAP1 SSTORE POP PUSH0 PUSH1 0x5 PUSH0 CALLER PUSH20 0xFFFFFFFFFFFFFFFFFFFFFFFFFFFFFFFFFFFFFFFF AND PUSH20 0xFFFFFFFFFFFFFFFFFFFFFFFFFFFFFFFFFFFFFFFF AND DUP2 MSTORE PUSH1 0x20 ADD SWAP1 DUP2 MSTORE PUSH1 0x20 ADD PUSH0 KECCAK256 DUP2 SWAP1 SSTORE POP PUSH1 0x40 MLOAD DUP1 PUSH1 0x20 ADD PUSH1 0x40 MSTORE DUP1 PUSH0 DUP2 MSTORE POP PUSH1 0x6 PUSH0 CALLER PUSH20 0xFFFFFFFFFFFFFFFFFFFFFFFFFFFFFFFFFFFFFFFF AND PUSH20 0xFFFFFFFFFFFFFFFFFFFFFFFFFFFFFFFFFFFFFFFF AND DUP2 MSTORE PUSH1 0x20 ADD SWAP1 DUP2 MSTORE PUSH1 0x20 ADD PUSH0 KECCAK256 SWAP1 DUP2 PUSH2 0xA5E SWAP2 SWAP1 PUSH2 0x172C JUMP JUMPDEST POP PUSH2 0xA6A ADDRESS DUP4 DUP4 PUSH2 0xE4D JUMP JUMPDEST POP POP JUMP JUMPDEST PUSH1 0x2 DUP2 DUP1 MLOAD PUSH1 0x20 DUP2 ADD DUP3 ADD DUP1 MLOAD DUP5 DUP3 MSTORE PUSH1 0x20 DUP4 ADD PUSH1 0x20 DUP6 ADD KECCAK256 DUP2 DUP4 MSTORE DUP1 SWAP6 POP POP POP POP POP POP PUSH0 SWAP2 POP SLOAD SWAP1 PUSH2 0x100 EXP SWAP1 DIV PUSH20 0xFFFFFFFFFFFFFFFFFFFFFFFFFFFFFFFFFFFFFFFF AND DUP2 JUMP JUMPDEST PUSH1 0x40 MLOAD DUP1 PUSH1 0x40 ADD PUSH1 0x40 MSTORE DUP1 PUSH1 0x4 DUP2 MSTORE PUSH1 0x20 ADD PUSH32 0x4E59554400000000000000000000000000000000000000000000000000000000 DUP2 MSTORE POP DUP2 JUMP JUMPDEST PUSH1 0x5 PUSH1 0x20 MSTORE DUP1 PUSH0 MSTORE PUSH1 0x40 PUSH0 KECCAK256 PUSH0 SWAP2 POP SWAP1 POP SLOAD DUP2 JUMP JUMPDEST PUSH1 0x4 PUSH1 0x20 MSTORE DUP1 PUSH0 MSTORE PUSH1 0x40 PUSH0 KECCAK256 PUSH0 SWAP2 POP SWAP1 POP SLOAD DUP2 JUMP JUMPDEST PUSH0 DUP2 PUSH1 0x1 PUSH0 CALLER PUSH20 0xFFFFFFFFFFFFFFFFFFFFFFFFFFFFFFFFFFFFFFFF AND PUSH20 0xFFFFFFFFFFFFFFFFFFFFFFFFFFFFFFFFFFFFFFFF AND DUP2 MSTORE PUSH1 0x20 ADD SWAP1 DUP2 MSTORE PUSH1 0x20 ADD PUSH0 KECCAK256 SLOAD LT ISZERO PUSH2 0xB9A JUMPI PUSH1 0x40 MLOAD PUSH32 0x8C379A000000000000000000000000000000000000000000000000000000000 DUP2 MSTORE PUSH1 0x4 ADD PUSH2 0xB91 SWAP1 PUSH2 0x1A0B JUMP JUMPDEST PUSH1 0x40 MLOAD DUP1 SWAP2 SUB SWAP1 REVERT JUMPDEST DUP2 PUSH1 0x1 PUSH0 CALLER PUSH20 0xFFFFFFFFFFFFFFFFFFFFFFFFFFFFFFFFFFFFFFFF AND PUSH20 0xFFFFFFFFFFFFFFFFFFFFFFFFFFFFFFFFFFFFFFFF AND DUP2 MSTORE PUSH1 0x20 ADD SWAP1 DUP2 MSTORE PUSH1 0x20 ADD PUSH0 KECCAK256 PUSH0 DUP3 DUP3 SLOAD PUSH2 0xBE6 SWAP2 SWAP1 PUSH2 0x1A29 JUMP JUMPDEST SWAP3 POP POP DUP2 SWAP1 SSTORE POP DUP2 PUSH1 0x1 PUSH0 DUP6 PUSH20 0xFFFFFFFFFFFFFFFFFFFFFFFFFFFFFFFFFFFFFFFF AND PUSH20 0xFFFFFFFFFFFFFFFFFFFFFFFFFFFFFFFFFFFFFFFF AND DUP2 MSTORE PUSH1 0x20 ADD SWAP1 DUP2 MSTORE PUSH1 0x20 ADD PUSH0 KECCAK256 PUSH0 DUP3 DUP3 SLOAD PUSH2 0xC39 SWAP2 SWAP1 PUSH2 0x1828 JUMP JUMPDEST SWAP3 POP POP DUP2 SWAP1 SSTORE POP DUP3 PUSH20 0xFFFFFFFFFFFFFFFFFFFFFFFFFFFFFFFFFFFFFFFF AND CALLER PUSH20 0xFFFFFFFFFFFFFFFFFFFFFFFFFFFFFFFFFFFFFFFF AND PUSH32 0xDDF252AD1BE2C89B69C2B068FC378DAA952BA7F163C4A11628F55A4DF523B3EF DUP5 PUSH1 0x40 MLOAD PUSH2 0xC9D SWAP2 SWAP1 PUSH2 0x1223 JUMP JUMPDEST PUSH1 0x40 MLOAD DUP1 SWAP2 SUB SWAP1 LOG3 PUSH1 0x1 SWAP1 POP SWAP3 SWAP2 POP POP JUMP JUMPDEST PUSH0 PUSH1 0x2 DUP3 PUSH1 0x40 MLOAD PUSH2 0xCC0 SWAP2 SWAP1 PUSH2 0x144C JUMP JUMPDEST SWAP1 DUP2 MSTORE PUSH1 0x20 ADD PUSH1 0x40 MLOAD DUP1 SWAP2 SUB SWAP1 KECCAK256 PUSH0 SWAP1 SLOAD SWAP1 PUSH2 0x100 EXP SWAP1 DIV PUSH20 0xFFFFFFFFFFFFFFFFFFFFFFFFFFFFFFFFFFFFFFFF AND SWAP1 POP SWAP2 SWAP1 POP JUMP JUMPDEST PUSH0 PUSH20 0xFFFFFFFFFFFFFFFFFFFFFFFFFFFFFFFFFFFFFFFF AND PUSH1 0x2 DUP4 PUSH1 0x40 MLOAD PUSH2 0xD1C SWAP2 SWAP1 PUSH2 0x144C JUMP JUMPDEST SWAP1 DUP2 MSTORE PUSH1 0x20 ADD PUSH1 0x40 MLOAD DUP1 SWAP2 SUB SWAP1 KECCAK256 PUSH0 SWAP1 SLOAD SWAP1 PUSH2 0x100 EXP SWAP1 DIV PUSH20 0xFFFFFFFFFFFFFFFFFFFFFFFFFFFFFFFFFFFFFFFF AND PUSH20 0xFFFFFFFFFFFFFFFFFFFFFFFFFFFFFFFFFFFFFFFF AND EQ PUSH2 0xDA0 JUMPI PUSH1 0x40 MLOAD PUSH32 0x8C379A000000000000000000000000000000000000000000000000000000000 DUP2 MSTORE PUSH1 0x4 ADD PUSH2 0xD97 SWAP1 PUSH2 0x1AA6 JUMP JUMPDEST PUSH1 0x40 MLOAD DUP1 SWAP2 SUB SWAP1 REVERT JUMPDEST CALLER PUSH1 0x2 DUP4 PUSH1 0x40 MLOAD PUSH2 0xDB1 SWAP2 SWAP1 PUSH2 0x144C JUMP JUMPDEST SWAP1 DUP2 MSTORE PUSH1 0x20 ADD PUSH1 0x40 MLOAD DUP1 SWAP2 SUB SWAP1 KECCAK256 PUSH0 PUSH2 0x100 EXP DUP2 SLOAD DUP2 PUSH20 0xFFFFFFFFFFFFFFFFFFFFFFFFFFFFFFFFFFFFFFFF MUL NOT AND SWAP1 DUP4 PUSH20 0xFFFFFFFFFFFFFFFFFFFFFFFFFFFFFFFFFFFFFFFF AND MUL OR SWAP1 SSTORE POP DUP1 PUSH1 0x3 DUP4 PUSH1 0x40 MLOAD PUSH2 0xE0D SWAP2 SWAP1 PUSH2 0x144C JUMP JUMPDEST SWAP1 DUP2 MSTORE PUSH1 0x20 ADD PUSH1 0x40 MLOAD DUP1 SWAP2 SUB SWAP1 KECCAK256 DUP2 SWAP1 SSTORE POP POP POP JUMP JUMPDEST PUSH2 0xE4B CALLER PUSH1 0x12 PUSH1 0xFF AND PUSH1 0xA PUSH2 0xE38 SWAP2 SWAP1 PUSH2 0x1BF3 JUMP JUMPDEST PUSH3 0xF4240 PUSH2 0xE46 SWAP2 SWAP1 PUSH2 0x1C3D JUMP JUMPDEST PUSH2 0x608 JUMP JUMPDEST JUMP JUMPDEST DUP1 PUSH1 0x1 PUSH0 DUP6 PUSH20 0xFFFFFFFFFFFFFFFFFFFFFFFFFFFFFFFFFFFFFFFF AND PUSH20 0xFFFFFFFFFFFFFFFFFFFFFFFFFFFFFFFFFFFFFFFF AND DUP2 MSTORE PUSH1 0x20 ADD SWAP1 DUP2 MSTORE PUSH1 0x20 ADD PUSH0 KECCAK256 SLOAD LT ISZERO PUSH2 0xECD JUMPI PUSH1 0x40 MLOAD PUSH32 0x8C379A000000000000000000000000000000000000000000000000000000000 DUP2 MSTORE PUSH1 0x4 ADD PUSH2 0xEC4 SWAP1 PUSH2 0x1A0B JUMP JUMPDEST PUSH1 0x40 MLOAD DUP1 SWAP2 SUB SWAP1 REVERT JUMPDEST DUP1 PUSH1 0x1 PUSH0 DUP6 PUSH20 0xFFFFFFFFFFFFFFFFFFFFFFFFFFFFFFFFFFFFFFFF AND PUSH20 0xFFFFFFFFFFFFFFFFFFFFFFFFFFFFFFFFFFFFFFFF AND DUP2 MSTORE PUSH1 0x20 ADD SWAP1 DUP2 MSTORE PUSH1 0x20 ADD PUSH0 KECCAK256 PUSH0 DUP3 DUP3 SLOAD PUSH2 0xF19 SWAP2 SWAP1 PUSH2 0x1A29 JUMP JUMPDEST SWAP3 POP POP DUP2 SWAP1 SSTORE POP DUP1 PUSH1 0x1 PUSH0 DUP5 PUSH20 0xFFFFFFFFFFFFFFFFFFFFFFFFFFFFFFFFFFFFFFFF AND PUSH20 0xFFFFFFFFFFFFFFFFFFFFFFFFFFFFFFFFFFFFFFFF AND DUP2 MSTORE PUSH1 0x20 ADD SWAP1 DUP2 MSTORE PUSH1 0x20 ADD PUSH0 KECCAK256 PUSH0 DUP3 DUP3 SLOAD PUSH2 0xF6C SWAP2 SWAP1 PUSH2 0x1828 JUMP JUMPDEST SWAP3 POP POP DUP2 SWAP1 SSTORE POP DUP2 PUSH20 0xFFFFFFFFFFFFFFFFFFFFFFFFFFFFFFFFFFFFFFFF AND DUP4 PUSH20 0xFFFFFFFFFFFFFFFFFFFFFFFFFFFFFFFFFFFFFFFF AND PUSH32 0xDDF252AD1BE2C89B69C2B068FC378DAA952BA7F163C4A11628F55A4DF523B3EF DUP4 PUSH1 0x40 MLOAD PUSH2 0xFD0 SWAP2 SWAP1 PUSH2 0x1223 JUMP JUMPDEST PUSH1 0x40 MLOAD DUP1 SWAP2 SUB SWAP1 LOG3 POP POP POP JUMP JUMPDEST PUSH0 DUP2 MLOAD SWAP1 POP SWAP2 SWAP1 POP JUMP JUMPDEST PUSH0 DUP3 DUP3 MSTORE PUSH1 0x20 DUP3 ADD SWAP1 POP SWAP3 SWAP2 POP POP JUMP JUMPDEST PUSH0 JUMPDEST DUP4 DUP2 LT ISZERO PUSH2 0x1014 JUMPI DUP1 DUP3 ADD MLOAD DUP2 DUP5 ADD MSTORE PUSH1 0x20 DUP2 ADD SWAP1 POP PUSH2 0xFF9 JUMP JUMPDEST PUSH0 DUP5 DUP5 ADD MSTORE POP POP POP POP JUMP JUMPDEST PUSH0 PUSH1 0x1F NOT PUSH1 0x1F DUP4 ADD AND SWAP1 POP SWAP2 SWAP1 POP JUMP JUMPDEST PUSH0 PUSH2 0x1039 DUP3 PUSH2 0xFDD JUMP JUMPDEST PUSH2 0x1043 DUP2 DUP6 PUSH2 0xFE7 JUMP JUMPDEST SWAP4 POP PUSH2 0x1053 DUP2 DUP6 PUSH1 0x20 DUP7 ADD PUSH2 0xFF7 JUMP JUMPDEST PUSH2 0x105C DUP2 PUSH2 0x101F JUMP JUMPDEST DUP5 ADD SWAP2 POP POP SWAP3 SWAP2 POP POP JUMP JUMPDEST PUSH0 PUSH1 0x20 DUP3 ADD SWAP1 POP DUP2 DUP2 SUB PUSH0 DUP4 ADD MSTORE PUSH2 0x107F DUP2 DUP5 PUSH2 0x102F JUMP JUMPDEST SWAP1 POP SWAP3 SWAP2 POP POP JUMP JUMPDEST PUSH0 PUSH1 0x40 MLOAD SWAP1 POP SWAP1 JUMP JUMPDEST PUSH0 DUP1 REVERT JUMPDEST PUSH0 DUP1 REVERT JUMPDEST PUSH0 DUP1 REVERT JUMPDEST PUSH0 DUP1 REVERT JUMPDEST PUSH32 0x4E487B7100000000000000000000000000000000000000000000000000000000 PUSH0 MSTORE PUSH1 0x41 PUSH1 0x4 MSTORE PUSH1 0x24 PUSH0 REVERT JUMPDEST PUSH2 0x10D6 DUP3 PUSH2 0x101F JUMP JUMPDEST DUP2 ADD DUP2 DUP2 LT PUSH8 0xFFFFFFFFFFFFFFFF DUP3 GT OR ISZERO PUSH2 0x10F5 JUMPI PUSH2 0x10F4 PUSH2 0x10A0 JUMP JUMPDEST JUMPDEST DUP1 PUSH1 0x40 MSTORE POP POP POP JUMP JUMPDEST PUSH0 PUSH2 0x1107 PUSH2 0x1087 JUMP JUMPDEST SWAP1 POP PUSH2 0x1113 DUP3 DUP3 PUSH2 0x10CD JUMP JUMPDEST SWAP2 SWAP1 POP JUMP JUMPDEST PUSH0 PUSH8 0xFFFFFFFFFFFFFFFF DUP3 GT ISZERO PUSH2 0x1132 JUMPI PUSH2 0x1131 PUSH2 0x10A0 JUMP JUMPDEST JUMPDEST PUSH2 0x113B DUP3 PUSH2 0x101F JUMP JUMPDEST SWAP1 POP PUSH1 0x20 DUP2 ADD SWAP1 POP SWAP2 SWAP1 POP JUMP JUMPDEST DUP3 DUP2 DUP4 CALLDATACOPY PUSH0 DUP4 DUP4 ADD MSTORE POP POP POP JUMP JUMPDEST PUSH0 PUSH2 0x1168 PUSH2 0x1163 DUP5 PUSH2 0x1118 JUMP JUMPDEST PUSH2 0x10FE JUMP JUMPDEST SWAP1 POP DUP3 DUP2 MSTORE PUSH1 0x20 DUP2 ADD DUP5 DUP5 DUP5 ADD GT ISZERO PUSH2 0x1184 JUMPI PUSH2 0x1183 PUSH2 0x109C JUMP JUMPDEST JUMPDEST PUSH2 0x118F DUP5 DUP3 DUP6 PUSH2 0x1148 JUMP JUMPDEST POP SWAP4 SWAP3 POP POP POP JUMP JUMPDEST PUSH0 DUP3 PUSH1 0x1F DUP4 ADD SLT PUSH2 0x11AB JUMPI PUSH2 0x11AA PUSH2 0x1098 JUMP JUMPDEST JUMPDEST DUP2 CALLDATALOAD PUSH2 0x11BB DUP5 DUP3 PUSH1 0x20 DUP7 ADD PUSH2 0x1156 JUMP JUMPDEST SWAP2 POP POP SWAP3 SWAP2 POP POP JUMP JUMPDEST PUSH0 PUSH1 0x20 DUP3 DUP5 SUB SLT ISZERO PUSH2 0x11D9 JUMPI PUSH2 0x11D8 PUSH2 0x1090 JUMP JUMPDEST JUMPDEST PUSH0 DUP3 ADD CALLDATALOAD PUSH8 0xFFFFFFFFFFFFFFFF DUP2 GT ISZERO PUSH2 0x11F6 JUMPI PUSH2 0x11F5 PUSH2 0x1094 JUMP JUMPDEST JUMPDEST PUSH2 0x1202 DUP5 DUP3 DUP6 ADD PUSH2 0x1197 JUMP JUMPDEST SWAP2 POP POP SWAP3 SWAP2 POP POP JUMP JUMPDEST PUSH0 DUP2 SWAP1 POP SWAP2 SWAP1 POP JUMP JUMPDEST PUSH2 0x121D DUP2 PUSH2 0x120B JUMP JUMPDEST DUP3 MSTORE POP POP JUMP JUMPDEST PUSH0 PUSH1 0x20 DUP3 ADD SWAP1 POP PUSH2 0x1236 PUSH0 DUP4 ADD DUP5 PUSH2 0x1214 JUMP JUMPDEST SWAP3 SWAP2 POP POP JUMP JUMPDEST PUSH0 PUSH20 0xFFFFFFFFFFFFFFFFFFFFFFFFFFFFFFFFFFFFFFFF DUP3 AND SWAP1 POP SWAP2 SWAP1 POP JUMP JUMPDEST PUSH0 PUSH2 0x1265 DUP3 PUSH2 0x123C JUMP JUMPDEST SWAP1 POP SWAP2 SWAP1 POP JUMP JUMPDEST PUSH2 0x1275 DUP2 PUSH2 0x125B JUMP JUMPDEST DUP2 EQ PUSH2 0x127F JUMPI PUSH0 DUP1 REVERT JUMPDEST POP JUMP JUMPDEST PUSH0 DUP2 CALLDATALOAD SWAP1 POP PUSH2 0x1290 DUP2 PUSH2 0x126C JUMP JUMPDEST SWAP3 SWAP2 POP POP JUMP JUMPDEST PUSH0 PUSH1 0x20 DUP3 DUP5 SUB SLT ISZERO PUSH2 0x12AB JUMPI PUSH2 0x12AA PUSH2 0x1090 JUMP JUMPDEST JUMPDEST PUSH0 PUSH2 0x12B8 DUP5 DUP3 DUP6 ADD PUSH2 0x1282 JUMP JUMPDEST SWAP2 POP POP SWAP3 SWAP2 POP POP JUMP JUMPDEST PUSH0 PUSH1 0xFF DUP3 AND SWAP1 POP SWAP2 SWAP1 POP JUMP JUMPDEST PUSH2 0x12D6 DUP2 PUSH2 0x12C1 JUMP JUMPDEST DUP3 MSTORE POP POP JUMP JUMPDEST PUSH0 PUSH1 0x20 DUP3 ADD SWAP1 POP PUSH2 0x12EF PUSH0 DUP4 ADD DUP5 PUSH2 0x12CD JUMP JUMPDEST SWAP3 SWAP2 POP POP JUMP JUMPDEST PUSH2 0x12FE DUP2 PUSH2 0x120B JUMP JUMPDEST DUP2 EQ PUSH2 0x1308 JUMPI PUSH0 DUP1 REVERT JUMPDEST POP JUMP JUMPDEST PUSH0 DUP2 CALLDATALOAD SWAP1 POP PUSH2 0x1319 DUP2 PUSH2 0x12F5 JUMP JUMPDEST SWAP3 SWAP2 POP POP JUMP JUMPDEST PUSH0 DUP1 PUSH1 0x40 DUP4 DUP6 SUB SLT ISZERO PUSH2 0x1335 JUMPI PUSH2 0x1334 PUSH2 0x1090 JUMP JUMPDEST JUMPDEST PUSH0 PUSH2 0x1342 DUP6 DUP3 DUP7 ADD PUSH2 0x1282 JUMP JUMPDEST SWAP3 POP POP PUSH1 0x20 PUSH2 0x1353 DUP6 DUP3 DUP7 ADD PUSH2 0x130B JUMP JUMPDEST SWAP2 POP POP SWAP3 POP SWAP3 SWAP1 POP JUMP JUMPDEST PUSH2 0x1366 DUP2 PUSH2 0x125B JUMP JUMPDEST DUP3 MSTORE POP POP JUMP JUMPDEST PUSH0 PUSH1 0x20 DUP3 ADD SWAP1 POP PUSH2 0x137F PUSH0 DUP4 ADD DUP5 PUSH2 0x135D JUMP JUMPDEST SWAP3 SWAP2 POP POP JUMP JUMPDEST PUSH0 DUP2 ISZERO ISZERO SWAP1 POP SWAP2 SWAP1 POP JUMP JUMPDEST PUSH2 0x1399 DUP2 PUSH2 0x1385 JUMP JUMPDEST DUP3 MSTORE POP POP JUMP JUMPDEST PUSH0 PUSH1 0x20 DUP3 ADD SWAP1 POP PUSH2 0x13B2 PUSH0 DUP4 ADD DUP5 PUSH2 0x1390 JUMP JUMPDEST SWAP3 SWAP2 POP POP JUMP JUMPDEST PUSH0 DUP1 PUSH1 0x40 DUP4 DUP6 SUB SLT ISZERO PUSH2 0x13CE JUMPI PUSH2 0x13CD PUSH2 0x1090 JUMP JUMPDEST JUMPDEST PUSH0 DUP4 ADD CALLDATALOAD PUSH8 0xFFFFFFFFFFFFFFFF DUP2 GT ISZERO PUSH2 0x13EB JUMPI PUSH2 0x13EA PUSH2 0x1094 JUMP JUMPDEST JUMPDEST PUSH2 0x13F7 DUP6 DUP3 DUP7 ADD PUSH2 0x1197 JUMP JUMPDEST SWAP3 POP POP PUSH1 0x20 PUSH2 0x1408 DUP6 DUP3 DUP7 ADD PUSH2 0x130B JUMP JUMPDEST SWAP2 POP POP SWAP3 POP SWAP3 SWAP1 POP JUMP JUMPDEST PUSH0 DUP2 SWAP1 POP SWAP3 SWAP2 POP POP JUMP JUMPDEST PUSH0 PUSH2 0x1426 DUP3 PUSH2 0xFDD JUMP JUMPDEST PUSH2 0x1430 DUP2 DUP6 PUSH2 0x1412 JUMP JUMPDEST SWAP4 POP PUSH2 0x1440 DUP2 DUP6 PUSH1 0x20 DUP7 ADD PUSH2 0xFF7 JUMP JUMPDEST DUP1 DUP5 ADD SWAP2 POP POP SWAP3 SWAP2 POP POP JUMP JUMPDEST PUSH0 PUSH2 0x1457 DUP3 DUP5 PUSH2 0x141C JUMP JUMPDEST SWAP2 POP DUP2 SWAP1 POP SWAP3 SWAP2 POP POP JUMP JUMPDEST PUSH32 0x50726F7065727479206E6F7420666F722073616C650000000000000000000000 PUSH0 DUP3 ADD MSTORE POP JUMP JUMPDEST PUSH0 PUSH2 0x1496 PUSH1 0x15 DUP4 PUSH2 0xFE7 JUMP JUMPDEST SWAP2 POP PUSH2 0x14A1 DUP3 PUSH2 0x1462 JUMP JUMPDEST PUSH1 0x20 DUP3 ADD SWAP1 POP SWAP2 SWAP1 POP JUMP JUMPDEST PUSH0 PUSH1 0x20 DUP3 ADD SWAP1 POP DUP2 DUP2 SUB PUSH0 DUP4 ADD MSTORE PUSH2 0x14C3 DUP2 PUSH2 0x148A JUMP JUMPDEST SWAP1 POP SWAP2 SWAP1 POP JUMP JUMPDEST PUSH32 0x496E73756666696369656E7420746F6B656E2062616C616E6365000000000000 PUSH0 DUP3 ADD MSTORE POP JUMP JUMPDEST PUSH0 PUSH2 0x14FE PUSH1 0x1A DUP4 PUSH2 0xFE7 JUMP JUMPDEST SWAP2 POP PUSH2 0x1509 DUP3 PUSH2 0x14CA JUMP JUMPDEST PUSH1 0x20 DUP3 ADD SWAP1 POP SWAP2 SWAP1 POP JUMP JUMPDEST PUSH0 PUSH1 0x20 DUP3 ADD SWAP1 POP DUP2 DUP2 SUB PUSH0 DUP4 ADD MSTORE PUSH2 0x152B DUP2 PUSH2 0x14F2 JUMP JUMPDEST SWAP1 POP SWAP2 SWAP1 POP JUMP JUMPDEST PUSH32 0x4E487B7100000000000000000000000000000000000000000000000000000000 PUSH0 MSTORE PUSH1 0x22 PUSH1 0x4 MSTORE PUSH1 0x24 PUSH0 REVERT JUMPDEST PUSH0 PUSH1 0x2 DUP3 DIV SWAP1 POP PUSH1 0x1 DUP3 AND DUP1 PUSH2 0x1576 JUMPI PUSH1 0x7F DUP3 AND SWAP2 POP JUMPDEST PUSH1 0x20 DUP3 LT DUP2 SUB PUSH2 0x1589 JUMPI PUSH2 0x1588 PUSH2 0x1532 JUMP JUMPDEST JUMPDEST POP SWAP2 SWAP1 POP JUMP JUMPDEST PUSH0 DUP2 SWAP1 POP DUP2 PUSH0 MSTORE PUSH1 0x20 PUSH0 KECCAK256 SWAP1 POP SWAP2 SWAP1 POP JUMP JUMPDEST PUSH0 PUSH1 0x20 PUSH1 0x1F DUP4 ADD DIV SWAP1 POP SWAP2 SWAP1 POP JUMP JUMPDEST PUSH0 DUP3 DUP3 SHL SWAP1 POP SWAP3 SWAP2 POP POP JUMP JUMPDEST PUSH0 PUSH1 0x8 DUP4 MUL PUSH2 0x15EB PUSH32 0xFFFFFFFFFFFFFFFFFFFFFFFFFFFFFFFFFFFFFFFFFFFFFFFFFFFFFFFFFFFFFFFF DUP3 PUSH2 0x15B0 JUMP JUMPDEST PUSH2 0x15F5 DUP7 DUP4 PUSH2 0x15B0 JUMP JUMPDEST SWAP6 POP DUP1 NOT DUP5 AND SWAP4 POP DUP1 DUP7 AND DUP5 OR SWAP3 POP POP POP SWAP4 SWAP3 POP POP POP JUMP JUMPDEST PUSH0 DUP2 SWAP1 POP SWAP2 SWAP1 POP JUMP JUMPDEST PUSH0 PUSH2 0x1630 PUSH2 0x162B PUSH2 0x1626 DUP5 PUSH2 0x120B JUMP JUMPDEST PUSH2 0x160D JUMP JUMPDEST PUSH2 0x120B JUMP JUMPDEST SWAP1 POP SWAP2 SWAP1 POP JUMP JUMPDEST PUSH0 DUP2 SWAP1 POP SWAP2 SWAP1 POP JUMP JUMPDEST PUSH2 0x1649 DUP4 PUSH2 0x1616 JUMP JUMPDEST PUSH2 0x165D PUSH2 0x1655 DUP3 PUSH2 0x1637 JUMP JUMPDEST DUP5 DUP5 SLOAD PUSH2 0x15BC JUMP JUMPDEST DUP3 SSTORE POP POP POP POP JUMP JUMPDEST PUSH0 SWAP1 JUMP JUMPDEST PUSH2 0x1671 PUSH2 0x1665 JUMP JUMPDEST PUSH2 0x167C DUP2 DUP5 DUP5 PUSH2 0x1640 JUMP JUMPDEST POP POP POP JUMP JUMPDEST JUMPDEST DUP2 DUP2 LT ISZERO PUSH2 0x169F JUMPI PUSH2 0x1694 PUSH0 DUP3 PUSH2 0x1669 JUMP JUMPDEST PUSH1 0x1 DUP2 ADD SWAP1 POP PUSH2 0x1682 JUMP JUMPDEST POP POP JUMP JUMPDEST PUSH1 0x1F DUP3 GT ISZERO PUSH2 0x16E4 JUMPI PUSH2 0x16B5 DUP2 PUSH2 0x158F JUMP JUMPDEST PUSH2 0x16BE DUP5 PUSH2 0x15A1 JUMP JUMPDEST DUP2 ADD PUSH1 0x20 DUP6 LT ISZERO PUSH2 0x16CD JUMPI DUP2 SWAP1 POP JUMPDEST PUSH2 0x16E1 PUSH2 0x16D9 DUP6 PUSH2 0x15A1 JUMP JUMPDEST DUP4 ADD DUP3 PUSH2 0x1681 JUMP JUMPDEST POP POP JUMPDEST POP POP POP JUMP JUMPDEST PUSH0 DUP3 DUP3 SHR SWAP1 POP SWAP3 SWAP2 POP POP JUMP JUMPDEST PUSH0 PUSH2 0x1704 PUSH0 NOT DUP5 PUSH1 0x8 MUL PUSH2 0x16E9 JUMP JUMPDEST NOT DUP1 DUP4 AND SWAP2 POP POP SWAP3 SWAP2 POP POP JUMP JUMPDEST PUSH0 PUSH2 0x171C DUP4 DUP4 PUSH2 0x16F5 JUMP JUMPDEST SWAP2 POP DUP3 PUSH1 0x2 MUL DUP3 OR SWAP1 POP SWAP3 SWAP2 POP POP JUMP JUMPDEST PUSH2 0x1735 DUP3 PUSH2 0xFDD JUMP JUMPDEST PUSH8 0xFFFFFFFFFFFFFFFF DUP2 GT ISZERO PUSH2 0x174E JUMPI PUSH2 0x174D PUSH2 0x10A0 JUMP JUMPDEST JUMPDEST PUSH2 0x1758 DUP3 SLOAD PUSH2 0x155F JUMP JUMPDEST PUSH2 0x1763 DUP3 DUP3 DUP6 PUSH2 0x16A3 JUMP JUMPDEST PUSH0 PUSH1 0x20 SWAP1 POP PUSH1 0x1F DUP4 GT PUSH1 0x1 DUP2 EQ PUSH2 0x1794 JUMPI PUSH0 DUP5 ISZERO PUSH2 0x1782 JUMPI DUP3 DUP8 ADD MLOAD SWAP1 POP JUMPDEST PUSH2 0x178C DUP6 DUP3 PUSH2 0x1711 JUMP JUMPDEST DUP7 SSTORE POP PUSH2 0x17F3 JUMP JUMPDEST PUSH1 0x1F NOT DUP5 AND PUSH2 0x17A2 DUP7 PUSH2 0x158F JUMP JUMPDEST PUSH0 JUMPDEST DUP3 DUP2 LT ISZERO PUSH2 0x17C9 JUMPI DUP5 DUP10 ADD MLOAD DUP3 SSTORE PUSH1 0x1 DUP3 ADD SWAP2 POP PUSH1 0x20 DUP6 ADD SWAP5 POP PUSH1 0x20 DUP2 ADD SWAP1 POP PUSH2 0x17A4 JUMP JUMPDEST DUP7 DUP4 LT ISZERO PUSH2 0x17E6 JUMPI DUP5 DUP10 ADD MLOAD PUSH2 0x17E2 PUSH1 0x1F DUP10 AND DUP3 PUSH2 0x16F5 JUMP JUMPDEST DUP4 SSTORE POP JUMPDEST PUSH1 0x1 PUSH1 0x2 DUP9 MUL ADD DUP9 SSTORE POP POP POP JUMPDEST POP POP POP POP POP POP JUMP JUMPDEST PUSH32 0x4E487B7100000000000000000000000000000000000000000000000000000000 PUSH0 MSTORE PUSH1 0x11 PUSH1 0x4 MSTORE PUSH1 0x24 PUSH0 REVERT JUMPDEST PUSH0 PUSH2 0x1832 DUP3 PUSH2 0x120B JUMP JUMPDEST SWAP2 POP PUSH2 0x183D DUP4 PUSH2 0x120B JUMP JUMPDEST SWAP3 POP DUP3 DUP3 ADD SWAP1 POP DUP1 DUP3 GT ISZERO PUSH2 0x1855 JUMPI PUSH2 0x1854 PUSH2 0x17FB JUMP JUMPDEST JUMPDEST SWAP3 SWAP2 POP POP JUMP JUMPDEST PUSH32 0x4E6F20657363726F77206465706F73697420666F756E64000000000000000000 PUSH0 DUP3 ADD MSTORE POP JUMP JUMPDEST PUSH0 PUSH2 0x188F PUSH1 0x17 DUP4 PUSH2 0xFE7 JUMP JUMPDEST SWAP2 POP PUSH2 0x189A DUP3 PUSH2 0x185B JUMP JUMPDEST PUSH1 0x20 DUP3 ADD SWAP1 POP SWAP2 SWAP1 POP JUMP JUMPDEST PUSH0 PUSH1 0x20 DUP3 ADD SWAP1 POP DUP2 DUP2 SUB PUSH0 DUP4 ADD MSTORE PUSH2 0x18BC DUP2 PUSH2 0x1883 JUMP JUMPDEST SWAP1 POP SWAP2 SWAP1 POP JUMP JUMPDEST PUSH32 0x457363726F7720706572696F64206E6F742079657420656C6170736564000000 PUSH0 DUP3 ADD MSTORE POP JUMP JUMPDEST PUSH0 PUSH2 0x18F7 PUSH1 0x1D DUP4 PUSH2 0xFE7 JUMP JUMPDEST SWAP2 POP PUSH2 0x1902 DUP3 PUSH2 0x18C3 JUMP JUMPDEST PUSH1 0x20 DUP3 ADD SWAP1 POP SWAP2 SWAP1 POP JUMP JUMPDEST PUSH0 PUSH1 0x20 DUP3 ADD SWAP1 POP DUP2 DUP2 SUB PUSH0 DUP4 ADD MSTORE PUSH2 0x1924 DUP2 PUSH2 0x18EB JUMP JUMPDEST SWAP1 POP SWAP2 SWAP1 POP JUMP JUMPDEST PUSH0 DUP2 SLOAD PUSH2 0x1937 DUP2 PUSH2 0x155F JUMP JUMPDEST PUSH2 0x1941 DUP2 DUP7 PUSH2 0x1412 JUMP JUMPDEST SWAP5 POP PUSH1 0x1 DUP3 AND PUSH0 DUP2 EQ PUSH2 0x195B JUMPI PUSH1 0x1 DUP2 EQ PUSH2 0x1970 JUMPI PUSH2 0x19A2 JUMP JUMPDEST PUSH1 0xFF NOT DUP4 AND DUP7 MSTORE DUP2 ISZERO ISZERO DUP3 MUL DUP7 ADD SWAP4 POP PUSH2 0x19A2 JUMP JUMPDEST PUSH2 0x1979 DUP6 PUSH2 0x158F JUMP JUMPDEST PUSH0 JUMPDEST DUP4 DUP2 LT ISZERO PUSH2 0x199A JUMPI DUP2 SLOAD DUP2 DUP10 ADD MSTORE PUSH1 0x1 DUP3 ADD SWAP2 POP PUSH1 0x20 DUP2 ADD SWAP1 POP PUSH2 0x197B JUMP JUMPDEST DUP4 DUP9 ADD SWAP6 POP POP POP JUMPDEST POP POP POP SWAP3 SWAP2 POP POP JUMP JUMPDEST PUSH0 PUSH2 0x19B6 DUP3 DUP5 PUSH2 0x192B JUMP JUMPDEST SWAP2 POP DUP2 SWAP1 POP SWAP3 SWAP2 POP POP JUMP JUMPDEST PUSH32 0x496E73756666696369656E742062616C616E6365000000000000000000000000 PUSH0 DUP3 ADD MSTORE POP JUMP JUMPDEST PUSH0 PUSH2 0x19F5 PUSH1 0x14 DUP4 PUSH2 0xFE7 JUMP JUMPDEST SWAP2 POP PUSH2 0x1A00 DUP3 PUSH2 0x19C1 JUMP JUMPDEST PUSH1 0x20 DUP3 ADD SWAP1 POP SWAP2 SWAP1 POP JUMP JUMPDEST PUSH0 PUSH1 0x20 DUP3 ADD SWAP1 POP DUP2 DUP2 SUB PUSH0 DUP4 ADD MSTORE PUSH2 0x1A22 DUP2 PUSH2 0x19E9 JUMP JUMPDEST SWAP1 POP SWAP2 SWAP1 POP JUMP JUMPDEST PUSH0 PUSH2 0x1A33 DUP3 PUSH2 0x120B JUMP JUMPDEST SWAP2 POP PUSH2 0x1A3E DUP4 PUSH2 0x120B JUMP JUMPDEST SWAP3 POP DUP3 DUP3 SUB SWAP1 POP DUP2 DUP2 GT ISZERO PUSH2 0x1A56 JUMPI PUSH2 0x1A55 PUSH2 0x17FB JUMP JUMPDEST JUMPDEST SWAP3 SWAP2 POP POP JUMP JUMPDEST PUSH32 0x4861736820616C72656164792072656769737465726564000000000000000000 PUSH0 DUP3 ADD MSTORE POP JUMP JUMPDEST PUSH0 PUSH2 0x1A90 PUSH1 0x17 DUP4 PUSH2 0xFE7 JUMP JUMPDEST SWAP2 POP PUSH2 0x1A9B DUP3 PUSH2 0x1A5C JUMP JUMPDEST PUSH1 0x20 DUP3 ADD SWAP1 POP SWAP2 SWAP1 POP JUMP JUMPDEST PUSH0 PUSH1 0x20 DUP3 ADD SWAP1 POP DUP2 DUP2 SUB PUSH0 DUP4 ADD MSTORE PUSH2 0x1ABD DUP2 PUSH2 0x1A84 JUMP JUMPDEST SWAP1 POP SWAP2 SWAP1 POP JUMP JUMPDEST PUSH0 DUP2 PUSH1 0x1 SHR SWAP1 POP SWAP2 SWAP1 POP JUMP JUMPDEST PUSH0 DUP1 DUP3 SWAP2 POP DUP4 SWAP1 POP JUMPDEST PUSH1 0x1 DUP6 GT ISZERO PUSH2 0x1B19 JUMPI DUP1 DUP7 DIV DUP2 GT ISZERO PUSH2 0x1AF5 JUMPI PUSH2 0x1AF4 PUSH2 0x17FB JUMP JUMPDEST JUMPDEST PUSH1 0x1 DUP6 AND ISZERO PUSH2 0x1B04 JUMPI DUP1 DUP3 MUL SWAP2 POP JUMPDEST DUP1 DUP2 MUL SWAP1 POP PUSH2 0x1B12 DUP6 PUSH2 0x1AC4 JUMP JUMPDEST SWAP5 POP PUSH2 0x1AD9 JUMP JUMPDEST SWAP5 POP SWAP5 SWAP3 POP POP POP JUMP JUMPDEST PUSH0 DUP3 PUSH2 0x1B31 JUMPI PUSH1 0x1 SWAP1 POP PUSH2 0x1BEC JUMP JUMPDEST DUP2 PUSH2 0x1B3E JUMPI PUSH0 SWAP1 POP PUSH2 0x1BEC JUMP JUMPDEST DUP2 PUSH1 0x1 DUP2 EQ PUSH2 0x1B54 JUMPI PUSH1 0x2 DUP2 EQ PUSH2 0x1B5E JUMPI PUSH2 0x1B8D JUMP JUMPDEST PUSH1 0x1 SWAP2 POP POP PUSH2 0x1BEC JUMP JUMPDEST PUSH1 0xFF DUP5 GT ISZERO PUSH2 0x1B70 JUMPI PUSH2 0x1B6F PUSH2 0x17FB JUMP JUMPDEST JUMPDEST DUP4 PUSH1 0x2 EXP SWAP2 POP DUP5 DUP3 GT ISZERO PUSH2 0x1B87 JUMPI PUSH2 0x1B86 PUSH2 0x17FB JUMP JUMPDEST JUMPDEST POP PUSH2 0x1BEC JUMP JUMPDEST POP PUSH1 0x20 DUP4 LT PUSH2 0x133 DUP4 LT AND PUSH1 0x4E DUP5 LT PUSH1 0xB DUP5 LT AND OR ISZERO PUSH2 0x1BC2 JUMPI DUP3 DUP3 EXP SWAP1 POP DUP4 DUP2 GT ISZERO PUSH2 0x1BBD JUMPI PUSH2 0x1BBC PUSH2 0x17FB JUMP JUMPDEST JUMPDEST PUSH2 0x1BEC JUMP JUMPDEST PUSH2 0x1BCF DUP5 DUP5 DUP5 PUSH1 0x1 PUSH2 0x1AD0 JUMP JUMPDEST SWAP3 POP SWAP1 POP DUP2 DUP5 DIV DUP2 GT ISZERO PUSH2 0x1BE6 JUMPI PUSH2 0x1BE5 PUSH2 0x17FB JUMP JUMPDEST JUMPDEST DUP2 DUP2 MUL SWAP1 POP JUMPDEST SWAP4 SWAP3 POP POP POP JUMP JUMPDEST PUSH0 PUSH2 0x1BFD DUP3 PUSH2 0x120B JUMP JUMPDEST SWAP2 POP PUSH2 0x1C08 DUP4 PUSH2 0x120B JUMP JUMPDEST SWAP3 POP PUSH2 0x1C35 PUSH32 0xFFFFFFFFFFFFFFFFFFFFFFFFFFFFFFFFFFFFFFFFFFFFFFFFFFFFFFFFFFFFFFFF DUP5 DUP5 PUSH2 0x1B22 JUMP JUMPDEST SWAP1 POP SWAP3 SWAP2 POP POP JUMP JUMPDEST PUSH0 PUSH2 0x1C47 DUP3 PUSH2 0x120B JUMP JUMPDEST SWAP2 POP PUSH2 0x1C52 DUP4 PUSH2 0x120B JUMP JUMPDEST SWAP3 POP DUP3 DUP3 MUL PUSH2 0x1C60 DUP2 PUSH2 0x120B JUMP JUMPDEST SWAP2 POP DUP3 DUP3 DIV DUP5 EQ DUP4 ISZERO OR PUSH2 0x1C77 JUMPI PUSH2 0x1C76 PUSH2 0x17FB JUMP JUMPDEST JUMPDEST POP SWAP3 SWAP2 POP POP JUMP INVALID LOG2 PUSH5 0x6970667358 0x22 SLT KECCAK256 0x4C 0xC MSTORE RETURNDATASIZE CREATE2 0x21 DUP4 0x21 PREVRANDAO 0xE4 PUSH15 0xCCBB670DBA221F0BF027997FD54FE 0x2C 0xB5 0xF6 0xD1 REVERT SWAP9 PUSH5 0x736F6C6343 STOP ADDMOD AND STOP CALLER "
				},
				"gasEstimates": {
					"creation": {
						"codeDepositCost": "1469600",
						"executionCost": "1532",
						"totalCost": "1471132"
					},
					"external": {
						"balanceOf(address)": "2918",
						"decimals()": "376",
						"escrowDeposits(address)": "2824",
						"escrowPropertyHashes(address)": "infinite",
						"escrowTimestamps(address)": "2891",
						"mint(address,uint256)": "infinite",
						"mintTokens()": "infinite",
						"name()": "infinite",
						"propertyOwners(string)": "infinite",
						"propertyPrices(string)": "infinite",
						"releaseEscrow()": "infinite",
						"sendToEscrow(string)": "infinite",
						"storePropertyHash(string,uint256)": "infinite",
						"symbol()": "infinite",
						"totalSupply()": "2500",
						"transfer(address,uint256)": "infinite",
						"verifyPropertyOwner(string)": "infinite"
					}
				},
				"methodIdentifiers": {
					"balanceOf(address)": "70a08231",
					"decimals()": "313ce567",
					"escrowDeposits(address)": "a2d5b005",
					"escrowPropertyHashes(address)": "29db8b40",
					"escrowTimestamps(address)": "967d7451",
					"mint(address,uint256)": "40c10f19",
					"mintTokens()": "eeb9635c",
					"name()": "06fdde03",
					"propertyOwners(string)": "7f6a0ad6",
					"propertyPrices(string)": "19c82c58",
					"releaseEscrow()": "757a5543",
					"sendToEscrow(string)": "0904bacc",
					"storePropertyHash(string,uint256)": "e743a9de",
					"symbol()": "95d89b41",
					"totalSupply()": "18160ddd",
					"transfer(address,uint256)": "a9059cbb",
					"verifyPropertyOwner(string)": "ca672809"
				}
			},
			"storageLayout": {
				"storage": [
					{
						"astId": 51,
						"contract": "contracts/PropertyRegistry.sol:PropertyRegistry",
						"label": "_totalSupply",
						"offset": 0,
						"slot": "0",
						"type": "t_uint256"
					},
					{
						"astId": 55,
						"contract": "contracts/PropertyRegistry.sol:PropertyRegistry",
						"label": "_balances",
						"offset": 0,
						"slot": "1",
						"type": "t_mapping(t_address,t_uint256)"
					},
					{
						"astId": 192,
						"contract": "contracts/PropertyRegistry.sol:PropertyRegistry",
						"label": "propertyOwners",
						"offset": 0,
						"slot": "2",
						"type": "t_mapping(t_string_memory_ptr,t_address)"
					},
					{
						"astId": 196,
						"contract": "contracts/PropertyRegistry.sol:PropertyRegistry",
						"label": "propertyPrices",
						"offset": 0,
						"slot": "3",
						"type": "t_mapping(t_string_memory_ptr,t_uint256)"
					},
					{
						"astId": 200,
						"contract": "contracts/PropertyRegistry.sol:PropertyRegistry",
						"label": "escrowDeposits",
						"offset": 0,
						"slot": "4",
						"type": "t_mapping(t_address,t_uint256)"
					},
					{
						"astId": 204,
						"contract": "contracts/PropertyRegistry.sol:PropertyRegistry",
						"label": "escrowTimestamps",
						"offset": 0,
						"slot": "5",
						"type": "t_mapping(t_address,t_uint256)"
					},
					{
						"astId": 208,
						"contract": "contracts/PropertyRegistry.sol:PropertyRegistry",
						"label": "escrowPropertyHashes",
						"offset": 0,
						"slot": "6",
						"type": "t_mapping(t_address,t_string_storage)"
					}
				],
				"types": {
					"t_address": {
						"encoding": "inplace",
						"label": "address",
						"numberOfBytes": "20"
					},
					"t_mapping(t_address,t_string_storage)": {
						"encoding": "mapping",
						"key": "t_address",
						"label": "mapping(address => string)",
						"numberOfBytes": "32",
						"value": "t_string_storage"
					},
					"t_mapping(t_address,t_uint256)": {
						"encoding": "mapping",
						"key": "t_address",
						"label": "mapping(address => uint256)",
						"numberOfBytes": "32",
						"value": "t_uint256"
					},
					"t_mapping(t_string_memory_ptr,t_address)": {
						"encoding": "mapping",
						"key": "t_string_memory_ptr",
						"label": "mapping(string => address)",
						"numberOfBytes": "32",
						"value": "t_address"
					},
					"t_mapping(t_string_memory_ptr,t_uint256)": {
						"encoding": "mapping",
						"key": "t_string_memory_ptr",
						"label": "mapping(string => uint256)",
						"numberOfBytes": "32",
						"value": "t_uint256"
					},
					"t_string_memory_ptr": {
						"encoding": "bytes",
						"label": "string",
						"numberOfBytes": "32"
					},
					"t_string_storage": {
						"encoding": "bytes",
						"label": "string",
						"numberOfBytes": "32"
					},
					"t_uint256": {
						"encoding": "inplace",
						"label": "uint256",
						"numberOfBytes": "32"
					}
				}
			},
			"userdoc": {
				"kind": "user",
				"methods": {},
				"version": 1
			}
		}
	}
}